8=FIXT.1.1|9=97|35=A|49=VP|56=IDX|34=45|43=N|52=20240126-01:42:27|98=0|108=15|553=vpfc1001|554=jakarta123|1137=8|10=030|
8=FIXT.1.1|9=184|35=D|49=VP|56=IDX|34=46|43=N|52=20240126-01:42:37|50=vpft1001|11=fa37JncCHryDsbzayy4c|38=2|40=2|44=50000|54=5|55=ANTM|59=0|60=20240126-01:42:37|453=1|448=1000|447=C|452=5|581=1|762=RG|10=150|
8=FIXT.1.1|9=184|35=D|49=VP|56=IDX|34=47|43=N|52=20240126-01:42:38|50=vpft1001|11=BWDxS22JjzhMaiRrV41m|38=2|40=2|44=50000|54=5|55=ANTM|59=0|60=20240126-01:42:38|453=1|448=1000|447=C|452=5|581=1|762=RG|10=255|
8=FIXT.1.1|9=159|35=AN|49=VP|56=IDX|34=48|43=N|52=20240126-01:42:45|50=vpft1001|60=20240126-01:42:45|263=0|453=1|448=AD|447=C|452=7|710=20180208RPy4sn1ygt7d|715=20240126|724=1|10=169|
8=FIXT.1.1|9=159|35=AN|49=VP|56=IDX|34=49|43=N|52=20240126-01:43:05|50=vpft1001|60=20240126-01:43:05|263=0|453=1|448=AD|447=C|452=7|710=20180208RPy4sn1ygt7d|715=20240126|724=1|10=164|
8=FIXT.1.1|9=159|35=AN|49=VP|56=IDX|34=50|43=N|52=20240126-01:43:25|50=vpft1001|60=20240126-01:43:25|263=0|453=1|448=AD|447=C|452=7|710=20180208RPy4sn1ygt7d|715=20240126|724=1|10=160|
8=FIXT.1.1|9=159|35=AN|49=VP|56=IDX|34=51|43=N|52=20240126-01:43:45|50=vpft1001|60=20240126-01:43:45|263=0|453=1|448=AD|447=C|452=7|710=20180208RPy4sn1ygt7d|715=20240126|724=1|10=165|
8=FIXT.1.1|9=159|35=AN|49=VP|56=IDX|34=52|43=N|52=20240126-01:44:05|50=vpft1001|60=20240126-01:44:05|263=0|453=1|448=AD|447=C|452=7|710=20180208RPy4sn1ygt7d|715=20240126|724=1|10=160|
8=FIXT.1.1|9=159|35=AN|49=VP|56=IDX|34=53|43=N|52=20240126-01:44:25|50=vpft1001|60=20240126-01:44:25|263=0|453=1|448=AD|447=C|452=7|710=20180208RPy4sn1ygt7d|715=20240126|724=1|10=165|
8=FIXT.1.1|9=159|35=AN|49=VP|56=IDX|34=54|43=N|52=20240126-01:44:45|50=vpft1001|60=20240126-01:44:45|263=0|453=1|448=AD|447=C|452=7|710=20180208RPy4sn1ygt7d|715=20240126|724=1|10=170|
8=FIXT.1.1|9=159|35=AN|49=VP|56=IDX|34=55|43=N|52=20240126-01:45:05|50=vpft1001|60=20240126-01:45:05|263=0|453=1|448=AD|447=C|452=7|710=20180208RPy4sn1ygt7d|715=20240126|724=1|10=165|
8=FIXT.1.1|9=159|35=AN|49=VP|56=IDX|34=56|43=N|52=20240126-01:45:25|50=vpft1001|60=20240126-01:45:25|263=0|453=1|448=AD|447=C|452=7|710=20180208RPy4sn1ygt7d|715=20240126|724=1|10=170|
8=FIXT.1.1|9=159|35=AN|49=VP|56=IDX|34=57|43=N|52=20240126-01:45:45|50=vpft1001|60=20240126-01:45:45|263=0|453=1|448=AD|447=C|452=7|710=20180208RPy4sn1ygt7d|715=20240126|724=1|10=175|
8=FIXT.1.1|9=159|35=AN|49=VP|56=IDX|34=58|43=N|52=20240126-01:46:05|50=vpft1001|60=20240126-01:46:05|263=0|453=1|448=AD|447=C|452=7|710=20180208RPy4sn1ygt7d|715=20240126|724=1|10=170|
8=FIXT.1.1|9=159|35=AN|49=VP|56=IDX|34=59|43=N|52=20240126-01:46:25|50=vpft1001|60=20240126-01:46:25|263=0|453=1|448=AD|447=C|452=7|710=20180208RPy4sn1ygt7d|715=20240126|724=1|10=175|
8=FIXT.1.1|9=159|35=AN|49=VP|56=IDX|34=60|43=N|52=20240126-01:46:45|50=vpft1001|60=20240126-01:46:45|263=0|453=1|448=AD|447=C|452=7|710=20180208RPy4sn1ygt7d|715=20240126|724=1|10=171|
8=FIXT.1.1|9=159|35=AN|49=VP|56=IDX|34=61|43=N|52=20240126-01:47:05|50=vpft1001|60=20240126-01:47:05|263=0|453=1|448=AD|447=C|452=7|710=20180208RPy4sn1ygt7d|715=20240126|724=1|10=166|
8=FIXT.1.1|9=159|35=AN|49=VP|56=IDX|34=62|43=N|52=20240126-01:47:25|50=vpft1001|60=20240126-01:47:25|263=0|453=1|448=AD|447=C|452=7|710=20180208RPy4sn1ygt7d|715=20240126|724=1|10=171|
8=FIXT.1.1|9=159|35=AN|49=VP|56=IDX|34=63|43=N|52=20240126-01:47:45|50=vpft1001|60=20240126-01:47:45|263=0|453=1|448=AD|447=C|452=7|710=20180208RPy4sn1ygt7d|715=20240126|724=1|10=176|
8=FIXT.1.1|9=159|35=AN|49=VP|56=IDX|34=64|43=N|52=20240126-01:48:05|50=vpft1001|60=20240126-01:48:05|263=0|453=1|448=AD|447=C|452=7|710=20180208RPy4sn1ygt7d|715=20240126|724=1|10=171|
8=FIXT.1.1|9=159|35=AN|49=VP|56=IDX|34=65|43=N|52=20240126-01:48:25|50=vpft1001|60=20240126-01:48:25|263=0|453=1|448=AD|447=C|452=7|710=20180208RPy4sn1ygt7d|715=20240126|724=1|10=176|
8=FIXT.1.1|9=159|35=AN|49=VP|56=IDX|34=66|43=N|52=20240126-01:48:45|50=vpft1001|60=20240126-01:48:45|263=0|453=1|448=AD|447=C|452=7|710=20180208RPy4sn1ygt7d|715=20240126|724=1|10=181|
8=FIXT.1.1|9=159|35=AN|49=VP|56=IDX|34=67|43=N|52=20240126-01:49:05|50=vpft1001|60=20240126-01:49:05|263=0|453=1|448=AD|447=C|452=7|710=20180208RPy4sn1ygt7d|715=20240126|724=1|10=176|
8=FIXT.1.1|9=159|35=AN|49=VP|56=IDX|34=68|43=N|52=20240126-01:49:25|50=vpft1001|60=20240126-01:49:25|263=0|453=1|448=AD|447=C|452=7|710=20180208RPy4sn1ygt7d|715=20240126|724=1|10=181|
8=FIXT.1.1|9=159|35=AN|49=VP|56=IDX|34=69|43=N|52=20240126-01:49:45|50=vpft1001|60=20240126-01:49:45|263=0|453=1|448=AD|447=C|452=7|710=20180208RPy4sn1ygt7d|715=20240126|724=1|10=186|
8=FIXT.1.1|9=159|35=AN|49=VP|56=IDX|34=70|43=N|52=20240126-01:50:05|50=vpft1001|60=20240126-01:50:05|263=0|453=1|448=AD|447=C|452=7|710=20180208RPy4sn1ygt7d|715=20240126|724=1|10=154|
8=FIXT.1.1|9=159|35=AN|49=VP|56=IDX|34=71|43=N|52=20240126-01:50:25|50=vpft1001|60=20240126-01:50:25|263=0|453=1|448=AD|447=C|452=7|710=20180208RPy4sn1ygt7d|715=20240126|724=1|10=159|
8=FIXT.1.1|9=159|35=AN|49=VP|56=IDX|34=72|43=N|52=20240126-01:50:45|50=vpft1001|60=20240126-01:50:45|263=0|453=1|448=AD|447=C|452=7|710=20180208RPy4sn1ygt7d|715=20240126|724=1|10=164|
8=FIXT.1.1|9=159|35=AN|49=VP|56=IDX|34=73|43=N|52=20240126-01:51:05|50=vpft1001|60=20240126-01:51:05|263=0|453=1|448=AD|447=C|452=7|710=20180208RPy4sn1ygt7d|715=20240126|724=1|10=159|
8=FIXT.1.1|9=159|35=AN|49=VP|56=IDX|34=74|43=N|52=20240126-01:51:25|50=vpft1001|60=20240126-01:51:25|263=0|453=1|448=AD|447=C|452=7|710=20180208RPy4sn1ygt7d|715=20240126|724=1|10=164|
8=FIXT.1.1|9=159|35=AN|49=VP|56=IDX|34=75|43=N|52=20240126-01:51:45|50=vpft1001|60=20240126-01:51:45|263=0|453=1|448=AD|447=C|452=7|710=20180208RPy4sn1ygt7d|715=20240126|724=1|10=169|
8=FIXT.1.1|9=159|35=AN|49=VP|56=IDX|34=76|43=N|52=20240126-01:52:05|50=vpft1001|60=20240126-01:52:05|263=0|453=1|448=AD|447=C|452=7|710=20180208RPy4sn1ygt7d|715=20240126|724=1|10=164|
8=FIXT.1.1|9=159|35=AN|49=VP|56=IDX|34=77|43=N|52=20240126-01:52:25|50=vpft1001|60=20240126-01:52:25|263=0|453=1|448=AD|447=C|452=7|710=20180208RPy4sn1ygt7d|715=20240126|724=1|10=169|
8=FIXT.1.1|9=159|35=AN|49=VP|56=IDX|34=78|43=N|52=20240126-01:52:45|50=vpft1001|60=20240126-01:52:45|263=0|453=1|448=AD|447=C|452=7|710=20180208RPy4sn1ygt7d|715=20240126|724=1|10=174|
8=FIXT.1.1|9=159|35=AN|49=VP|56=IDX|34=79|43=N|52=20240126-01:53:05|50=vpft1001|60=20240126-01:53:05|263=0|453=1|448=AD|447=C|452=7|710=20180208RPy4sn1ygt7d|715=20240126|724=1|10=169|
8=FIXT.1.1|9=159|35=AN|49=VP|56=IDX|34=80|43=N|52=20240126-01:53:25|50=vpft1001|60=20240126-01:53:25|263=0|453=1|448=AD|447=C|452=7|710=20180208RPy4sn1ygt7d|715=20240126|724=1|10=165|
8=FIXT.1.1|9=159|35=AN|49=VP|56=IDX|34=81|43=N|52=20240126-01:53:45|50=vpft1001|60=20240126-01:53:45|263=0|453=1|448=AD|447=C|452=7|710=20180208RPy4sn1ygt7d|715=20240126|724=1|10=170|
8=FIXT.1.1|9=159|35=AN|49=VP|56=IDX|34=82|43=N|52=20240126-01:54:05|50=vpft1001|60=20240126-01:54:05|263=0|453=1|448=AD|447=C|452=7|710=20180208RPy4sn1ygt7d|715=20240126|724=1|10=165|
8=FIXT.1.1|9=159|35=AN|49=VP|56=IDX|34=83|43=N|52=20240126-01:54:25|50=vpft1001|60=20240126-01:54:25|263=0|453=1|448=AD|447=C|452=7|710=20180208RPy4sn1ygt7d|715=20240126|724=1|10=170|
8=FIXT.1.1|9=159|35=AN|49=VP|56=IDX|34=84|43=N|52=20240126-01:54:45|50=vpft1001|60=20240126-01:54:45|263=0|453=1|448=AD|447=C|452=7|710=20180208RPy4sn1ygt7d|715=20240126|724=1|10=175|
8=FIXT.1.1|9=159|35=AN|49=VP|56=IDX|34=85|43=N|52=20240126-01:55:05|50=vpft1001|60=20240126-01:55:05|263=0|453=1|448=AD|447=C|452=7|710=20180208RPy4sn1ygt7d|715=20240126|724=1|10=170|
8=FIXT.1.1|9=159|35=AN|49=VP|56=IDX|34=86|43=N|52=20240126-01:55:25|50=vpft1001|60=20240126-01:55:25|263=0|453=1|448=AD|447=C|452=7|710=20180208RPy4sn1ygt7d|715=20240126|724=1|10=175|
8=FIXT.1.1|9=159|35=AN|49=VP|56=IDX|34=87|43=N|52=20240126-01:55:45|50=vpft1001|60=20240126-01:55:45|263=0|453=1|448=AD|447=C|452=7|710=20180208RPy4sn1ygt7d|715=20240126|724=1|10=180|
8=FIXT.1.1|9=159|35=AN|49=VP|56=IDX|34=88|43=N|52=20240126-01:56:05|50=vpft1001|60=20240126-01:56:05|263=0|453=1|448=AD|447=C|452=7|710=20180208RPy4sn1ygt7d|715=20240126|724=1|10=175|
8=FIXT.1.1|9=159|35=AN|49=VP|56=IDX|34=89|43=N|52=20240126-01:56:25|50=vpft1001|60=20240126-01:56:25|263=0|453=1|448=AD|447=C|452=7|710=20180208RPy4sn1ygt7d|715=20240126|724=1|10=180|
8=FIXT.1.1|9=159|35=AN|49=VP|56=IDX|34=90|43=N|52=20240126-01:56:45|50=vpft1001|60=20240126-01:56:45|263=0|453=1|448=AD|447=C|452=7|710=20180208RPy4sn1ygt7d|715=20240126|724=1|10=176|
8=FIXT.1.1|9=159|35=AN|49=VP|56=IDX|34=91|43=N|52=20240126-01:57:05|50=vpft1001|60=20240126-01:57:05|263=0|453=1|448=AD|447=C|452=7|710=20180208RPy4sn1ygt7d|715=20240126|724=1|10=171|
8=FIXT.1.1|9=159|35=AN|49=VP|56=IDX|34=92|43=N|52=20240126-01:57:25|50=vpft1001|60=20240126-01:57:25|263=0|453=1|448=AD|447=C|452=7|710=20180208RPy4sn1ygt7d|715=20240126|724=1|10=176|
8=FIXT.1.1|9=159|35=AN|49=VP|56=IDX|34=93|43=N|52=20240126-01:57:45|50=vpft1001|60=20240126-01:57:45|263=0|453=1|448=AD|447=C|452=7|710=20180208RPy4sn1ygt7d|715=20240126|724=1|10=181|
8=FIXT.1.1|9=159|35=AN|49=VP|56=IDX|34=94|43=N|52=20240126-01:58:05|50=vpft1001|60=20240126-01:58:05|263=0|453=1|448=AD|447=C|452=7|710=20180208RPy4sn1ygt7d|715=20240126|724=1|10=176|
8=FIXT.1.1|9=159|35=AN|49=VP|56=IDX|34=95|43=N|52=20240126-01:58:25|50=vpft1001|60=20240126-01:58:25|263=0|453=1|448=AD|447=C|452=7|710=20180208RPy4sn1ygt7d|715=20240126|724=1|10=181|
8=FIXT.1.1|9=159|35=AN|49=VP|56=IDX|34=96|43=N|52=20240126-01:58:45|50=vpft1001|60=20240126-01:58:45|263=0|453=1|448=AD|447=C|452=7|710=20180208RPy4sn1ygt7d|715=20240126|724=1|10=186|
8=FIXT.1.1|9=159|35=AN|49=VP|56=IDX|34=97|43=N|52=20240126-01:59:05|50=vpft1001|60=20240126-01:59:05|263=0|453=1|448=AD|447=C|452=7|710=20180208RPy4sn1ygt7d|715=20240126|724=1|10=181|
8=FIXT.1.1|9=159|35=AN|49=VP|56=IDX|34=98|43=N|52=20240126-01:59:25|50=vpft1001|60=20240126-01:59:25|263=0|453=1|448=AD|447=C|452=7|710=20180208RPy4sn1ygt7d|715=20240126|724=1|10=186|
8=FIXT.1.1|9=159|35=AN|49=VP|56=IDX|34=99|43=N|52=20240126-01:59:45|50=vpft1001|60=20240126-01:59:45|263=0|453=1|448=AD|447=C|452=7|710=20180208RPy4sn1ygt7d|715=20240126|724=1|10=191|
8=FIXT.1.1|9=160|35=AN|49=VP|56=IDX|34=100|43=N|52=20240126-02:00:05|50=vpft1001|60=20240126-02:00:05|263=0|453=1|448=AD|447=C|452=7|710=20180208RPy4sn1ygt7d|715=20240126|724=1|10=180|
8=FIXT.1.1|9=160|35=AN|49=VP|56=IDX|34=101|43=N|52=20240126-02:00:25|50=vpft1001|60=20240126-02:00:25|263=0|453=1|448=AD|447=C|452=7|710=20180208RPy4sn1ygt7d|715=20240126|724=1|10=185|
