8=FIXT.1.1|9=99|35=A|49=VP|56=IDX|34=1147|43=N|52=20240130-07:36:59|98=0|108=15|553=vpfc1001|554=jakarta123|1137=8|10=141|
8=FIXT.1.1|9=85|35=4|49=VP|56=IDX|34=1|43=Y|52=20240130-07:36:59|122=20240130-07:36:59|123=Y|36=1152|10=203|
8=FIXT.1.1|9=161|35=AN|49=VP|56=IDX|34=1152|43=N|52=20240130-07:37:10|50=vpft1001|60=20240130-07:37:10|263=0|453=1|448=AD|447=C|452=7|710=20180208RPy4sn1ygt7d|715=20240130|724=1|10=244|
8=FIXT.1.1|9=161|35=AN|49=VP|56=IDX|34=1153|43=N|52=20240130-07:37:30|50=vpft1001|60=20240130-07:37:30|263=0|453=1|448=AD|447=C|452=7|710=20180208RPy4sn1ygt7d|715=20240130|724=1|10=249|
8=FIXT.1.1|9=161|35=AN|49=VP|56=IDX|34=1154|43=N|52=20240130-07:37:50|50=vpft1001|60=20240130-07:37:50|263=0|453=1|448=AD|447=C|452=7|710=20180208RPy4sn1ygt7d|715=20240130|724=1|10=254|
