8=FIXT.1.1|9=96|35=A|49=VP|56=IDX|34=1|43=N|52=20240201-01:22:45|98=0|108=15|553=vpfc1001|554=jakarta123|1137=8|10=221|
8=FIXT.1.1|9=178|35=D|49=VP|56=IDX|34=2|43=N|52=20240201-01:22:52|50=vpft1001|11=2024020108:22:52|38=2|40=2|44=5500|54=5|55=BBRI|59=0|60=20240201-01:22:52|453=1|448=1000|447=C|452=5|581=1|762=RG|10=002|
8=FIXT.1.1|9=158|35=AN|49=VP|56=IDX|34=3|43=N|52=20240201-01:23:02|50=vpft1001|60=20240201-01:23:02|263=0|453=1|448=AD|447=C|452=7|710=20180208RPy4sn1ygt7d|715=20240201|724=1|10=077|
8=FIXT.1.1|9=158|35=AN|49=VP|56=IDX|34=4|43=N|52=20240201-01:23:22|50=vpft1001|60=20240201-01:23:22|263=0|453=1|448=AD|447=C|452=7|710=20180208RPy4sn1ygt7d|715=20240201|724=1|10=082|
8=FIXT.1.1|9=158|35=AN|49=VP|56=IDX|34=5|43=N|52=20240201-01:23:42|50=vpft1001|60=20240201-01:23:42|263=0|453=1|448=AD|447=C|452=7|710=20180208RPy4sn1ygt7d|715=20240201|724=1|10=087|
8=FIXT.1.1|9=158|35=AN|49=VP|56=IDX|34=6|43=N|52=20240201-01:24:02|50=vpft1001|60=20240201-01:24:02|263=0|453=1|448=AD|447=C|452=7|710=20180208RPy4sn1ygt7d|715=20240201|724=1|10=082|
8=FIXT.1.1|9=158|35=AN|49=VP|56=IDX|34=7|43=N|52=20240201-01:24:22|50=vpft1001|60=20240201-01:24:22|263=0|453=1|448=AD|447=C|452=7|710=20180208RPy4sn1ygt7d|715=20240201|724=1|10=087|
8=FIXT.1.1|9=158|35=AN|49=VP|56=IDX|34=8|43=N|52=20240201-01:24:42|50=vpft1001|60=20240201-01:24:42|263=0|453=1|448=AD|447=C|452=7|710=20180208RPy4sn1ygt7d|715=20240201|724=1|10=092|
8=FIXT.1.1|9=158|35=AN|49=VP|56=IDX|34=9|43=N|52=20240201-01:25:02|50=vpft1001|60=20240201-01:25:02|263=0|453=1|448=AD|447=C|452=7|710=20180208RPy4sn1ygt7d|715=20240201|724=1|10=087|
8=FIXT.1.1|9=159|35=AN|49=VP|56=IDX|34=10|43=N|52=20240201-01:25:22|50=vpft1001|60=20240201-01:25:22|263=0|453=1|448=AD|447=C|452=7|710=20180208RPy4sn1ygt7d|715=20240201|724=1|10=132|
8=FIXT.1.1|9=159|35=AN|49=VP|56=IDX|34=11|43=N|52=20240201-01:25:42|50=vpft1001|60=20240201-01:25:42|263=0|453=1|448=AD|447=C|452=7|710=20180208RPy4sn1ygt7d|715=20240201|724=1|10=137|
8=FIXT.1.1|9=159|35=AN|49=VP|56=IDX|34=12|43=N|52=20240201-01:26:02|50=vpft1001|60=20240201-01:26:02|263=0|453=1|448=AD|447=C|452=7|710=20180208RPy4sn1ygt7d|715=20240201|724=1|10=132|
8=FIXT.1.1|9=159|35=AN|49=VP|56=IDX|34=13|43=N|52=20240201-01:26:22|50=vpft1001|60=20240201-01:26:22|263=0|453=1|448=AD|447=C|452=7|710=20180208RPy4sn1ygt7d|715=20240201|724=1|10=137|
8=FIXT.1.1|9=159|35=AN|49=VP|56=IDX|34=14|43=N|52=20240201-01:26:42|50=vpft1001|60=20240201-01:26:42|263=0|453=1|448=AD|447=C|452=7|710=20180208RPy4sn1ygt7d|715=20240201|724=1|10=142|
8=FIXT.1.1|9=179|35=D|49=VP|56=IDX|34=15|43=N|52=20240201-01:26:53|50=vpft1001|11=2024020108:26:53|38=2|40=2|44=5500|54=5|55=BBRI|59=0|60=20240201-01:26:53|453=1|448=1000|447=C|452=5|581=1|762=RG|10=070|
8=FIXT.1.1|9=159|35=AN|49=VP|56=IDX|34=16|43=N|52=20240201-01:27:02|50=vpft1001|60=20240201-01:27:02|263=0|453=1|448=AD|447=C|452=7|710=20180208RPy4sn1ygt7d|715=20240201|724=1|10=138|
8=FIXT.1.1|9=159|35=AN|49=VP|56=IDX|34=17|43=N|52=20240201-01:27:22|50=vpft1001|60=20240201-01:27:22|263=0|453=1|448=AD|447=C|452=7|710=20180208RPy4sn1ygt7d|715=20240201|724=1|10=143|
8=FIXT.1.1|9=159|35=AN|49=VP|56=IDX|34=18|43=N|52=20240201-01:27:42|50=vpft1001|60=20240201-01:27:42|263=0|453=1|448=AD|447=C|452=7|710=20180208RPy4sn1ygt7d|715=20240201|724=1|10=148|
8=FIXT.1.1|9=159|35=AN|49=VP|56=IDX|34=19|43=N|52=20240201-01:28:02|50=vpft1001|60=20240201-01:28:02|263=0|453=1|448=AD|447=C|452=7|710=20180208RPy4sn1ygt7d|715=20240201|724=1|10=143|
8=FIXT.1.1|9=159|35=AN|49=VP|56=IDX|34=20|43=N|52=20240201-01:28:22|50=vpft1001|60=20240201-01:28:22|263=0|453=1|448=AD|447=C|452=7|710=20180208RPy4sn1ygt7d|715=20240201|724=1|10=139|
8=FIXT.1.1|9=159|35=AN|49=VP|56=IDX|34=21|43=N|52=20240201-01:28:42|50=vpft1001|60=20240201-01:28:42|263=0|453=1|448=AD|447=C|452=7|710=20180208RPy4sn1ygt7d|715=20240201|724=1|10=144|
8=FIXT.1.1|9=159|35=AN|49=VP|56=IDX|34=22|43=N|52=20240201-01:29:02|50=vpft1001|60=20240201-01:29:02|263=0|453=1|448=AD|447=C|452=7|710=20180208RPy4sn1ygt7d|715=20240201|724=1|10=139|
8=FIXT.1.1|9=159|35=AN|49=VP|56=IDX|34=23|43=N|52=20240201-01:29:22|50=vpft1001|60=20240201-01:29:22|263=0|453=1|448=AD|447=C|452=7|710=20180208RPy4sn1ygt7d|715=20240201|724=1|10=144|
8=FIXT.1.1|9=159|35=AN|49=VP|56=IDX|34=24|43=N|52=20240201-01:29:42|50=vpft1001|60=20240201-01:29:42|263=0|453=1|448=AD|447=C|452=7|710=20180208RPy4sn1ygt7d|715=20240201|724=1|10=149|
8=FIXT.1.1|9=159|35=AN|49=VP|56=IDX|34=25|43=N|52=20240201-01:30:02|50=vpft1001|60=20240201-01:30:02|263=0|453=1|448=AD|447=C|452=7|710=20180208RPy4sn1ygt7d|715=20240201|724=1|10=126|
8=FIXT.1.1|9=159|35=AN|49=VP|56=IDX|34=26|43=N|52=20240201-01:30:22|50=vpft1001|60=20240201-01:30:22|263=0|453=1|448=AD|447=C|452=7|710=20180208RPy4sn1ygt7d|715=20240201|724=1|10=131|
8=FIXT.1.1|9=159|35=AN|49=VP|56=IDX|34=27|43=N|52=20240201-01:30:42|50=vpft1001|60=20240201-01:30:42|263=0|453=1|448=AD|447=C|452=7|710=20180208RPy4sn1ygt7d|715=20240201|724=1|10=136|
8=FIXT.1.1|9=159|35=AN|49=VP|56=IDX|34=28|43=N|52=20240201-01:31:02|50=vpft1001|60=20240201-01:31:02|263=0|453=1|448=AD|447=C|452=7|710=20180208RPy4sn1ygt7d|715=20240201|724=1|10=131|
8=FIXT.1.1|9=159|35=AN|49=VP|56=IDX|34=29|43=N|52=20240201-01:31:22|50=vpft1001|60=20240201-01:31:22|263=0|453=1|448=AD|447=C|452=7|710=20180208RPy4sn1ygt7d|715=20240201|724=1|10=136|
8=FIXT.1.1|9=159|35=AN|49=VP|56=IDX|34=30|43=N|52=20240201-01:31:42|50=vpft1001|60=20240201-01:31:42|263=0|453=1|448=AD|447=C|452=7|710=20180208RPy4sn1ygt7d|715=20240201|724=1|10=132|
8=FIXT.1.1|9=159|35=AN|49=VP|56=IDX|34=31|43=N|52=20240201-01:32:02|50=vpft1001|60=20240201-01:32:02|263=0|453=1|448=AD|447=C|452=7|710=20180208RPy4sn1ygt7d|715=20240201|724=1|10=127|
8=FIXT.1.1|9=159|35=AN|49=VP|56=IDX|34=32|43=N|52=20240201-01:32:22|50=vpft1001|60=20240201-01:32:22|263=0|453=1|448=AD|447=C|452=7|710=20180208RPy4sn1ygt7d|715=20240201|724=1|10=132|
8=FIXT.1.1|9=159|35=AN|49=VP|56=IDX|34=33|43=N|52=20240201-01:32:42|50=vpft1001|60=20240201-01:32:42|263=0|453=1|448=AD|447=C|452=7|710=20180208RPy4sn1ygt7d|715=20240201|724=1|10=137|
8=FIXT.1.1|9=159|35=AN|49=VP|56=IDX|34=34|43=N|52=20240201-01:33:02|50=vpft1001|60=20240201-01:33:02|263=0|453=1|448=AD|447=C|452=7|710=20180208RPy4sn1ygt7d|715=20240201|724=1|10=132|
8=FIXT.1.1|9=159|35=AN|49=VP|56=IDX|34=35|43=N|52=20240201-01:33:22|50=vpft1001|60=20240201-01:33:22|263=0|453=1|448=AD|447=C|452=7|710=20180208RPy4sn1ygt7d|715=20240201|724=1|10=137|
8=FIXT.1.1|9=159|35=AN|49=VP|56=IDX|34=36|43=N|52=20240201-01:33:42|50=vpft1001|60=20240201-01:33:42|263=0|453=1|448=AD|447=C|452=7|710=20180208RPy4sn1ygt7d|715=20240201|724=1|10=142|
8=FIXT.1.1|9=159|35=AN|49=VP|56=IDX|34=37|43=N|52=20240201-01:34:02|50=vpft1001|60=20240201-01:34:02|263=0|453=1|448=AD|447=C|452=7|710=20180208RPy4sn1ygt7d|715=20240201|724=1|10=137|
8=FIXT.1.1|9=159|35=AN|49=VP|56=IDX|34=38|43=N|52=20240201-01:34:22|50=vpft1001|60=20240201-01:34:22|263=0|453=1|448=AD|447=C|452=7|710=20180208RPy4sn1ygt7d|715=20240201|724=1|10=142|
8=FIXT.1.1|9=159|35=AN|49=VP|56=IDX|34=39|43=N|52=20240201-01:34:42|50=vpft1001|60=20240201-01:34:42|263=0|453=1|448=AD|447=C|452=7|710=20180208RPy4sn1ygt7d|715=20240201|724=1|10=147|
8=FIXT.1.1|9=159|35=AN|49=VP|56=IDX|34=40|43=N|52=20240201-01:35:02|50=vpft1001|60=20240201-01:35:02|263=0|453=1|448=AD|447=C|452=7|710=20180208RPy4sn1ygt7d|715=20240201|724=1|10=133|
8=FIXT.1.1|9=159|35=AN|49=VP|56=IDX|34=41|43=N|52=20240201-01:35:22|50=vpft1001|60=20240201-01:35:22|263=0|453=1|448=AD|447=C|452=7|710=20180208RPy4sn1ygt7d|715=20240201|724=1|10=138|
8=FIXT.1.1|9=159|35=AN|49=VP|56=IDX|34=42|43=N|52=20240201-01:35:42|50=vpft1001|60=20240201-01:35:42|263=0|453=1|448=AD|447=C|452=7|710=20180208RPy4sn1ygt7d|715=20240201|724=1|10=143|
8=FIXT.1.1|9=159|35=AN|49=VP|56=IDX|34=43|43=N|52=20240201-01:36:02|50=vpft1001|60=20240201-01:36:02|263=0|453=1|448=AD|447=C|452=7|710=20180208RPy4sn1ygt7d|715=20240201|724=1|10=138|
8=FIXT.1.1|9=159|35=AN|49=VP|56=IDX|34=44|43=N|52=20240201-01:36:22|50=vpft1001|60=20240201-01:36:22|263=0|453=1|448=AD|447=C|452=7|710=20180208RPy4sn1ygt7d|715=20240201|724=1|10=143|
8=FIXT.1.1|9=159|35=AN|49=VP|56=IDX|34=45|43=N|52=20240201-01:36:42|50=vpft1001|60=20240201-01:36:42|263=0|453=1|448=AD|447=C|452=7|710=20180208RPy4sn1ygt7d|715=20240201|724=1|10=148|
8=FIXT.1.1|9=159|35=AN|49=VP|56=IDX|34=46|43=N|52=20240201-01:37:02|50=vpft1001|60=20240201-01:37:02|263=0|453=1|448=AD|447=C|452=7|710=20180208RPy4sn1ygt7d|715=20240201|724=1|10=143|
8=FIXT.1.1|9=159|35=AN|49=VP|56=IDX|34=47|43=N|52=20240201-01:37:22|50=vpft1001|60=20240201-01:37:22|263=0|453=1|448=AD|447=C|452=7|710=20180208RPy4sn1ygt7d|715=20240201|724=1|10=148|
8=FIXT.1.1|9=97|35=A|49=VP|56=IDX|34=48|43=N|52=20240201-01:47:11|98=0|108=15|553=vpfc1001|554=jakarta123|1137=8|10=025|
8=FIXT.1.1|9=50|35=0|49=VP|56=IDX|34=49|43=N|52=20240201-01:47:25|10=009|
8=FIXT.1.1|9=159|35=AN|49=VP|56=IDX|34=50|43=N|52=20240201-01:47:30|50=vpft1001|60=20240201-01:47:30|263=0|453=1|448=AD|447=C|452=7|710=20180208RPy4sn1ygt7d|715=20240201|724=1|10=142|
8=FIXT.1.1|9=159|35=AN|49=VP|56=IDX|34=51|43=N|52=20240201-01:47:50|50=vpft1001|60=20240201-01:47:50|263=0|453=1|448=AD|447=C|452=7|710=20180208RPy4sn1ygt7d|715=20240201|724=1|10=147|
8=FIXT.1.1|9=97|35=A|49=VP|56=IDX|34=52|43=N|52=20240201-01:49:58|98=0|108=15|553=vpfc1001|554=jakarta123|1137=8|10=033|
8=FIXT.1.1|9=50|35=0|49=VP|56=IDX|34=53|43=N|52=20240201-01:50:12|10=250|
8=FIXT.1.1|9=159|35=AN|49=VP|56=IDX|34=54|43=N|52=20240201-01:50:16|50=vpft1001|60=20240201-01:50:16|263=0|453=1|448=AD|447=C|452=7|710=20180208RPy4sn1ygt7d|715=20240201|724=1|10=142|
8=FIXT.1.1|9=159|35=AN|49=VP|56=IDX|34=55|43=N|52=20240201-01:50:36|50=vpft1001|60=20240201-01:50:36|263=0|453=1|448=AD|447=C|452=7|710=20180208RPy4sn1ygt7d|715=20240201|724=1|10=147|
8=FIXT.1.1|9=159|35=AN|49=VP|56=IDX|34=56|43=N|52=20240201-01:50:56|50=vpft1001|60=20240201-01:50:56|263=0|453=1|448=AD|447=C|452=7|710=20180208RPy4sn1ygt7d|715=20240201|724=1|10=152|
8=FIXT.1.1|9=159|35=AN|49=VP|56=IDX|34=57|43=N|52=20240201-01:51:16|50=vpft1001|60=20240201-01:51:16|263=0|453=1|448=AD|447=C|452=7|710=20180208RPy4sn1ygt7d|715=20240201|724=1|10=147|
8=FIXT.1.1|9=97|35=A|49=VP|56=IDX|34=58|43=N|52=20240201-01:51:53|98=0|108=15|553=vpfc1001|554=jakarta123|1137=8|10=027|
8=FIXT.1.1|9=159|35=AN|49=VP|56=IDX|34=59|43=N|52=20240201-01:52:06|50=vpft1001|60=20240201-01:52:06|263=0|453=1|448=AD|447=C|452=7|710=20180208RPy4sn1ygt7d|715=20240201|724=1|10=149|
8=FIXT.1.1|9=159|35=AN|49=VP|56=IDX|34=60|43=N|52=20240201-01:52:26|50=vpft1001|60=20240201-01:52:26|263=0|453=1|448=AD|447=C|452=7|710=20180208RPy4sn1ygt7d|715=20240201|724=1|10=145|
8=FIXT.1.1|9=181|35=D|49=VP|56=IDX|34=60|43=N|52=20240201-01:52:42|50=vpft1001|11=2024020108:52:42|38=100|40=1|44=5500|54=1|55=BBRI|59=0|60=20240201-01:52:42|453=1|448=1000|447=C|452=5|581=1|762=RG|10=144|
8=FIXT.1.1|9=97|35=A|49=VP|56=IDX|34=61|43=N|52=20240201-01:52:42|98=0|108=15|553=vpfc1001|554=jakarta123|1137=8|10=020|
8=FIXT.1.1|9=97|35=A|49=VP|56=IDX|34=61|43=N|52=20240201-01:52:42|98=0|108=15|553=vpfc1001|554=jakarta123|1137=8|10=020|
8=FIXT.1.1|9=66|35=5|49=VP|56=IDX|34=63|52=20240201-01:52:42|58=confirming logout|10=170|
8=FIXT.1.1|9=159|35=AN|49=VP|56=IDX|34=64|43=N|52=20240201-01:52:46|50=vpft1001|60=20240201-01:52:46|263=0|453=1|448=AD|447=C|452=7|710=20180208RPy4sn1ygt7d|715=20240201|724=1|10=153|
8=FIXT.1.1|9=97|35=A|49=VP|56=IDX|34=65|43=N|52=20240201-01:53:04|98=0|108=15|553=vpfc1001|554=jakarta123|1137=8|10=023|
8=FIXT.1.1|9=84|35=4|49=VP|56=IDX|34=63|43=Y|52=20240201-01:53:05|122=20240201-01:53:05|123=Y|36=70|10=126|
8=FIXT.1.1|9=159|35=AN|49=VP|56=IDX|34=70|43=N|52=20240201-01:53:06|50=vpft1001|60=20240201-01:53:06|263=0|453=1|448=AD|447=C|452=7|710=20180208RPy4sn1ygt7d|715=20240201|724=1|10=144|
8=FIXT.1.1|9=97|35=A|49=VP|56=IDX|34=71|43=N|52=20240201-01:53:20|98=0|108=15|553=vpfc1001|554=jakarta123|1137=8|10=018|
8=FIXT.1.1|9=181|35=D|49=VP|56=IDX|34=71|43=N|52=20240201-01:53:29|50=vpft1001|11=2024020108:53:29|38=100|40=1|44=5500|54=1|55=BBRI|59=0|60=20240201-01:53:29|453=1|448=1000|447=C|452=5|581=1|762=RG|10=164|
8=FIXT.1.1|9=97|35=A|49=VP|56=IDX|34=72|43=N|52=20240201-01:53:29|98=0|108=15|553=vpfc1001|554=jakarta123|1137=8|10=028|
8=FIXT.1.1|9=97|35=A|49=VP|56=IDX|34=72|43=N|52=20240201-01:53:29|98=0|108=15|553=vpfc1001|554=jakarta123|1137=8|10=028|
8=FIXT.1.1|9=66|35=5|49=VP|56=IDX|34=74|52=20240201-01:53:30|58=confirming logout|10=170|
8=FIXT.1.1|9=159|35=AN|49=VP|56=IDX|34=75|43=N|52=20240201-01:53:38|50=vpft1001|60=20240201-01:53:38|263=0|453=1|448=AD|447=C|452=7|710=20180208RPy4sn1ygt7d|715=20240201|724=1|10=159|
8=FIXT.1.1|9=159|35=AN|49=VP|56=IDX|34=76|43=N|52=20240201-01:53:58|50=vpft1001|60=20240201-01:53:58|263=0|453=1|448=AD|447=C|452=7|710=20180208RPy4sn1ygt7d|715=20240201|724=1|10=164|
8=FIXT.1.1|9=159|35=AN|49=VP|56=IDX|34=77|43=N|52=20240201-01:54:18|50=vpft1001|60=20240201-01:54:18|263=0|453=1|448=AD|447=C|452=7|710=20180208RPy4sn1ygt7d|715=20240201|724=1|10=159|
8=FIXT.1.1|9=97|35=A|49=VP|56=IDX|34=78|43=N|52=20240201-01:55:56|98=0|108=15|553=vpfc1001|554=jakarta123|1137=8|10=036|
8=FIXT.1.1|9=84|35=4|49=VP|56=IDX|34=74|43=Y|52=20240201-01:55:57|122=20240201-01:55:57|123=Y|36=83|10=150|
8=FIXT.1.1|9=159|35=AN|49=VP|56=IDX|34=83|43=N|52=20240201-01:56:11|50=vpft1001|60=20240201-01:56:11|263=0|453=1|448=AD|447=C|452=7|710=20180208RPy4sn1ygt7d|715=20240201|724=1|10=146|
8=FIXT.1.1|9=181|35=D|49=VP|56=IDX|34=84|43=N|52=20240201-01:56:15|50=vpft1001|11=2024020108:56:15|38=100|40=1|44=5500|54=1|55=BBRI|59=0|60=20240201-01:56:15|453=1|448=1000|447=C|452=5|581=1|762=RG|10=162|
8=FIXT.1.1|9=159|35=AN|49=VP|56=IDX|34=85|43=N|52=20240201-01:56:31|50=vpft1001|60=20240201-01:56:31|263=0|453=1|448=AD|447=C|452=7|710=20180208RPy4sn1ygt7d|715=20240201|724=1|10=152|
8=FIXT.1.1|9=181|35=D|49=VP|56=IDX|34=86|43=N|52=20240201-01:56:45|50=vpft1001|11=2024020108:56:45|38=100|40=1|44=5500|54=1|55=BBRI|59=0|60=20240201-01:56:45|453=1|448=1000|447=C|452=5|581=1|762=RG|10=173|
8=FIXT.1.1|9=159|35=AN|49=VP|56=IDX|34=87|43=N|52=20240201-01:56:51|50=vpft1001|60=20240201-01:56:51|263=0|453=1|448=AD|447=C|452=7|710=20180208RPy4sn1ygt7d|715=20240201|724=1|10=158|
8=FIXT.1.1|9=159|35=AN|49=VP|56=IDX|34=88|43=N|52=20240201-01:57:11|50=vpft1001|60=20240201-01:57:11|263=0|453=1|448=AD|447=C|452=7|710=20180208RPy4sn1ygt7d|715=20240201|724=1|10=153|
8=FIXT.1.1|9=159|35=AN|49=VP|56=IDX|34=89|43=N|52=20240201-01:57:31|50=vpft1001|60=20240201-01:57:31|263=0|453=1|448=AD|447=C|452=7|710=20180208RPy4sn1ygt7d|715=20240201|724=1|10=158|
8=FIXT.1.1|9=159|35=AN|49=VP|56=IDX|34=90|43=N|52=20240201-01:57:51|50=vpft1001|60=20240201-01:57:51|263=0|453=1|448=AD|447=C|452=7|710=20180208RPy4sn1ygt7d|715=20240201|724=1|10=154|
8=FIXT.1.1|9=97|35=A|49=VP|56=IDX|34=91|43=N|52=20240201-01:58:32|98=0|108=15|553=vpfc1001|554=jakarta123|1137=8|10=028|
8=FIXT.1.1|9=159|35=AN|49=VP|56=IDX|34=92|43=N|52=20240201-01:58:41|50=vpft1001|60=20240201-01:58:41|263=0|453=1|448=AD|447=C|452=7|710=20180208RPy4sn1ygt7d|715=20240201|724=1|10=156|
8=FIXT.1.1|9=159|35=AN|49=VP|56=IDX|34=93|43=N|52=20240201-01:59:01|50=vpft1001|60=20240201-01:59:01|263=0|453=1|448=AD|447=C|452=7|710=20180208RPy4sn1ygt7d|715=20240201|724=1|10=151|
8=FIXT.1.1|9=159|35=AN|49=VP|56=IDX|34=94|43=N|52=20240201-01:59:21|50=vpft1001|60=20240201-01:59:21|263=0|453=1|448=AD|447=C|452=7|710=20180208RPy4sn1ygt7d|715=20240201|724=1|10=156|
8=FIXT.1.1|9=159|35=AN|49=VP|56=IDX|34=95|43=N|52=20240201-01:59:41|50=vpft1001|60=20240201-01:59:41|263=0|453=1|448=AD|447=C|452=7|710=20180208RPy4sn1ygt7d|715=20240201|724=1|10=161|
8=FIXT.1.1|9=159|35=AN|49=VP|56=IDX|34=96|43=N|52=20240201-02:00:01|50=vpft1001|60=20240201-02:00:01|263=0|453=1|448=AD|447=C|452=7|710=20180208RPy4sn1ygt7d|715=20240201|724=1|10=128|
8=FIXT.1.1|9=66|35=5|49=VP|56=IDX|34=97|52=20240201-02:00:07|58=confirming logout|10=172|
8=FIXT.1.1|9=66|35=5|49=VP|56=IDX|34=97|52=20240201-02:00:07|58=confirming logout|10=172|
