8=FIXT.1.1|9=96|35=A|49=VP|56=IDX|34=1|43=N|52=20240129-01:04:03|98=0|108=15|553=vpfc1001|554=jakarta123|1137=8|10=224|
8=FIXT.1.1|9=158|35=AN|49=VP|56=IDX|34=2|43=N|52=20240129-01:04:14|50=vpft1001|60=20240129-01:04:14|263=0|453=1|448=AD|447=C|452=7|710=20180208RPy4sn1ygt7d|715=20240129|724=1|10=107|
8=FIXT.1.1|9=158|35=AN|49=VP|56=IDX|34=3|43=N|52=20240129-01:04:34|50=vpft1001|60=20240129-01:04:34|263=0|453=1|448=AD|447=C|452=7|710=20180208RPy4sn1ygt7d|715=20240129|724=1|10=112|
8=FIXT.1.1|9=158|35=AN|49=VP|56=IDX|34=4|43=N|52=20240129-01:04:54|50=vpft1001|60=20240129-01:04:54|263=0|453=1|448=AD|447=C|452=7|710=20180208RPy4sn1ygt7d|715=20240129|724=1|10=117|
8=FIXT.1.1|9=158|35=AN|49=VP|56=IDX|34=5|43=N|52=20240129-01:05:14|50=vpft1001|60=20240129-01:05:14|263=0|453=1|448=AD|447=C|452=7|710=20180208RPy4sn1ygt7d|715=20240129|724=1|10=112|
8=FIXT.1.1|9=158|35=AN|49=VP|56=IDX|34=6|43=N|52=20240129-01:05:34|50=vpft1001|60=20240129-01:05:34|263=0|453=1|448=AD|447=C|452=7|710=20180208RPy4sn1ygt7d|715=20240129|724=1|10=117|
8=FIXT.1.1|9=158|35=AN|49=VP|56=IDX|34=7|43=N|52=20240129-01:05:54|50=vpft1001|60=20240129-01:05:54|263=0|453=1|448=AD|447=C|452=7|710=20180208RPy4sn1ygt7d|715=20240129|724=1|10=122|
8=FIXT.1.1|9=158|35=AN|49=VP|56=IDX|34=8|43=N|52=20240129-01:06:14|50=vpft1001|60=20240129-01:06:14|263=0|453=1|448=AD|447=C|452=7|710=20180208RPy4sn1ygt7d|715=20240129|724=1|10=117|
8=FIXT.1.1|9=158|35=AN|49=VP|56=IDX|34=9|43=N|52=20240129-01:06:34|50=vpft1001|60=20240129-01:06:34|263=0|453=1|448=AD|447=C|452=7|710=20180208RPy4sn1ygt7d|715=20240129|724=1|10=122|
8=FIXT.1.1|9=159|35=AN|49=VP|56=IDX|34=10|43=N|52=20240129-01:06:54|50=vpft1001|60=20240129-01:06:54|263=0|453=1|448=AD|447=C|452=7|710=20180208RPy4sn1ygt7d|715=20240129|724=1|10=167|
8=FIXT.1.1|9=159|35=AN|49=VP|56=IDX|34=11|43=N|52=20240129-01:07:14|50=vpft1001|60=20240129-01:07:14|263=0|453=1|448=AD|447=C|452=7|710=20180208RPy4sn1ygt7d|715=20240129|724=1|10=162|
8=FIXT.1.1|9=159|35=AN|49=VP|56=IDX|34=12|43=N|52=20240129-01:07:34|50=vpft1001|60=20240129-01:07:34|263=0|453=1|448=AD|447=C|452=7|710=20180208RPy4sn1ygt7d|715=20240129|724=1|10=167|
8=FIXT.1.1|9=159|35=AN|49=VP|56=IDX|34=13|43=N|52=20240129-01:07:54|50=vpft1001|60=20240129-01:07:54|263=0|453=1|448=AD|447=C|452=7|710=20180208RPy4sn1ygt7d|715=20240129|724=1|10=172|
8=FIXT.1.1|9=159|35=AN|49=VP|56=IDX|34=14|43=N|52=20240129-01:08:14|50=vpft1001|60=20240129-01:08:14|263=0|453=1|448=AD|447=C|452=7|710=20180208RPy4sn1ygt7d|715=20240129|724=1|10=167|
8=FIXT.1.1|9=159|35=AN|49=VP|56=IDX|34=15|43=N|52=20240129-01:08:34|50=vpft1001|60=20240129-01:08:34|263=0|453=1|448=AD|447=C|452=7|710=20180208RPy4sn1ygt7d|715=20240129|724=1|10=172|
8=FIXT.1.1|9=159|35=AN|49=VP|56=IDX|34=16|43=N|52=20240129-01:08:54|50=vpft1001|60=20240129-01:08:54|263=0|453=1|448=AD|447=C|452=7|710=20180208RPy4sn1ygt7d|715=20240129|724=1|10=177|
8=FIXT.1.1|9=159|35=AN|49=VP|56=IDX|34=17|43=N|52=20240129-01:09:14|50=vpft1001|60=20240129-01:09:14|263=0|453=1|448=AD|447=C|452=7|710=20180208RPy4sn1ygt7d|715=20240129|724=1|10=172|
8=FIXT.1.1|9=159|35=AN|49=VP|56=IDX|34=18|43=N|52=20240129-01:09:34|50=vpft1001|60=20240129-01:09:34|263=0|453=1|448=AD|447=C|452=7|710=20180208RPy4sn1ygt7d|715=20240129|724=1|10=177|
8=FIXT.1.1|9=159|35=AN|49=VP|56=IDX|34=19|43=N|52=20240129-01:09:54|50=vpft1001|60=20240129-01:09:54|263=0|453=1|448=AD|447=C|452=7|710=20180208RPy4sn1ygt7d|715=20240129|724=1|10=182|
8=FIXT.1.1|9=159|35=AN|49=VP|56=IDX|34=20|43=N|52=20240129-01:10:14|50=vpft1001|60=20240129-01:10:14|263=0|453=1|448=AD|447=C|452=7|710=20180208RPy4sn1ygt7d|715=20240129|724=1|10=150|
8=FIXT.1.1|9=159|35=AN|49=VP|56=IDX|34=21|43=N|52=20240129-01:10:34|50=vpft1001|60=20240129-01:10:34|263=0|453=1|448=AD|447=C|452=7|710=20180208RPy4sn1ygt7d|715=20240129|724=1|10=155|
8=FIXT.1.1|9=159|35=AN|49=VP|56=IDX|34=22|43=N|52=20240129-01:10:54|50=vpft1001|60=20240129-01:10:54|263=0|453=1|448=AD|447=C|452=7|710=20180208RPy4sn1ygt7d|715=20240129|724=1|10=160|
8=FIXT.1.1|9=159|35=AN|49=VP|56=IDX|34=23|43=N|52=20240129-01:11:14|50=vpft1001|60=20240129-01:11:14|263=0|453=1|448=AD|447=C|452=7|710=20180208RPy4sn1ygt7d|715=20240129|724=1|10=155|
8=FIXT.1.1|9=159|35=AN|49=VP|56=IDX|34=24|43=N|52=20240129-01:11:34|50=vpft1001|60=20240129-01:11:34|263=0|453=1|448=AD|447=C|452=7|710=20180208RPy4sn1ygt7d|715=20240129|724=1|10=160|
8=FIXT.1.1|9=159|35=AN|49=VP|56=IDX|34=25|43=N|52=20240129-01:11:54|50=vpft1001|60=20240129-01:11:54|263=0|453=1|448=AD|447=C|452=7|710=20180208RPy4sn1ygt7d|715=20240129|724=1|10=165|
8=FIXT.1.1|9=159|35=AN|49=VP|56=IDX|34=26|43=N|52=20240129-01:12:14|50=vpft1001|60=20240129-01:12:14|263=0|453=1|448=AD|447=C|452=7|710=20180208RPy4sn1ygt7d|715=20240129|724=1|10=160|
8=FIXT.1.1|9=159|35=AN|49=VP|56=IDX|34=27|43=N|52=20240129-01:12:34|50=vpft1001|60=20240129-01:12:34|263=0|453=1|448=AD|447=C|452=7|710=20180208RPy4sn1ygt7d|715=20240129|724=1|10=165|
8=FIXT.1.1|9=159|35=AN|49=VP|56=IDX|34=28|43=N|52=20240129-01:12:54|50=vpft1001|60=20240129-01:12:54|263=0|453=1|448=AD|447=C|452=7|710=20180208RPy4sn1ygt7d|715=20240129|724=1|10=170|
8=FIXT.1.1|9=159|35=AN|49=VP|56=IDX|34=29|43=N|52=20240129-01:13:14|50=vpft1001|60=20240129-01:13:14|263=0|453=1|448=AD|447=C|452=7|710=20180208RPy4sn1ygt7d|715=20240129|724=1|10=165|
8=FIXT.1.1|9=159|35=AN|49=VP|56=IDX|34=30|43=N|52=20240129-01:13:34|50=vpft1001|60=20240129-01:13:34|263=0|453=1|448=AD|447=C|452=7|710=20180208RPy4sn1ygt7d|715=20240129|724=1|10=161|
8=FIXT.1.1|9=159|35=AN|49=VP|56=IDX|34=31|43=N|52=20240129-01:13:54|50=vpft1001|60=20240129-01:13:54|263=0|453=1|448=AD|447=C|452=7|710=20180208RPy4sn1ygt7d|715=20240129|724=1|10=166|
8=FIXT.1.1|9=159|35=AN|49=VP|56=IDX|34=32|43=N|52=20240129-01:14:14|50=vpft1001|60=20240129-01:14:14|263=0|453=1|448=AD|447=C|452=7|710=20180208RPy4sn1ygt7d|715=20240129|724=1|10=161|
8=FIXT.1.1|9=159|35=AN|49=VP|56=IDX|34=33|43=N|52=20240129-01:14:34|50=vpft1001|60=20240129-01:14:34|263=0|453=1|448=AD|447=C|452=7|710=20180208RPy4sn1ygt7d|715=20240129|724=1|10=166|
8=FIXT.1.1|9=159|35=AN|49=VP|56=IDX|34=34|43=N|52=20240129-01:14:54|50=vpft1001|60=20240129-01:14:54|263=0|453=1|448=AD|447=C|452=7|710=20180208RPy4sn1ygt7d|715=20240129|724=1|10=171|
8=FIXT.1.1|9=159|35=AN|49=VP|56=IDX|34=35|43=N|52=20240129-01:15:14|50=vpft1001|60=20240129-01:15:14|263=0|453=1|448=AD|447=C|452=7|710=20180208RPy4sn1ygt7d|715=20240129|724=1|10=166|
8=FIXT.1.1|9=159|35=AN|49=VP|56=IDX|34=36|43=N|52=20240129-01:15:34|50=vpft1001|60=20240129-01:15:34|263=0|453=1|448=AD|447=C|452=7|710=20180208RPy4sn1ygt7d|715=20240129|724=1|10=171|
8=FIXT.1.1|9=159|35=AN|49=VP|56=IDX|34=37|43=N|52=20240129-01:15:54|50=vpft1001|60=20240129-01:15:54|263=0|453=1|448=AD|447=C|452=7|710=20180208RPy4sn1ygt7d|715=20240129|724=1|10=176|
8=FIXT.1.1|9=159|35=AN|49=VP|56=IDX|34=38|43=N|52=20240129-01:16:14|50=vpft1001|60=20240129-01:16:14|263=0|453=1|448=AD|447=C|452=7|710=20180208RPy4sn1ygt7d|715=20240129|724=1|10=171|
8=FIXT.1.1|9=159|35=AN|49=VP|56=IDX|34=39|43=N|52=20240129-01:16:34|50=vpft1001|60=20240129-01:16:34|263=0|453=1|448=AD|447=C|452=7|710=20180208RPy4sn1ygt7d|715=20240129|724=1|10=176|
8=FIXT.1.1|9=159|35=AN|49=VP|56=IDX|34=40|43=N|52=20240129-01:16:54|50=vpft1001|60=20240129-01:16:54|263=0|453=1|448=AD|447=C|452=7|710=20180208RPy4sn1ygt7d|715=20240129|724=1|10=172|
8=FIXT.1.1|9=159|35=AN|49=VP|56=IDX|34=41|43=N|52=20240129-01:17:14|50=vpft1001|60=20240129-01:17:14|263=0|453=1|448=AD|447=C|452=7|710=20180208RPy4sn1ygt7d|715=20240129|724=1|10=167|
8=FIXT.1.1|9=159|35=AN|49=VP|56=IDX|34=42|43=N|52=20240129-01:17:34|50=vpft1001|60=20240129-01:17:34|263=0|453=1|448=AD|447=C|452=7|710=20180208RPy4sn1ygt7d|715=20240129|724=1|10=172|
8=FIXT.1.1|9=159|35=AN|49=VP|56=IDX|34=43|43=N|52=20240129-01:17:54|50=vpft1001|60=20240129-01:17:54|263=0|453=1|448=AD|447=C|452=7|710=20180208RPy4sn1ygt7d|715=20240129|724=1|10=177|
8=FIXT.1.1|9=159|35=AN|49=VP|56=IDX|34=44|43=N|52=20240129-01:18:14|50=vpft1001|60=20240129-01:18:14|263=0|453=1|448=AD|447=C|452=7|710=20180208RPy4sn1ygt7d|715=20240129|724=1|10=172|
8=FIXT.1.1|9=159|35=AN|49=VP|56=IDX|34=45|43=N|52=20240129-01:18:34|50=vpft1001|60=20240129-01:18:34|263=0|453=1|448=AD|447=C|452=7|710=20180208RPy4sn1ygt7d|715=20240129|724=1|10=177|
8=FIXT.1.1|9=159|35=AN|49=VP|56=IDX|34=46|43=N|52=20240129-01:18:54|50=vpft1001|60=20240129-01:18:54|263=0|453=1|448=AD|447=C|452=7|710=20180208RPy4sn1ygt7d|715=20240129|724=1|10=182|
8=FIXT.1.1|9=159|35=AN|49=VP|56=IDX|34=47|43=N|52=20240129-01:19:14|50=vpft1001|60=20240129-01:19:14|263=0|453=1|448=AD|447=C|452=7|710=20180208RPy4sn1ygt7d|715=20240129|724=1|10=177|
8=FIXT.1.1|9=159|35=AN|49=VP|56=IDX|34=48|43=N|52=20240129-01:19:34|50=vpft1001|60=20240129-01:19:34|263=0|453=1|448=AD|447=C|452=7|710=20180208RPy4sn1ygt7d|715=20240129|724=1|10=182|
8=FIXT.1.1|9=159|35=AN|49=VP|56=IDX|34=49|43=N|52=20240129-01:19:54|50=vpft1001|60=20240129-01:19:54|263=0|453=1|448=AD|447=C|452=7|710=20180208RPy4sn1ygt7d|715=20240129|724=1|10=187|
8=FIXT.1.1|9=72|35=1|49=VP|56=IDX|34=50|43=N|52=20240129-01:20:01|112=20240129-01:20:01|10=043|
8=FIXT.1.1|9=68|35=5|49=VP|56=IDX|34=51|52=20240129-01:20:01|58=User Request Logout|10=004|
8=FIXT.1.1|9=97|35=A|49=VP|56=IDX|34=52|43=N|52=20240129-02:41:34|98=0|108=15|553=vpfc1001|554=jakarta123|1137=8|10=029|
8=FIXT.1.1|9=84|35=4|49=VP|56=IDX|34=51|43=Y|52=20240129-02:41:34|122=20240129-02:41:34|123=Y|36=57|10=146|
8=FIXT.1.1|9=50|35=0|49=VP|56=IDX|34=57|43=N|52=20240129-02:41:49|10=018|
8=FIXT.1.1|9=159|35=AN|49=VP|56=IDX|34=58|43=N|52=20240129-02:41:53|50=vpft1001|60=20240129-02:41:53|263=0|453=1|448=AD|447=C|452=7|710=20180208RPy4sn1ygt7d|715=20240129|724=1|10=177|
8=FIXT.1.1|9=159|35=AN|49=VP|56=IDX|34=59|43=N|52=20240129-02:42:13|50=vpft1001|60=20240129-02:42:13|263=0|453=1|448=AD|447=C|452=7|710=20180208RPy4sn1ygt7d|715=20240129|724=1|10=172|
8=FIXT.1.1|9=184|35=D|49=VP|56=IDX|34=60|43=N|52=20240129-02:42:23|50=vpft1001|11=tzxlYvKWrO72tK0LK0e1|38=2|40=2|44=50000|54=5|55=ANTM|59=0|60=20240129-02:42:23|453=1|448=1000|447=C|452=5|581=1|762=RG|10=010|
8=FIXT.1.1|9=159|35=AN|49=VP|56=IDX|34=61|43=N|52=20240129-02:42:33|50=vpft1001|60=20240129-02:42:33|263=0|453=1|448=AD|447=C|452=7|710=20180208RPy4sn1ygt7d|715=20240129|724=1|10=169|
8=FIXT.1.1|9=250|35=i|49=VP|56=IDX|34=62|43=N|52=20240129-02:42:38|50=vpft1001|117=3nq09ly66p5omnp0i54v|296=1|302=124124|304=1|295=1|299=b2l7n1zs216x8fv1wqu4|55=LQ45V8|132=925|133=926|134=100|135=100|762=RF|453=2|448=brokerref|447=C|452=3|448=SID|447=C|452=5|581=100|10=100|
8=FIXT.1.1|9=159|35=AN|49=VP|56=IDX|34=63|43=N|52=20240129-02:42:53|50=vpft1001|60=20240129-02:42:53|263=0|453=1|448=AD|447=C|452=7|710=20180208RPy4sn1ygt7d|715=20240129|724=1|10=175|
8=FIXT.1.1|9=159|35=AN|49=VP|56=IDX|34=64|43=N|52=20240129-02:43:13|50=vpft1001|60=20240129-02:43:13|263=0|453=1|448=AD|447=C|452=7|710=20180208RPy4sn1ygt7d|715=20240129|724=1|10=170|
8=FIXT.1.1|9=258|35=AE|49=VP|56=IDX|34=65|43=N|52=20240129-02:43:18|50=vpft1001|31=3200|32=100|55=TLKM|552=2|54=1|581=1|453=2|448=99999|447=C|452=5|448=AD|447=C|452=5|54=2|581=1|453=2|448=null|447=C|452=37|448=AG|447=C|452=17|571=235325q35q4646|572=ABC123|762=NG|856=3|919=1|10=168|
8=FIXT.1.1|9=119|35=X|49=VP|56=IDX|34=66|43=N|52=20240129-02:43:24|50=vpft1001|55=ANTM|146=1|262=GhIh5JuWcFwrgJKdE3t5|269=1|278=0|279=0|10=055|
8=FIXT.1.1|9=250|35=i|49=VP|56=IDX|34=67|43=N|52=20240129-02:43:28|50=vpft1001|117=3nq09ly66p5omnp0i54v|296=1|302=124124|304=1|295=1|299=b2l7n1zs216x8fv1wqu4|55=LQ45V8|132=925|133=926|134=100|135=100|762=RF|453=2|448=brokerref|447=C|452=3|448=SID|447=C|452=5|581=100|10=105|
8=FIXT.1.1|9=258|35=AE|49=VP|56=IDX|34=68|43=N|52=20240129-02:43:30|50=vpft1001|31=3200|32=100|55=TLKM|552=2|54=1|581=1|453=2|448=99999|447=C|452=5|448=AD|447=C|452=5|54=2|581=1|453=2|448=null|447=C|452=37|448=AG|447=C|452=17|571=235325q35q4646|572=ABC123|762=NG|856=3|919=1|10=165|
8=FIXT.1.1|9=159|35=AN|49=VP|56=IDX|34=69|43=N|52=20240129-02:43:33|50=vpft1001|60=20240129-02:43:33|263=0|453=1|448=AD|447=C|452=7|710=20180208RPy4sn1ygt7d|715=20240129|724=1|10=179|
8=FIXT.1.1|9=159|35=AN|49=VP|56=IDX|34=69|43=N|52=20240129-02:43:33|50=vpft1001|60=20240129-02:43:33|263=0|453=1|448=AD|447=C|452=7|710=20180208RPy4sn1ygt7d|715=20240129|724=1|10=179|
8=FIXT.1.1|9=184|35=D|49=VP|56=IDX|34=71|43=N|52=20240129-02:43:40|50=vpft1001|11=Oa5LnIMIQuOiNJj8YL8r|38=2|40=2|44=50000|54=5|55=ANTM|59=0|60=20240129-02:43:40|453=1|448=1000|447=C|452=5|581=1|762=RG|10=216|
8=FIXT.1.1|9=258|35=AE|49=VP|56=IDX|34=72|43=N|52=20240129-02:43:41|50=vpft1001|31=3200|32=100|55=TLKM|552=2|54=1|581=1|453=2|448=99999|447=C|452=5|448=AD|447=C|452=5|54=2|581=1|453=2|448=null|447=C|452=37|448=AG|447=C|452=17|571=235325q35q4646|572=ABC123|762=NG|856=3|919=1|10=162|
8=FIXT.1.1|9=250|35=i|49=VP|56=IDX|34=73|43=N|52=20240129-02:43:43|50=vpft1001|117=3nq09ly66p5omnp0i54v|296=1|302=124124|304=1|295=1|299=b2l7n1zs216x8fv1wqu4|55=LQ45V8|132=925|133=926|134=100|135=100|762=RF|453=2|448=brokerref|447=C|452=3|448=SID|447=C|452=5|581=100|10=099|
8=FIXT.1.1|9=159|35=AN|49=VP|56=IDX|34=74|43=N|52=20240129-02:43:53|50=vpft1001|60=20240129-02:43:53|263=0|453=1|448=AD|447=C|452=7|710=20180208RPy4sn1ygt7d|715=20240129|724=1|10=179|
8=FIXT.1.1|9=97|35=A|49=VP|56=IDX|34=78|43=N|52=20240129-02:44:23|98=0|108=15|553=vpfc1001|554=jakarta123|1137=8|10=038|
8=FIXT.1.1|9=84|35=4|49=VP|56=IDX|34=75|43=Y|52=20240129-02:44:24|122=20240129-02:44:24|123=Y|36=83|10=155|
8=FIXT.1.1|9=159|35=AN|49=VP|56=IDX|34=83|43=N|52=20240129-02:44:33|50=vpft1001|60=20240129-02:44:33|263=0|453=1|448=AD|447=C|452=7|710=20180208RPy4sn1ygt7d|715=20240129|724=1|10=177|
8=FIXT.1.1|9=159|35=AN|49=VP|56=IDX|34=84|43=N|52=20240129-02:44:53|50=vpft1001|60=20240129-02:44:53|263=0|453=1|448=AD|447=C|452=7|710=20180208RPy4sn1ygt7d|715=20240129|724=1|10=182|
8=FIXT.1.1|9=159|35=AN|49=VP|56=IDX|34=85|43=N|52=20240129-02:45:13|50=vpft1001|60=20240129-02:45:13|263=0|453=1|448=AD|447=C|452=7|710=20180208RPy4sn1ygt7d|715=20240129|724=1|10=177|
8=FIXT.1.1|9=159|35=AN|49=VP|56=IDX|34=86|43=N|52=20240129-02:45:33|50=vpft1001|60=20240129-02:45:33|263=0|453=1|448=AD|447=C|452=7|710=20180208RPy4sn1ygt7d|715=20240129|724=1|10=182|
8=FIXT.1.1|9=159|35=AN|49=VP|56=IDX|34=87|43=N|52=20240129-02:45:53|50=vpft1001|60=20240129-02:45:53|263=0|453=1|448=AD|447=C|452=7|710=20180208RPy4sn1ygt7d|715=20240129|724=1|10=187|
8=FIXT.1.1|9=159|35=AN|49=VP|56=IDX|34=88|43=N|52=20240129-02:46:13|50=vpft1001|60=20240129-02:46:13|263=0|453=1|448=AD|447=C|452=7|710=20180208RPy4sn1ygt7d|715=20240129|724=1|10=182|
8=FIXT.1.1|9=159|35=AN|49=VP|56=IDX|34=89|43=N|52=20240129-02:46:33|50=vpft1001|60=20240129-02:46:33|263=0|453=1|448=AD|447=C|452=7|710=20180208RPy4sn1ygt7d|715=20240129|724=1|10=187|
8=FIXT.1.1|9=159|35=AN|49=VP|56=IDX|34=90|43=N|52=20240129-02:46:53|50=vpft1001|60=20240129-02:46:53|263=0|453=1|448=AD|447=C|452=7|710=20180208RPy4sn1ygt7d|715=20240129|724=1|10=183|
8=FIXT.1.1|9=159|35=AN|49=VP|56=IDX|34=91|43=N|52=20240129-02:47:13|50=vpft1001|60=20240129-02:47:13|263=0|453=1|448=AD|447=C|452=7|710=20180208RPy4sn1ygt7d|715=20240129|724=1|10=178|
8=FIXT.1.1|9=159|35=AN|49=VP|56=IDX|34=92|43=N|52=20240129-02:47:33|50=vpft1001|60=20240129-02:47:33|263=0|453=1|448=AD|447=C|452=7|710=20180208RPy4sn1ygt7d|715=20240129|724=1|10=183|
8=FIXT.1.1|9=159|35=AN|49=VP|56=IDX|34=93|43=N|52=20240129-02:47:53|50=vpft1001|60=20240129-02:47:53|263=0|453=1|448=AD|447=C|452=7|710=20180208RPy4sn1ygt7d|715=20240129|724=1|10=188|
8=FIXT.1.1|9=97|35=A|49=VP|56=IDX|34=96|43=N|52=20240129-02:54:29|98=0|108=15|553=vpfc1001|554=jakarta123|1137=8|10=045|
8=FIXT.1.1|9=97|35=A|49=VP|56=IDX|34=99|43=N|52=20240129-03:01:57|98=0|108=15|553=vpfc1001|554=jakarta123|1137=8|10=042|
8=FIXT.1.1|9=160|35=AN|49=VP|56=IDX|34=100|43=N|52=20240129-03:01:59|50=vpft1001|60=20240129-03:01:59|263=0|453=1|448=AD|447=C|452=7|710=20180208RPy4sn1ygt7d|715=20240129|724=1|10=211|
8=FIXT.1.1|9=98|35=A|49=VP|56=IDX|34=102|43=N|52=20240129-03:03:35|98=0|108=15|553=vpfc1001|554=jakarta123|1137=8|10=074|
8=FIXT.1.1|9=98|35=A|49=VP|56=IDX|34=103|43=N|52=20240129-03:03:45|98=0|108=15|553=vpfc1001|554=jakarta123|1137=8|10=076|
8=FIXT.1.1|9=160|35=AN|49=VP|56=IDX|34=104|43=N|52=20240129-03:03:52|50=vpft1001|60=20240129-03:03:52|263=0|453=1|448=AD|447=C|452=7|710=20180208RPy4sn1ygt7d|715=20240129|724=1|10=205|
8=FIXT.1.1|9=259|35=AE|49=VP|56=IDX|34=105|43=N|52=20240129-03:03:53|50=vpft1001|31=3200|32=100|55=TLKM|552=2|54=1|581=1|453=2|448=99999|447=C|452=5|448=AD|447=C|452=5|54=2|581=1|453=2|448=null|447=C|452=37|448=AG|447=C|452=17|571=235325q35q4646|572=ABC123|762=NG|856=3|919=1|10=208|
8=FIXT.1.1|9=259|35=AE|49=VP|56=IDX|34=106|43=N|52=20240129-03:03:55|50=vpft1001|31=3200|32=100|55=TLKM|552=2|54=1|581=1|453=2|448=99999|447=C|452=5|448=AD|447=C|452=5|54=2|581=1|453=2|448=null|447=C|452=37|448=AG|447=C|452=17|571=235325q35q4646|572=ABC123|762=NG|856=3|919=1|10=211|
8=FIXT.1.1|9=259|35=AE|49=VP|56=IDX|34=107|43=N|52=20240129-03:03:58|50=vpft1001|31=3200|32=100|55=TLKM|552=2|54=1|581=1|453=2|448=99999|447=C|452=5|448=AD|447=C|452=5|54=2|581=1|453=2|448=null|447=C|452=37|448=AG|447=C|452=17|571=235325q35q4646|572=ABC123|762=NG|856=3|919=1|10=215|
8=FIXT.1.1|9=259|35=AE|49=VP|56=IDX|34=108|43=N|52=20240129-03:04:16|50=vpft1001|31=3200|32=100|55=TLKM|552=2|54=1|581=1|453=2|448=99999|447=C|452=5|448=AD|447=C|452=5|54=2|581=1|453=2|448=null|447=C|452=37|448=AG|447=C|452=17|571=235325q35q4646|572=ABC123|762=NG|856=3|919=1|10=211|
8=FIXT.1.1|9=160|35=AN|49=VP|56=IDX|34=109|43=N|52=20240129-03:04:32|50=vpft1001|60=20240129-03:04:32|263=0|453=1|448=AD|447=C|452=7|710=20180208RPy4sn1ygt7d|715=20240129|724=1|10=208|
8=FIXT.1.1|9=160|35=AN|49=VP|56=IDX|34=110|43=N|52=20240129-03:04:52|50=vpft1001|60=20240129-03:04:52|263=0|453=1|448=AD|447=C|452=7|710=20180208RPy4sn1ygt7d|715=20240129|724=1|10=204|
8=FIXT.1.1|9=98|35=A|49=VP|56=IDX|34=112|43=N|52=20240129-03:05:48|98=0|108=15|553=vpfc1001|554=jakarta123|1137=8|10=081|
8=FIXT.1.1|9=85|35=4|49=VP|56=IDX|34=94|43=Y|52=20240129-03:05:48|122=20240129-03:05:48|123=Y|36=117|10=211|
8=FIXT.1.1|9=160|35=AN|49=VP|56=IDX|34=117|43=N|52=20240129-03:05:57|50=vpft1001|60=20240129-03:05:57|263=0|453=1|448=AD|447=C|452=7|710=20180208RPy4sn1ygt7d|715=20240129|724=1|10=223|
8=FIXT.1.1|9=160|35=AN|49=VP|56=IDX|34=118|43=N|52=20240129-03:06:17|50=vpft1001|60=20240129-03:06:17|263=0|453=1|448=AD|447=C|452=7|710=20180208RPy4sn1ygt7d|715=20240129|724=1|10=218|
8=FIXT.1.1|9=160|35=AN|49=VP|56=IDX|34=119|43=N|52=20240129-03:06:37|50=vpft1001|60=20240129-03:06:37|263=0|453=1|448=AD|447=C|452=7|710=20180208RPy4sn1ygt7d|715=20240129|724=1|10=223|
8=FIXT.1.1|9=160|35=AN|49=VP|56=IDX|34=120|43=N|52=20240129-03:06:57|50=vpft1001|60=20240129-03:06:57|263=0|453=1|448=AD|447=C|452=7|710=20180208RPy4sn1ygt7d|715=20240129|724=1|10=219|
8=FIXT.1.1|9=160|35=AN|49=VP|56=IDX|34=121|43=N|52=20240129-03:07:17|50=vpft1001|60=20240129-03:07:17|263=0|453=1|448=AD|447=C|452=7|710=20180208RPy4sn1ygt7d|715=20240129|724=1|10=214|
8=FIXT.1.1|9=160|35=AN|49=VP|56=IDX|34=122|43=N|52=20240129-03:07:37|50=vpft1001|60=20240129-03:07:37|263=0|453=1|448=AD|447=C|452=7|710=20180208RPy4sn1ygt7d|715=20240129|724=1|10=219|
8=FIXT.1.1|9=160|35=AN|49=VP|56=IDX|34=123|43=N|52=20240129-03:07:57|50=vpft1001|60=20240129-03:07:57|263=0|453=1|448=AD|447=C|452=7|710=20180208RPy4sn1ygt7d|715=20240129|724=1|10=224|
8=FIXT.1.1|9=160|35=AN|49=VP|56=IDX|34=124|43=N|52=20240129-03:08:17|50=vpft1001|60=20240129-03:08:17|263=0|453=1|448=AD|447=C|452=7|710=20180208RPy4sn1ygt7d|715=20240129|724=1|10=219|
8=FIXT.1.1|9=160|35=AN|49=VP|56=IDX|34=125|43=N|52=20240129-03:08:37|50=vpft1001|60=20240129-03:08:37|263=0|453=1|448=AD|447=C|452=7|710=20180208RPy4sn1ygt7d|715=20240129|724=1|10=224|
8=FIXT.1.1|9=160|35=AN|49=VP|56=IDX|34=126|43=N|52=20240129-03:08:57|50=vpft1001|60=20240129-03:08:57|263=0|453=1|448=AD|447=C|452=7|710=20180208RPy4sn1ygt7d|715=20240129|724=1|10=229|
8=FIXT.1.1|9=160|35=AN|49=VP|56=IDX|34=127|43=N|52=20240129-03:09:17|50=vpft1001|60=20240129-03:09:17|263=0|453=1|448=AD|447=C|452=7|710=20180208RPy4sn1ygt7d|715=20240129|724=1|10=224|
8=FIXT.1.1|9=160|35=AN|49=VP|56=IDX|34=128|43=N|52=20240129-03:09:37|50=vpft1001|60=20240129-03:09:37|263=0|453=1|448=AD|447=C|452=7|710=20180208RPy4sn1ygt7d|715=20240129|724=1|10=229|
8=FIXT.1.1|9=160|35=AN|49=VP|56=IDX|34=129|43=N|52=20240129-03:09:57|50=vpft1001|60=20240129-03:09:57|263=0|453=1|448=AD|447=C|452=7|710=20180208RPy4sn1ygt7d|715=20240129|724=1|10=234|
8=FIXT.1.1|9=160|35=AN|49=VP|56=IDX|34=130|43=N|52=20240129-03:10:17|50=vpft1001|60=20240129-03:10:17|263=0|453=1|448=AD|447=C|452=7|710=20180208RPy4sn1ygt7d|715=20240129|724=1|10=202|
8=FIXT.1.1|9=160|35=AN|49=VP|56=IDX|34=131|43=N|52=20240129-03:10:37|50=vpft1001|60=20240129-03:10:37|263=0|453=1|448=AD|447=C|452=7|710=20180208RPy4sn1ygt7d|715=20240129|724=1|10=207|
8=FIXT.1.1|9=160|35=AN|49=VP|56=IDX|34=132|43=N|52=20240129-03:10:57|50=vpft1001|60=20240129-03:10:57|263=0|453=1|448=AD|447=C|452=7|710=20180208RPy4sn1ygt7d|715=20240129|724=1|10=212|
8=FIXT.1.1|9=160|35=AN|49=VP|56=IDX|34=133|43=N|52=20240129-03:11:17|50=vpft1001|60=20240129-03:11:17|263=0|453=1|448=AD|447=C|452=7|710=20180208RPy4sn1ygt7d|715=20240129|724=1|10=207|
8=FIXT.1.1|9=160|35=AN|49=VP|56=IDX|34=134|43=N|52=20240129-03:11:37|50=vpft1001|60=20240129-03:11:37|263=0|453=1|448=AD|447=C|452=7|710=20180208RPy4sn1ygt7d|715=20240129|724=1|10=212|
8=FIXT.1.1|9=160|35=AN|49=VP|56=IDX|34=135|43=N|52=20240129-03:11:57|50=vpft1001|60=20240129-03:11:57|263=0|453=1|448=AD|447=C|452=7|710=20180208RPy4sn1ygt7d|715=20240129|724=1|10=217|
8=FIXT.1.1|9=160|35=AN|49=VP|56=IDX|34=136|43=N|52=20240129-03:12:17|50=vpft1001|60=20240129-03:12:17|263=0|453=1|448=AD|447=C|452=7|710=20180208RPy4sn1ygt7d|715=20240129|724=1|10=212|
8=FIXT.1.1|9=160|35=AN|49=VP|56=IDX|34=137|43=N|52=20240129-03:12:37|50=vpft1001|60=20240129-03:12:37|263=0|453=1|448=AD|447=C|452=7|710=20180208RPy4sn1ygt7d|715=20240129|724=1|10=217|
8=FIXT.1.1|9=160|35=AN|49=VP|56=IDX|34=138|43=N|52=20240129-03:12:57|50=vpft1001|60=20240129-03:12:57|263=0|453=1|448=AD|447=C|452=7|710=20180208RPy4sn1ygt7d|715=20240129|724=1|10=222|
8=FIXT.1.1|9=160|35=AN|49=VP|56=IDX|34=139|43=N|52=20240129-03:13:17|50=vpft1001|60=20240129-03:13:17|263=0|453=1|448=AD|447=C|452=7|710=20180208RPy4sn1ygt7d|715=20240129|724=1|10=217|
8=FIXT.1.1|9=160|35=AN|49=VP|56=IDX|34=140|43=N|52=20240129-03:13:37|50=vpft1001|60=20240129-03:13:37|263=0|453=1|448=AD|447=C|452=7|710=20180208RPy4sn1ygt7d|715=20240129|724=1|10=213|
8=FIXT.1.1|9=160|35=AN|49=VP|56=IDX|34=141|43=N|52=20240129-03:13:57|50=vpft1001|60=20240129-03:13:57|263=0|453=1|448=AD|447=C|452=7|710=20180208RPy4sn1ygt7d|715=20240129|724=1|10=218|
8=FIXT.1.1|9=160|35=AN|49=VP|56=IDX|34=142|43=N|52=20240129-03:14:17|50=vpft1001|60=20240129-03:14:17|263=0|453=1|448=AD|447=C|452=7|710=20180208RPy4sn1ygt7d|715=20240129|724=1|10=213|
8=FIXT.1.1|9=160|35=AN|49=VP|56=IDX|34=143|43=N|52=20240129-03:14:37|50=vpft1001|60=20240129-03:14:37|263=0|453=1|448=AD|447=C|452=7|710=20180208RPy4sn1ygt7d|715=20240129|724=1|10=218|
8=FIXT.1.1|9=160|35=AN|49=VP|56=IDX|34=144|43=N|52=20240129-03:14:57|50=vpft1001|60=20240129-03:14:57|263=0|453=1|448=AD|447=C|452=7|710=20180208RPy4sn1ygt7d|715=20240129|724=1|10=223|
8=FIXT.1.1|9=160|35=AN|49=VP|56=IDX|34=145|43=N|52=20240129-03:15:17|50=vpft1001|60=20240129-03:15:17|263=0|453=1|448=AD|447=C|452=7|710=20180208RPy4sn1ygt7d|715=20240129|724=1|10=218|
8=FIXT.1.1|9=160|35=AN|49=VP|56=IDX|34=146|43=N|52=20240129-03:15:37|50=vpft1001|60=20240129-03:15:37|263=0|453=1|448=AD|447=C|452=7|710=20180208RPy4sn1ygt7d|715=20240129|724=1|10=223|
8=FIXT.1.1|9=160|35=AN|49=VP|56=IDX|34=147|43=N|52=20240129-03:15:57|50=vpft1001|60=20240129-03:15:57|263=0|453=1|448=AD|447=C|452=7|710=20180208RPy4sn1ygt7d|715=20240129|724=1|10=228|
8=FIXT.1.1|9=160|35=AN|49=VP|56=IDX|34=148|43=N|52=20240129-03:16:17|50=vpft1001|60=20240129-03:16:17|263=0|453=1|448=AD|447=C|452=7|710=20180208RPy4sn1ygt7d|715=20240129|724=1|10=223|
8=FIXT.1.1|9=160|35=AN|49=VP|56=IDX|34=149|43=N|52=20240129-03:16:37|50=vpft1001|60=20240129-03:16:37|263=0|453=1|448=AD|447=C|452=7|710=20180208RPy4sn1ygt7d|715=20240129|724=1|10=228|
8=FIXT.1.1|9=160|35=AN|49=VP|56=IDX|34=150|43=N|52=20240129-03:16:57|50=vpft1001|60=20240129-03:16:57|263=0|453=1|448=AD|447=C|452=7|710=20180208RPy4sn1ygt7d|715=20240129|724=1|10=224|
8=FIXT.1.1|9=160|35=AN|49=VP|56=IDX|34=151|43=N|52=20240129-03:17:17|50=vpft1001|60=20240129-03:17:17|263=0|453=1|448=AD|447=C|452=7|710=20180208RPy4sn1ygt7d|715=20240129|724=1|10=219|
8=FIXT.1.1|9=160|35=AN|49=VP|56=IDX|34=152|43=N|52=20240129-03:17:37|50=vpft1001|60=20240129-03:17:37|263=0|453=1|448=AD|447=C|452=7|710=20180208RPy4sn1ygt7d|715=20240129|724=1|10=224|
8=FIXT.1.1|9=160|35=AN|49=VP|56=IDX|34=153|43=N|52=20240129-03:17:57|50=vpft1001|60=20240129-03:17:57|263=0|453=1|448=AD|447=C|452=7|710=20180208RPy4sn1ygt7d|715=20240129|724=1|10=229|
8=FIXT.1.1|9=160|35=AN|49=VP|56=IDX|34=154|43=N|52=20240129-03:18:17|50=vpft1001|60=20240129-03:18:17|263=0|453=1|448=AD|447=C|452=7|710=20180208RPy4sn1ygt7d|715=20240129|724=1|10=224|
8=FIXT.1.1|9=160|35=AN|49=VP|56=IDX|34=155|43=N|52=20240129-03:18:37|50=vpft1001|60=20240129-03:18:37|263=0|453=1|448=AD|447=C|452=7|710=20180208RPy4sn1ygt7d|715=20240129|724=1|10=229|
8=FIXT.1.1|9=160|35=AN|49=VP|56=IDX|34=156|43=N|52=20240129-03:18:57|50=vpft1001|60=20240129-03:18:57|263=0|453=1|448=AD|447=C|452=7|710=20180208RPy4sn1ygt7d|715=20240129|724=1|10=234|
8=FIXT.1.1|9=160|35=AN|49=VP|56=IDX|34=157|43=N|52=20240129-03:19:17|50=vpft1001|60=20240129-03:19:17|263=0|453=1|448=AD|447=C|452=7|710=20180208RPy4sn1ygt7d|715=20240129|724=1|10=229|
8=FIXT.1.1|9=160|35=AN|49=VP|56=IDX|34=158|43=N|52=20240129-03:19:37|50=vpft1001|60=20240129-03:19:37|263=0|453=1|448=AD|447=C|452=7|710=20180208RPy4sn1ygt7d|715=20240129|724=1|10=234|
8=FIXT.1.1|9=160|35=AN|49=VP|56=IDX|34=159|43=N|52=20240129-03:19:57|50=vpft1001|60=20240129-03:19:57|263=0|453=1|448=AD|447=C|452=7|710=20180208RPy4sn1ygt7d|715=20240129|724=1|10=239|
8=FIXT.1.1|9=160|35=AN|49=VP|56=IDX|34=160|43=N|52=20240129-03:20:17|50=vpft1001|60=20240129-03:20:17|263=0|453=1|448=AD|447=C|452=7|710=20180208RPy4sn1ygt7d|715=20240129|724=1|10=207|
8=FIXT.1.1|9=160|35=AN|49=VP|56=IDX|34=161|43=N|52=20240129-03:20:37|50=vpft1001|60=20240129-03:20:37|263=0|453=1|448=AD|447=C|452=7|710=20180208RPy4sn1ygt7d|715=20240129|724=1|10=212|
8=FIXT.1.1|9=160|35=AN|49=VP|56=IDX|34=162|43=N|52=20240129-03:20:57|50=vpft1001|60=20240129-03:20:57|263=0|453=1|448=AD|447=C|452=7|710=20180208RPy4sn1ygt7d|715=20240129|724=1|10=217|
8=FIXT.1.1|9=160|35=AN|49=VP|56=IDX|34=163|43=N|52=20240129-03:21:17|50=vpft1001|60=20240129-03:21:17|263=0|453=1|448=AD|447=C|452=7|710=20180208RPy4sn1ygt7d|715=20240129|724=1|10=212|
8=FIXT.1.1|9=160|35=AN|49=VP|56=IDX|34=164|43=N|52=20240129-03:21:37|50=vpft1001|60=20240129-03:21:37|263=0|453=1|448=AD|447=C|452=7|710=20180208RPy4sn1ygt7d|715=20240129|724=1|10=217|
8=FIXT.1.1|9=160|35=AN|49=VP|56=IDX|34=165|43=N|52=20240129-03:21:57|50=vpft1001|60=20240129-03:21:57|263=0|453=1|448=AD|447=C|452=7|710=20180208RPy4sn1ygt7d|715=20240129|724=1|10=222|
8=FIXT.1.1|9=160|35=AN|49=VP|56=IDX|34=166|43=N|52=20240129-03:22:17|50=vpft1001|60=20240129-03:22:17|263=0|453=1|448=AD|447=C|452=7|710=20180208RPy4sn1ygt7d|715=20240129|724=1|10=217|
8=FIXT.1.1|9=67|35=5|49=VP|56=IDX|34=167|52=20240129-03:22:35|58=confirming logout|10=234|
8=FIXT.1.1|9=160|35=AN|49=VP|56=IDX|34=168|43=N|52=20240129-03:22:37|50=vpft1001|60=20240129-03:22:37|263=0|453=1|448=AD|447=C|452=7|710=20180208RPy4sn1ygt7d|715=20240129|724=1|10=223|
8=FIXT.1.1|9=160|35=AN|49=VP|56=IDX|34=169|43=N|52=20240129-03:22:57|50=vpft1001|60=20240129-03:22:57|263=0|453=1|448=AD|447=C|452=7|710=20180208RPy4sn1ygt7d|715=20240129|724=1|10=228|
8=FIXT.1.1|9=160|35=AN|49=VP|56=IDX|34=170|43=N|52=20240129-03:23:17|50=vpft1001|60=20240129-03:23:17|263=0|453=1|448=AD|447=C|452=7|710=20180208RPy4sn1ygt7d|715=20240129|724=1|10=214|
8=FIXT.1.1|9=160|35=AN|49=VP|56=IDX|34=171|43=N|52=20240129-03:23:37|50=vpft1001|60=20240129-03:23:37|263=0|453=1|448=AD|447=C|452=7|710=20180208RPy4sn1ygt7d|715=20240129|724=1|10=219|
8=FIXT.1.1|9=160|35=AN|49=VP|56=IDX|34=172|43=N|52=20240129-03:23:57|50=vpft1001|60=20240129-03:23:57|263=0|453=1|448=AD|447=C|452=7|710=20180208RPy4sn1ygt7d|715=20240129|724=1|10=224|
8=FIXT.1.1|9=160|35=AN|49=VP|56=IDX|34=173|43=N|52=20240129-03:24:17|50=vpft1001|60=20240129-03:24:17|263=0|453=1|448=AD|447=C|452=7|710=20180208RPy4sn1ygt7d|715=20240129|724=1|10=219|
8=FIXT.1.1|9=160|35=AN|49=VP|56=IDX|34=174|43=N|52=20240129-03:24:37|50=vpft1001|60=20240129-03:24:37|263=0|453=1|448=AD|447=C|452=7|710=20180208RPy4sn1ygt7d|715=20240129|724=1|10=224|
8=FIXT.1.1|9=160|35=AN|49=VP|56=IDX|34=175|43=N|52=20240129-03:24:57|50=vpft1001|60=20240129-03:24:57|263=0|453=1|448=AD|447=C|452=7|710=20180208RPy4sn1ygt7d|715=20240129|724=1|10=229|
8=FIXT.1.1|9=160|35=AN|49=VP|56=IDX|34=176|43=N|52=20240129-03:25:17|50=vpft1001|60=20240129-03:25:17|263=0|453=1|448=AD|447=C|452=7|710=20180208RPy4sn1ygt7d|715=20240129|724=1|10=224|
8=FIXT.1.1|9=160|35=AN|49=VP|56=IDX|34=177|43=N|52=20240129-03:25:37|50=vpft1001|60=20240129-03:25:37|263=0|453=1|448=AD|447=C|452=7|710=20180208RPy4sn1ygt7d|715=20240129|724=1|10=229|
8=FIXT.1.1|9=160|35=AN|49=VP|56=IDX|34=178|43=N|52=20240129-03:25:57|50=vpft1001|60=20240129-03:25:57|263=0|453=1|448=AD|447=C|452=7|710=20180208RPy4sn1ygt7d|715=20240129|724=1|10=234|
8=FIXT.1.1|9=160|35=AN|49=VP|56=IDX|34=179|43=N|52=20240129-03:26:17|50=vpft1001|60=20240129-03:26:17|263=0|453=1|448=AD|447=C|452=7|710=20180208RPy4sn1ygt7d|715=20240129|724=1|10=229|
8=FIXT.1.1|9=160|35=AN|49=VP|56=IDX|34=180|43=N|52=20240129-03:26:37|50=vpft1001|60=20240129-03:26:37|263=0|453=1|448=AD|447=C|452=7|710=20180208RPy4sn1ygt7d|715=20240129|724=1|10=225|
8=FIXT.1.1|9=160|35=AN|49=VP|56=IDX|34=181|43=N|52=20240129-03:26:57|50=vpft1001|60=20240129-03:26:57|263=0|453=1|448=AD|447=C|452=7|710=20180208RPy4sn1ygt7d|715=20240129|724=1|10=230|
8=FIXT.1.1|9=160|35=AN|49=VP|56=IDX|34=182|43=N|52=20240129-03:27:17|50=vpft1001|60=20240129-03:27:17|263=0|453=1|448=AD|447=C|452=7|710=20180208RPy4sn1ygt7d|715=20240129|724=1|10=225|
8=FIXT.1.1|9=160|35=AN|49=VP|56=IDX|34=183|43=N|52=20240129-03:27:37|50=vpft1001|60=20240129-03:27:37|263=0|453=1|448=AD|447=C|452=7|710=20180208RPy4sn1ygt7d|715=20240129|724=1|10=230|
8=FIXT.1.1|9=160|35=AN|49=VP|56=IDX|34=184|43=N|52=20240129-03:27:57|50=vpft1001|60=20240129-03:27:57|263=0|453=1|448=AD|447=C|452=7|710=20180208RPy4sn1ygt7d|715=20240129|724=1|10=235|
8=FIXT.1.1|9=160|35=AN|49=VP|56=IDX|34=185|43=N|52=20240129-03:28:17|50=vpft1001|60=20240129-03:28:17|263=0|453=1|448=AD|447=C|452=7|710=20180208RPy4sn1ygt7d|715=20240129|724=1|10=230|
8=FIXT.1.1|9=160|35=AN|49=VP|56=IDX|34=186|43=N|52=20240129-03:28:37|50=vpft1001|60=20240129-03:28:37|263=0|453=1|448=AD|447=C|452=7|710=20180208RPy4sn1ygt7d|715=20240129|724=1|10=235|
8=FIXT.1.1|9=160|35=AN|49=VP|56=IDX|34=187|43=N|52=20240129-03:28:57|50=vpft1001|60=20240129-03:28:57|263=0|453=1|448=AD|447=C|452=7|710=20180208RPy4sn1ygt7d|715=20240129|724=1|10=240|
8=FIXT.1.1|9=160|35=AN|49=VP|56=IDX|34=188|43=N|52=20240129-03:29:17|50=vpft1001|60=20240129-03:29:17|263=0|453=1|448=AD|447=C|452=7|710=20180208RPy4sn1ygt7d|715=20240129|724=1|10=235|
8=FIXT.1.1|9=160|35=AN|49=VP|56=IDX|34=189|43=N|52=20240129-03:29:37|50=vpft1001|60=20240129-03:29:37|263=0|453=1|448=AD|447=C|452=7|710=20180208RPy4sn1ygt7d|715=20240129|724=1|10=240|
8=FIXT.1.1|9=160|35=AN|49=VP|56=IDX|34=190|43=N|52=20240129-03:29:57|50=vpft1001|60=20240129-03:29:57|263=0|453=1|448=AD|447=C|452=7|710=20180208RPy4sn1ygt7d|715=20240129|724=1|10=236|
8=FIXT.1.1|9=160|35=AN|49=VP|56=IDX|34=191|43=N|52=20240129-03:30:17|50=vpft1001|60=20240129-03:30:17|263=0|453=1|448=AD|447=C|452=7|710=20180208RPy4sn1ygt7d|715=20240129|724=1|10=213|
8=FIXT.1.1|9=160|35=AN|49=VP|56=IDX|34=192|43=N|52=20240129-03:30:37|50=vpft1001|60=20240129-03:30:37|263=0|453=1|448=AD|447=C|452=7|710=20180208RPy4sn1ygt7d|715=20240129|724=1|10=218|
8=FIXT.1.1|9=160|35=AN|49=VP|56=IDX|34=193|43=N|52=20240129-03:30:57|50=vpft1001|60=20240129-03:30:57|263=0|453=1|448=AD|447=C|452=7|710=20180208RPy4sn1ygt7d|715=20240129|724=1|10=223|
8=FIXT.1.1|9=160|35=AN|49=VP|56=IDX|34=194|43=N|52=20240129-03:31:17|50=vpft1001|60=20240129-03:31:17|263=0|453=1|448=AD|447=C|452=7|710=20180208RPy4sn1ygt7d|715=20240129|724=1|10=218|
8=FIXT.1.1|9=160|35=AN|49=VP|56=IDX|34=195|43=N|52=20240129-03:31:37|50=vpft1001|60=20240129-03:31:37|263=0|453=1|448=AD|447=C|452=7|710=20180208RPy4sn1ygt7d|715=20240129|724=1|10=223|
8=FIXT.1.1|9=160|35=AN|49=VP|56=IDX|34=196|43=N|52=20240129-03:31:57|50=vpft1001|60=20240129-03:31:57|263=0|453=1|448=AD|447=C|452=7|710=20180208RPy4sn1ygt7d|715=20240129|724=1|10=228|
8=FIXT.1.1|9=160|35=AN|49=VP|56=IDX|34=197|43=N|52=20240129-03:32:17|50=vpft1001|60=20240129-03:32:17|263=0|453=1|448=AD|447=C|452=7|710=20180208RPy4sn1ygt7d|715=20240129|724=1|10=223|
8=FIXT.1.1|9=160|35=AN|49=VP|56=IDX|34=198|43=N|52=20240129-03:32:37|50=vpft1001|60=20240129-03:32:37|263=0|453=1|448=AD|447=C|452=7|710=20180208RPy4sn1ygt7d|715=20240129|724=1|10=228|
8=FIXT.1.1|9=160|35=AN|49=VP|56=IDX|34=199|43=N|52=20240129-03:32:57|50=vpft1001|60=20240129-03:32:57|263=0|453=1|448=AD|447=C|452=7|710=20180208RPy4sn1ygt7d|715=20240129|724=1|10=233|
8=FIXT.1.1|9=160|35=AN|49=VP|56=IDX|34=200|43=N|52=20240129-03:33:17|50=vpft1001|60=20240129-03:33:17|263=0|453=1|448=AD|447=C|452=7|710=20180208RPy4sn1ygt7d|715=20240129|724=1|10=210|
8=FIXT.1.1|9=160|35=AN|49=VP|56=IDX|34=201|43=N|52=20240129-03:33:37|50=vpft1001|60=20240129-03:33:37|263=0|453=1|448=AD|447=C|452=7|710=20180208RPy4sn1ygt7d|715=20240129|724=1|10=215|
8=FIXT.1.1|9=160|35=AN|49=VP|56=IDX|34=202|43=N|52=20240129-03:33:57|50=vpft1001|60=20240129-03:33:57|263=0|453=1|448=AD|447=C|452=7|710=20180208RPy4sn1ygt7d|715=20240129|724=1|10=220|
8=FIXT.1.1|9=160|35=AN|49=VP|56=IDX|34=203|43=N|52=20240129-03:34:17|50=vpft1001|60=20240129-03:34:17|263=0|453=1|448=AD|447=C|452=7|710=20180208RPy4sn1ygt7d|715=20240129|724=1|10=215|
8=FIXT.1.1|9=160|35=AN|49=VP|56=IDX|34=204|43=N|52=20240129-03:34:37|50=vpft1001|60=20240129-03:34:37|263=0|453=1|448=AD|447=C|452=7|710=20180208RPy4sn1ygt7d|715=20240129|724=1|10=220|
8=FIXT.1.1|9=160|35=AN|49=VP|56=IDX|34=205|43=N|52=20240129-03:34:57|50=vpft1001|60=20240129-03:34:57|263=0|453=1|448=AD|447=C|452=7|710=20180208RPy4sn1ygt7d|715=20240129|724=1|10=225|
8=FIXT.1.1|9=160|35=AN|49=VP|56=IDX|34=206|43=N|52=20240129-03:35:17|50=vpft1001|60=20240129-03:35:17|263=0|453=1|448=AD|447=C|452=7|710=20180208RPy4sn1ygt7d|715=20240129|724=1|10=220|
8=FIXT.1.1|9=160|35=AN|49=VP|56=IDX|34=207|43=N|52=20240129-03:35:37|50=vpft1001|60=20240129-03:35:37|263=0|453=1|448=AD|447=C|452=7|710=20180208RPy4sn1ygt7d|715=20240129|724=1|10=225|
8=FIXT.1.1|9=160|35=AN|49=VP|56=IDX|34=208|43=N|52=20240129-03:35:57|50=vpft1001|60=20240129-03:35:57|263=0|453=1|448=AD|447=C|452=7|710=20180208RPy4sn1ygt7d|715=20240129|724=1|10=230|
8=FIXT.1.1|9=160|35=AN|49=VP|56=IDX|34=209|43=N|52=20240129-03:36:17|50=vpft1001|60=20240129-03:36:17|263=0|453=1|448=AD|447=C|452=7|710=20180208RPy4sn1ygt7d|715=20240129|724=1|10=225|
8=FIXT.1.1|9=160|35=AN|49=VP|56=IDX|34=210|43=N|52=20240129-03:36:37|50=vpft1001|60=20240129-03:36:37|263=0|453=1|448=AD|447=C|452=7|710=20180208RPy4sn1ygt7d|715=20240129|724=1|10=221|
8=FIXT.1.1|9=160|35=AN|49=VP|56=IDX|34=211|43=N|52=20240129-03:36:57|50=vpft1001|60=20240129-03:36:57|263=0|453=1|448=AD|447=C|452=7|710=20180208RPy4sn1ygt7d|715=20240129|724=1|10=226|
8=FIXT.1.1|9=160|35=AN|49=VP|56=IDX|34=212|43=N|52=20240129-03:37:17|50=vpft1001|60=20240129-03:37:17|263=0|453=1|448=AD|447=C|452=7|710=20180208RPy4sn1ygt7d|715=20240129|724=1|10=221|
8=FIXT.1.1|9=160|35=AN|49=VP|56=IDX|34=213|43=N|52=20240129-03:37:37|50=vpft1001|60=20240129-03:37:37|263=0|453=1|448=AD|447=C|452=7|710=20180208RPy4sn1ygt7d|715=20240129|724=1|10=226|
8=FIXT.1.1|9=160|35=AN|49=VP|56=IDX|34=214|43=N|52=20240129-03:37:57|50=vpft1001|60=20240129-03:37:57|263=0|453=1|448=AD|447=C|452=7|710=20180208RPy4sn1ygt7d|715=20240129|724=1|10=231|
8=FIXT.1.1|9=160|35=AN|49=VP|56=IDX|34=215|43=N|52=20240129-03:38:17|50=vpft1001|60=20240129-03:38:17|263=0|453=1|448=AD|447=C|452=7|710=20180208RPy4sn1ygt7d|715=20240129|724=1|10=226|
8=FIXT.1.1|9=160|35=AN|49=VP|56=IDX|34=216|43=N|52=20240129-03:38:37|50=vpft1001|60=20240129-03:38:37|263=0|453=1|448=AD|447=C|452=7|710=20180208RPy4sn1ygt7d|715=20240129|724=1|10=231|
8=FIXT.1.1|9=160|35=AN|49=VP|56=IDX|34=217|43=N|52=20240129-03:38:57|50=vpft1001|60=20240129-03:38:57|263=0|453=1|448=AD|447=C|452=7|710=20180208RPy4sn1ygt7d|715=20240129|724=1|10=236|
8=FIXT.1.1|9=160|35=AN|49=VP|56=IDX|34=218|43=N|52=20240129-03:39:17|50=vpft1001|60=20240129-03:39:17|263=0|453=1|448=AD|447=C|452=7|710=20180208RPy4sn1ygt7d|715=20240129|724=1|10=231|
8=FIXT.1.1|9=160|35=AN|49=VP|56=IDX|34=219|43=N|52=20240129-03:39:37|50=vpft1001|60=20240129-03:39:37|263=0|453=1|448=AD|447=C|452=7|710=20180208RPy4sn1ygt7d|715=20240129|724=1|10=236|
8=FIXT.1.1|9=160|35=AN|49=VP|56=IDX|34=220|43=N|52=20240129-03:39:57|50=vpft1001|60=20240129-03:39:57|263=0|453=1|448=AD|447=C|452=7|710=20180208RPy4sn1ygt7d|715=20240129|724=1|10=232|
8=FIXT.1.1|9=160|35=AN|49=VP|56=IDX|34=221|43=N|52=20240129-03:40:17|50=vpft1001|60=20240129-03:40:17|263=0|453=1|448=AD|447=C|452=7|710=20180208RPy4sn1ygt7d|715=20240129|724=1|10=209|
8=FIXT.1.1|9=160|35=AN|49=VP|56=IDX|34=222|43=N|52=20240129-03:40:37|50=vpft1001|60=20240129-03:40:37|263=0|453=1|448=AD|447=C|452=7|710=20180208RPy4sn1ygt7d|715=20240129|724=1|10=214|
8=FIXT.1.1|9=160|35=AN|49=VP|56=IDX|34=223|43=N|52=20240129-03:40:57|50=vpft1001|60=20240129-03:40:57|263=0|453=1|448=AD|447=C|452=7|710=20180208RPy4sn1ygt7d|715=20240129|724=1|10=219|
8=FIXT.1.1|9=160|35=AN|49=VP|56=IDX|34=224|43=N|52=20240129-03:41:17|50=vpft1001|60=20240129-03:41:17|263=0|453=1|448=AD|447=C|452=7|710=20180208RPy4sn1ygt7d|715=20240129|724=1|10=214|
8=FIXT.1.1|9=160|35=AN|49=VP|56=IDX|34=225|43=N|52=20240129-03:41:37|50=vpft1001|60=20240129-03:41:37|263=0|453=1|448=AD|447=C|452=7|710=20180208RPy4sn1ygt7d|715=20240129|724=1|10=219|
8=FIXT.1.1|9=160|35=AN|49=VP|56=IDX|34=226|43=N|52=20240129-03:41:57|50=vpft1001|60=20240129-03:41:57|263=0|453=1|448=AD|447=C|452=7|710=20180208RPy4sn1ygt7d|715=20240129|724=1|10=224|
8=FIXT.1.1|9=160|35=AN|49=VP|56=IDX|34=227|43=N|52=20240129-03:42:17|50=vpft1001|60=20240129-03:42:17|263=0|453=1|448=AD|447=C|452=7|710=20180208RPy4sn1ygt7d|715=20240129|724=1|10=219|
8=FIXT.1.1|9=160|35=AN|49=VP|56=IDX|34=228|43=N|52=20240129-03:42:37|50=vpft1001|60=20240129-03:42:37|263=0|453=1|448=AD|447=C|452=7|710=20180208RPy4sn1ygt7d|715=20240129|724=1|10=224|
8=FIXT.1.1|9=160|35=AN|49=VP|56=IDX|34=229|43=N|52=20240129-03:42:57|50=vpft1001|60=20240129-03:42:57|263=0|453=1|448=AD|447=C|452=7|710=20180208RPy4sn1ygt7d|715=20240129|724=1|10=229|
8=FIXT.1.1|9=160|35=AN|49=VP|56=IDX|34=230|43=N|52=20240129-03:43:17|50=vpft1001|60=20240129-03:43:17|263=0|453=1|448=AD|447=C|452=7|710=20180208RPy4sn1ygt7d|715=20240129|724=1|10=215|
8=FIXT.1.1|9=160|35=AN|49=VP|56=IDX|34=231|43=N|52=20240129-03:43:37|50=vpft1001|60=20240129-03:43:37|263=0|453=1|448=AD|447=C|452=7|710=20180208RPy4sn1ygt7d|715=20240129|724=1|10=220|
8=FIXT.1.1|9=160|35=AN|49=VP|56=IDX|34=232|43=N|52=20240129-03:43:57|50=vpft1001|60=20240129-03:43:57|263=0|453=1|448=AD|447=C|452=7|710=20180208RPy4sn1ygt7d|715=20240129|724=1|10=225|
8=FIXT.1.1|9=160|35=AN|49=VP|56=IDX|34=233|43=N|52=20240129-03:44:17|50=vpft1001|60=20240129-03:44:17|263=0|453=1|448=AD|447=C|452=7|710=20180208RPy4sn1ygt7d|715=20240129|724=1|10=220|
8=FIXT.1.1|9=160|35=AN|49=VP|56=IDX|34=234|43=N|52=20240129-03:44:37|50=vpft1001|60=20240129-03:44:37|263=0|453=1|448=AD|447=C|452=7|710=20180208RPy4sn1ygt7d|715=20240129|724=1|10=225|
8=FIXT.1.1|9=160|35=AN|49=VP|56=IDX|34=235|43=N|52=20240129-03:44:57|50=vpft1001|60=20240129-03:44:57|263=0|453=1|448=AD|447=C|452=7|710=20180208RPy4sn1ygt7d|715=20240129|724=1|10=230|
8=FIXT.1.1|9=160|35=AN|49=VP|56=IDX|34=236|43=N|52=20240129-03:45:17|50=vpft1001|60=20240129-03:45:17|263=0|453=1|448=AD|447=C|452=7|710=20180208RPy4sn1ygt7d|715=20240129|724=1|10=225|
8=FIXT.1.1|9=160|35=AN|49=VP|56=IDX|34=237|43=N|52=20240129-03:45:37|50=vpft1001|60=20240129-03:45:37|263=0|453=1|448=AD|447=C|452=7|710=20180208RPy4sn1ygt7d|715=20240129|724=1|10=230|
8=FIXT.1.1|9=160|35=AN|49=VP|56=IDX|34=238|43=N|52=20240129-03:45:57|50=vpft1001|60=20240129-03:45:57|263=0|453=1|448=AD|447=C|452=7|710=20180208RPy4sn1ygt7d|715=20240129|724=1|10=235|
8=FIXT.1.1|9=160|35=AN|49=VP|56=IDX|34=239|43=N|52=20240129-03:46:17|50=vpft1001|60=20240129-03:46:17|263=0|453=1|448=AD|447=C|452=7|710=20180208RPy4sn1ygt7d|715=20240129|724=1|10=230|
8=FIXT.1.1|9=160|35=AN|49=VP|56=IDX|34=240|43=N|52=20240129-03:46:37|50=vpft1001|60=20240129-03:46:37|263=0|453=1|448=AD|447=C|452=7|710=20180208RPy4sn1ygt7d|715=20240129|724=1|10=226|
8=FIXT.1.1|9=160|35=AN|49=VP|56=IDX|34=241|43=N|52=20240129-03:46:57|50=vpft1001|60=20240129-03:46:57|263=0|453=1|448=AD|447=C|452=7|710=20180208RPy4sn1ygt7d|715=20240129|724=1|10=231|
8=FIXT.1.1|9=160|35=AN|49=VP|56=IDX|34=242|43=N|52=20240129-03:47:17|50=vpft1001|60=20240129-03:47:17|263=0|453=1|448=AD|447=C|452=7|710=20180208RPy4sn1ygt7d|715=20240129|724=1|10=226|
8=FIXT.1.1|9=160|35=AN|49=VP|56=IDX|34=243|43=N|52=20240129-03:47:37|50=vpft1001|60=20240129-03:47:37|263=0|453=1|448=AD|447=C|452=7|710=20180208RPy4sn1ygt7d|715=20240129|724=1|10=231|
8=FIXT.1.1|9=160|35=AN|49=VP|56=IDX|34=244|43=N|52=20240129-03:47:57|50=vpft1001|60=20240129-03:47:57|263=0|453=1|448=AD|447=C|452=7|710=20180208RPy4sn1ygt7d|715=20240129|724=1|10=236|
8=FIXT.1.1|9=160|35=AN|49=VP|56=IDX|34=245|43=N|52=20240129-03:48:17|50=vpft1001|60=20240129-03:48:17|263=0|453=1|448=AD|447=C|452=7|710=20180208RPy4sn1ygt7d|715=20240129|724=1|10=231|
8=FIXT.1.1|9=160|35=AN|49=VP|56=IDX|34=246|43=N|52=20240129-03:48:37|50=vpft1001|60=20240129-03:48:37|263=0|453=1|448=AD|447=C|452=7|710=20180208RPy4sn1ygt7d|715=20240129|724=1|10=236|
8=FIXT.1.1|9=160|35=AN|49=VP|56=IDX|34=247|43=N|52=20240129-03:48:57|50=vpft1001|60=20240129-03:48:57|263=0|453=1|448=AD|447=C|452=7|710=20180208RPy4sn1ygt7d|715=20240129|724=1|10=241|
8=FIXT.1.1|9=160|35=AN|49=VP|56=IDX|34=248|43=N|52=20240129-03:49:17|50=vpft1001|60=20240129-03:49:17|263=0|453=1|448=AD|447=C|452=7|710=20180208RPy4sn1ygt7d|715=20240129|724=1|10=236|
8=FIXT.1.1|9=160|35=AN|49=VP|56=IDX|34=249|43=N|52=20240129-03:49:37|50=vpft1001|60=20240129-03:49:37|263=0|453=1|448=AD|447=C|452=7|710=20180208RPy4sn1ygt7d|715=20240129|724=1|10=241|
8=FIXT.1.1|9=160|35=AN|49=VP|56=IDX|34=250|43=N|52=20240129-03:49:57|50=vpft1001|60=20240129-03:49:57|263=0|453=1|448=AD|447=C|452=7|710=20180208RPy4sn1ygt7d|715=20240129|724=1|10=237|
8=FIXT.1.1|9=160|35=AN|49=VP|56=IDX|34=251|43=N|52=20240129-03:50:17|50=vpft1001|60=20240129-03:50:17|263=0|453=1|448=AD|447=C|452=7|710=20180208RPy4sn1ygt7d|715=20240129|724=1|10=214|
8=FIXT.1.1|9=160|35=AN|49=VP|56=IDX|34=252|43=N|52=20240129-03:50:37|50=vpft1001|60=20240129-03:50:37|263=0|453=1|448=AD|447=C|452=7|710=20180208RPy4sn1ygt7d|715=20240129|724=1|10=219|
8=FIXT.1.1|9=160|35=AN|49=VP|56=IDX|34=253|43=N|52=20240129-03:50:57|50=vpft1001|60=20240129-03:50:57|263=0|453=1|448=AD|447=C|452=7|710=20180208RPy4sn1ygt7d|715=20240129|724=1|10=224|
8=FIXT.1.1|9=160|35=AN|49=VP|56=IDX|34=254|43=N|52=20240129-03:51:17|50=vpft1001|60=20240129-03:51:17|263=0|453=1|448=AD|447=C|452=7|710=20180208RPy4sn1ygt7d|715=20240129|724=1|10=219|
8=FIXT.1.1|9=160|35=AN|49=VP|56=IDX|34=255|43=N|52=20240129-03:51:37|50=vpft1001|60=20240129-03:51:37|263=0|453=1|448=AD|447=C|452=7|710=20180208RPy4sn1ygt7d|715=20240129|724=1|10=224|
8=FIXT.1.1|9=160|35=AN|49=VP|56=IDX|34=256|43=N|52=20240129-03:51:57|50=vpft1001|60=20240129-03:51:57|263=0|453=1|448=AD|447=C|452=7|710=20180208RPy4sn1ygt7d|715=20240129|724=1|10=229|
8=FIXT.1.1|9=160|35=AN|49=VP|56=IDX|34=257|43=N|52=20240129-03:52:17|50=vpft1001|60=20240129-03:52:17|263=0|453=1|448=AD|447=C|452=7|710=20180208RPy4sn1ygt7d|715=20240129|724=1|10=224|
8=FIXT.1.1|9=160|35=AN|49=VP|56=IDX|34=258|43=N|52=20240129-03:52:37|50=vpft1001|60=20240129-03:52:37|263=0|453=1|448=AD|447=C|452=7|710=20180208RPy4sn1ygt7d|715=20240129|724=1|10=229|
8=FIXT.1.1|9=160|35=AN|49=VP|56=IDX|34=259|43=N|52=20240129-03:52:57|50=vpft1001|60=20240129-03:52:57|263=0|453=1|448=AD|447=C|452=7|710=20180208RPy4sn1ygt7d|715=20240129|724=1|10=234|
8=FIXT.1.1|9=160|35=AN|49=VP|56=IDX|34=260|43=N|52=20240129-03:53:17|50=vpft1001|60=20240129-03:53:17|263=0|453=1|448=AD|447=C|452=7|710=20180208RPy4sn1ygt7d|715=20240129|724=1|10=220|
8=FIXT.1.1|9=160|35=AN|49=VP|56=IDX|34=261|43=N|52=20240129-03:53:37|50=vpft1001|60=20240129-03:53:37|263=0|453=1|448=AD|447=C|452=7|710=20180208RPy4sn1ygt7d|715=20240129|724=1|10=225|
8=FIXT.1.1|9=160|35=AN|49=VP|56=IDX|34=262|43=N|52=20240129-03:53:57|50=vpft1001|60=20240129-03:53:57|263=0|453=1|448=AD|447=C|452=7|710=20180208RPy4sn1ygt7d|715=20240129|724=1|10=230|
8=FIXT.1.1|9=160|35=AN|49=VP|56=IDX|34=263|43=N|52=20240129-03:54:17|50=vpft1001|60=20240129-03:54:17|263=0|453=1|448=AD|447=C|452=7|710=20180208RPy4sn1ygt7d|715=20240129|724=1|10=225|
8=FIXT.1.1|9=259|35=AE|49=VP|56=IDX|34=264|43=N|52=20240129-03:54:26|50=vpft1001|31=3200|32=100|55=TLKM|552=2|54=1|581=1|453=2|448=99999|447=C|452=5|448=AD|447=C|452=5|54=2|581=1|453=2|448=null|447=C|452=37|448=AG|447=C|452=17|571=235325q35q4646|572=ABC123|762=NG|856=3|919=1|10=220|
8=FIXT.1.1|9=98|35=A|49=VP|56=IDX|34=265|43=N|52=20240129-03:54:29|98=0|108=15|553=vpfc1001|554=jakarta123|1137=8|10=093|
8=FIXT.1.1|9=86|35=4|49=VP|56=IDX|34=167|43=Y|52=20240129-03:54:29|122=20240129-03:54:29|123=Y|36=270|10=011|
8=FIXT.1.1|9=160|35=AN|49=VP|56=IDX|34=270|43=N|52=20240129-03:54:37|50=vpft1001|60=20240129-03:54:37|263=0|453=1|448=AD|447=C|452=7|710=20180208RPy4sn1ygt7d|715=20240129|724=1|10=227|
8=FIXT.1.1|9=185|35=D|49=VP|56=IDX|34=271|43=N|52=20240129-03:54:46|50=vpft1001|11=IzBzaC1wjRB4JojpcuXF|38=2|40=2|44=50000|54=5|55=ANTM|59=0|60=20240129-03:54:46|453=1|448=1000|447=C|452=5|581=1|762=RG|10=158|
8=FIXT.1.1|9=160|35=AN|49=VP|56=IDX|34=272|43=N|52=20240129-03:54:57|50=vpft1001|60=20240129-03:54:57|263=0|453=1|448=AD|447=C|452=7|710=20180208RPy4sn1ygt7d|715=20240129|724=1|10=233|
8=FIXT.1.1|9=160|35=AN|49=VP|56=IDX|34=273|43=N|52=20240129-03:55:17|50=vpft1001|60=20240129-03:55:17|263=0|453=1|448=AD|447=C|452=7|710=20180208RPy4sn1ygt7d|715=20240129|724=1|10=228|
8=FIXT.1.1|9=160|35=AN|49=VP|56=IDX|34=274|43=N|52=20240129-03:55:37|50=vpft1001|60=20240129-03:55:37|263=0|453=1|448=AD|447=C|452=7|710=20180208RPy4sn1ygt7d|715=20240129|724=1|10=233|
8=FIXT.1.1|9=160|35=AN|49=VP|56=IDX|34=275|43=N|52=20240129-03:55:57|50=vpft1001|60=20240129-03:55:57|263=0|453=1|448=AD|447=C|452=7|710=20180208RPy4sn1ygt7d|715=20240129|724=1|10=238|
8=FIXT.1.1|9=160|35=AN|49=VP|56=IDX|34=276|43=N|52=20240129-03:56:17|50=vpft1001|60=20240129-03:56:17|263=0|453=1|448=AD|447=C|452=7|710=20180208RPy4sn1ygt7d|715=20240129|724=1|10=233|
8=FIXT.1.1|9=160|35=AN|49=VP|56=IDX|34=277|43=N|52=20240129-03:56:37|50=vpft1001|60=20240129-03:56:37|263=0|453=1|448=AD|447=C|452=7|710=20180208RPy4sn1ygt7d|715=20240129|724=1|10=238|
8=FIXT.1.1|9=160|35=AN|49=VP|56=IDX|34=278|43=N|52=20240129-03:56:57|50=vpft1001|60=20240129-03:56:57|263=0|453=1|448=AD|447=C|452=7|710=20180208RPy4sn1ygt7d|715=20240129|724=1|10=243|
8=FIXT.1.1|9=160|35=AN|49=VP|56=IDX|34=279|43=N|52=20240129-03:57:17|50=vpft1001|60=20240129-03:57:17|263=0|453=1|448=AD|447=C|452=7|710=20180208RPy4sn1ygt7d|715=20240129|724=1|10=238|
8=FIXT.1.1|9=160|35=AN|49=VP|56=IDX|34=280|43=N|52=20240129-03:57:37|50=vpft1001|60=20240129-03:57:37|263=0|453=1|448=AD|447=C|452=7|710=20180208RPy4sn1ygt7d|715=20240129|724=1|10=234|
8=FIXT.1.1|9=160|35=AN|49=VP|56=IDX|34=281|43=N|52=20240129-03:57:57|50=vpft1001|60=20240129-03:57:57|263=0|453=1|448=AD|447=C|452=7|710=20180208RPy4sn1ygt7d|715=20240129|724=1|10=239|
8=FIXT.1.1|9=160|35=AN|49=VP|56=IDX|34=282|43=N|52=20240129-03:58:17|50=vpft1001|60=20240129-03:58:17|263=0|453=1|448=AD|447=C|452=7|710=20180208RPy4sn1ygt7d|715=20240129|724=1|10=234|
8=FIXT.1.1|9=160|35=AN|49=VP|56=IDX|34=283|43=N|52=20240129-03:58:37|50=vpft1001|60=20240129-03:58:37|263=0|453=1|448=AD|447=C|452=7|710=20180208RPy4sn1ygt7d|715=20240129|724=1|10=239|
8=FIXT.1.1|9=160|35=AN|49=VP|56=IDX|34=284|43=N|52=20240129-03:58:57|50=vpft1001|60=20240129-03:58:57|263=0|453=1|448=AD|447=C|452=7|710=20180208RPy4sn1ygt7d|715=20240129|724=1|10=244|
8=FIXT.1.1|9=160|35=AN|49=VP|56=IDX|34=285|43=N|52=20240129-03:59:17|50=vpft1001|60=20240129-03:59:17|263=0|453=1|448=AD|447=C|452=7|710=20180208RPy4sn1ygt7d|715=20240129|724=1|10=239|
8=FIXT.1.1|9=160|35=AN|49=VP|56=IDX|34=286|43=N|52=20240129-03:59:37|50=vpft1001|60=20240129-03:59:37|263=0|453=1|448=AD|447=C|452=7|710=20180208RPy4sn1ygt7d|715=20240129|724=1|10=244|
8=FIXT.1.1|9=160|35=AN|49=VP|56=IDX|34=287|43=N|52=20240129-03:59:57|50=vpft1001|60=20240129-03:59:57|263=0|453=1|448=AD|447=C|452=7|710=20180208RPy4sn1ygt7d|715=20240129|724=1|10=249|
8=FIXT.1.1|9=160|35=AN|49=VP|56=IDX|34=288|43=N|52=20240129-04:00:17|50=vpft1001|60=20240129-04:00:17|263=0|453=1|448=AD|447=C|452=7|710=20180208RPy4sn1ygt7d|715=20240129|724=1|10=216|
8=FIXT.1.1|9=160|35=AN|49=VP|56=IDX|34=289|43=N|52=20240129-04:00:37|50=vpft1001|60=20240129-04:00:37|263=0|453=1|448=AD|447=C|452=7|710=20180208RPy4sn1ygt7d|715=20240129|724=1|10=221|
8=FIXT.1.1|9=160|35=AN|49=VP|56=IDX|34=290|43=N|52=20240129-04:00:57|50=vpft1001|60=20240129-04:00:57|263=0|453=1|448=AD|447=C|452=7|710=20180208RPy4sn1ygt7d|715=20240129|724=1|10=217|
8=FIXT.1.1|9=160|35=AN|49=VP|56=IDX|34=291|43=N|52=20240129-04:01:17|50=vpft1001|60=20240129-04:01:17|263=0|453=1|448=AD|447=C|452=7|710=20180208RPy4sn1ygt7d|715=20240129|724=1|10=212|
8=FIXT.1.1|9=160|35=AN|49=VP|56=IDX|34=292|43=N|52=20240129-04:01:37|50=vpft1001|60=20240129-04:01:37|263=0|453=1|448=AD|447=C|452=7|710=20180208RPy4sn1ygt7d|715=20240129|724=1|10=217|
8=FIXT.1.1|9=160|35=AN|49=VP|56=IDX|34=293|43=N|52=20240129-04:01:57|50=vpft1001|60=20240129-04:01:57|263=0|453=1|448=AD|447=C|452=7|710=20180208RPy4sn1ygt7d|715=20240129|724=1|10=222|
8=FIXT.1.1|9=160|35=AN|49=VP|56=IDX|34=294|43=N|52=20240129-04:02:17|50=vpft1001|60=20240129-04:02:17|263=0|453=1|448=AD|447=C|452=7|710=20180208RPy4sn1ygt7d|715=20240129|724=1|10=217|
8=FIXT.1.1|9=160|35=AN|49=VP|56=IDX|34=295|43=N|52=20240129-04:02:37|50=vpft1001|60=20240129-04:02:37|263=0|453=1|448=AD|447=C|452=7|710=20180208RPy4sn1ygt7d|715=20240129|724=1|10=222|
8=FIXT.1.1|9=160|35=AN|49=VP|56=IDX|34=296|43=N|52=20240129-04:02:57|50=vpft1001|60=20240129-04:02:57|263=0|453=1|448=AD|447=C|452=7|710=20180208RPy4sn1ygt7d|715=20240129|724=1|10=227|
8=FIXT.1.1|9=160|35=AN|49=VP|56=IDX|34=297|43=N|52=20240129-04:03:17|50=vpft1001|60=20240129-04:03:17|263=0|453=1|448=AD|447=C|452=7|710=20180208RPy4sn1ygt7d|715=20240129|724=1|10=222|
8=FIXT.1.1|9=160|35=AN|49=VP|56=IDX|34=298|43=N|52=20240129-04:03:37|50=vpft1001|60=20240129-04:03:37|263=0|453=1|448=AD|447=C|452=7|710=20180208RPy4sn1ygt7d|715=20240129|724=1|10=227|
8=FIXT.1.1|9=160|35=AN|49=VP|56=IDX|34=299|43=N|52=20240129-04:03:57|50=vpft1001|60=20240129-04:03:57|263=0|453=1|448=AD|447=C|452=7|710=20180208RPy4sn1ygt7d|715=20240129|724=1|10=232|
8=FIXT.1.1|9=160|35=AN|49=VP|56=IDX|34=300|43=N|52=20240129-04:04:17|50=vpft1001|60=20240129-04:04:17|263=0|453=1|448=AD|447=C|452=7|710=20180208RPy4sn1ygt7d|715=20240129|724=1|10=209|
8=FIXT.1.1|9=160|35=AN|49=VP|56=IDX|34=301|43=N|52=20240129-04:04:37|50=vpft1001|60=20240129-04:04:37|263=0|453=1|448=AD|447=C|452=7|710=20180208RPy4sn1ygt7d|715=20240129|724=1|10=214|
8=FIXT.1.1|9=160|35=AN|49=VP|56=IDX|34=302|43=N|52=20240129-04:04:57|50=vpft1001|60=20240129-04:04:57|263=0|453=1|448=AD|447=C|452=7|710=20180208RPy4sn1ygt7d|715=20240129|724=1|10=219|
8=FIXT.1.1|9=160|35=AN|49=VP|56=IDX|34=303|43=N|52=20240129-04:05:17|50=vpft1001|60=20240129-04:05:17|263=0|453=1|448=AD|447=C|452=7|710=20180208RPy4sn1ygt7d|715=20240129|724=1|10=214|
8=FIXT.1.1|9=160|35=AN|49=VP|56=IDX|34=304|43=N|52=20240129-04:05:37|50=vpft1001|60=20240129-04:05:37|263=0|453=1|448=AD|447=C|452=7|710=20180208RPy4sn1ygt7d|715=20240129|724=1|10=219|
8=FIXT.1.1|9=160|35=AN|49=VP|56=IDX|34=305|43=N|52=20240129-04:05:57|50=vpft1001|60=20240129-04:05:57|263=0|453=1|448=AD|447=C|452=7|710=20180208RPy4sn1ygt7d|715=20240129|724=1|10=224|
8=FIXT.1.1|9=160|35=AN|49=VP|56=IDX|34=306|43=N|52=20240129-04:06:17|50=vpft1001|60=20240129-04:06:17|263=0|453=1|448=AD|447=C|452=7|710=20180208RPy4sn1ygt7d|715=20240129|724=1|10=219|
8=FIXT.1.1|9=160|35=AN|49=VP|56=IDX|34=307|43=N|52=20240129-04:06:37|50=vpft1001|60=20240129-04:06:37|263=0|453=1|448=AD|447=C|452=7|710=20180208RPy4sn1ygt7d|715=20240129|724=1|10=224|
8=FIXT.1.1|9=160|35=AN|49=VP|56=IDX|34=308|43=N|52=20240129-04:06:57|50=vpft1001|60=20240129-04:06:57|263=0|453=1|448=AD|447=C|452=7|710=20180208RPy4sn1ygt7d|715=20240129|724=1|10=229|
8=FIXT.1.1|9=160|35=AN|49=VP|56=IDX|34=309|43=N|52=20240129-04:07:17|50=vpft1001|60=20240129-04:07:17|263=0|453=1|448=AD|447=C|452=7|710=20180208RPy4sn1ygt7d|715=20240129|724=1|10=224|
8=FIXT.1.1|9=160|35=AN|49=VP|56=IDX|34=310|43=N|52=20240129-04:07:37|50=vpft1001|60=20240129-04:07:37|263=0|453=1|448=AD|447=C|452=7|710=20180208RPy4sn1ygt7d|715=20240129|724=1|10=220|
8=FIXT.1.1|9=160|35=AN|49=VP|56=IDX|34=311|43=N|52=20240129-04:07:57|50=vpft1001|60=20240129-04:07:57|263=0|453=1|448=AD|447=C|452=7|710=20180208RPy4sn1ygt7d|715=20240129|724=1|10=225|
8=FIXT.1.1|9=160|35=AN|49=VP|56=IDX|34=312|43=N|52=20240129-04:08:17|50=vpft1001|60=20240129-04:08:17|263=0|453=1|448=AD|447=C|452=7|710=20180208RPy4sn1ygt7d|715=20240129|724=1|10=220|
8=FIXT.1.1|9=160|35=AN|49=VP|56=IDX|34=313|43=N|52=20240129-04:08:37|50=vpft1001|60=20240129-04:08:37|263=0|453=1|448=AD|447=C|452=7|710=20180208RPy4sn1ygt7d|715=20240129|724=1|10=225|
8=FIXT.1.1|9=160|35=AN|49=VP|56=IDX|34=314|43=N|52=20240129-04:08:57|50=vpft1001|60=20240129-04:08:57|263=0|453=1|448=AD|447=C|452=7|710=20180208RPy4sn1ygt7d|715=20240129|724=1|10=230|
8=FIXT.1.1|9=160|35=AN|49=VP|56=IDX|34=315|43=N|52=20240129-04:09:17|50=vpft1001|60=20240129-04:09:17|263=0|453=1|448=AD|447=C|452=7|710=20180208RPy4sn1ygt7d|715=20240129|724=1|10=225|
8=FIXT.1.1|9=160|35=AN|49=VP|56=IDX|34=316|43=N|52=20240129-04:09:37|50=vpft1001|60=20240129-04:09:37|263=0|453=1|448=AD|447=C|452=7|710=20180208RPy4sn1ygt7d|715=20240129|724=1|10=230|
8=FIXT.1.1|9=160|35=AN|49=VP|56=IDX|34=317|43=N|52=20240129-04:09:57|50=vpft1001|60=20240129-04:09:57|263=0|453=1|448=AD|447=C|452=7|710=20180208RPy4sn1ygt7d|715=20240129|724=1|10=235|
8=FIXT.1.1|9=160|35=AN|49=VP|56=IDX|34=318|43=N|52=20240129-04:10:17|50=vpft1001|60=20240129-04:10:17|263=0|453=1|448=AD|447=C|452=7|710=20180208RPy4sn1ygt7d|715=20240129|724=1|10=212|
8=FIXT.1.1|9=160|35=AN|49=VP|56=IDX|34=319|43=N|52=20240129-04:10:37|50=vpft1001|60=20240129-04:10:37|263=0|453=1|448=AD|447=C|452=7|710=20180208RPy4sn1ygt7d|715=20240129|724=1|10=217|
8=FIXT.1.1|9=160|35=AN|49=VP|56=IDX|34=320|43=N|52=20240129-04:10:57|50=vpft1001|60=20240129-04:10:57|263=0|453=1|448=AD|447=C|452=7|710=20180208RPy4sn1ygt7d|715=20240129|724=1|10=213|
8=FIXT.1.1|9=160|35=AN|49=VP|56=IDX|34=321|43=N|52=20240129-04:11:17|50=vpft1001|60=20240129-04:11:17|263=0|453=1|448=AD|447=C|452=7|710=20180208RPy4sn1ygt7d|715=20240129|724=1|10=208|
8=FIXT.1.1|9=160|35=AN|49=VP|56=IDX|34=322|43=N|52=20240129-04:11:37|50=vpft1001|60=20240129-04:11:37|263=0|453=1|448=AD|447=C|452=7|710=20180208RPy4sn1ygt7d|715=20240129|724=1|10=213|
8=FIXT.1.1|9=160|35=AN|49=VP|56=IDX|34=323|43=N|52=20240129-04:11:57|50=vpft1001|60=20240129-04:11:57|263=0|453=1|448=AD|447=C|452=7|710=20180208RPy4sn1ygt7d|715=20240129|724=1|10=218|
8=FIXT.1.1|9=160|35=AN|49=VP|56=IDX|34=324|43=N|52=20240129-04:12:17|50=vpft1001|60=20240129-04:12:17|263=0|453=1|448=AD|447=C|452=7|710=20180208RPy4sn1ygt7d|715=20240129|724=1|10=213|
8=FIXT.1.1|9=160|35=AN|49=VP|56=IDX|34=325|43=N|52=20240129-04:12:37|50=vpft1001|60=20240129-04:12:37|263=0|453=1|448=AD|447=C|452=7|710=20180208RPy4sn1ygt7d|715=20240129|724=1|10=218|
8=FIXT.1.1|9=160|35=AN|49=VP|56=IDX|34=326|43=N|52=20240129-04:12:57|50=vpft1001|60=20240129-04:12:57|263=0|453=1|448=AD|447=C|452=7|710=20180208RPy4sn1ygt7d|715=20240129|724=1|10=223|
8=FIXT.1.1|9=160|35=AN|49=VP|56=IDX|34=327|43=N|52=20240129-04:13:17|50=vpft1001|60=20240129-04:13:17|263=0|453=1|448=AD|447=C|452=7|710=20180208RPy4sn1ygt7d|715=20240129|724=1|10=218|
8=FIXT.1.1|9=160|35=AN|49=VP|56=IDX|34=328|43=N|52=20240129-04:13:37|50=vpft1001|60=20240129-04:13:37|263=0|453=1|448=AD|447=C|452=7|710=20180208RPy4sn1ygt7d|715=20240129|724=1|10=223|
8=FIXT.1.1|9=160|35=AN|49=VP|56=IDX|34=329|43=N|52=20240129-04:13:57|50=vpft1001|60=20240129-04:13:57|263=0|453=1|448=AD|447=C|452=7|710=20180208RPy4sn1ygt7d|715=20240129|724=1|10=228|
8=FIXT.1.1|9=160|35=AN|49=VP|56=IDX|34=330|43=N|52=20240129-04:14:17|50=vpft1001|60=20240129-04:14:17|263=0|453=1|448=AD|447=C|452=7|710=20180208RPy4sn1ygt7d|715=20240129|724=1|10=214|
8=FIXT.1.1|9=160|35=AN|49=VP|56=IDX|34=331|43=N|52=20240129-04:14:37|50=vpft1001|60=20240129-04:14:37|263=0|453=1|448=AD|447=C|452=7|710=20180208RPy4sn1ygt7d|715=20240129|724=1|10=219|
8=FIXT.1.1|9=160|35=AN|49=VP|56=IDX|34=332|43=N|52=20240129-04:14:57|50=vpft1001|60=20240129-04:14:57|263=0|453=1|448=AD|447=C|452=7|710=20180208RPy4sn1ygt7d|715=20240129|724=1|10=224|
8=FIXT.1.1|9=160|35=AN|49=VP|56=IDX|34=333|43=N|52=20240129-04:15:17|50=vpft1001|60=20240129-04:15:17|263=0|453=1|448=AD|447=C|452=7|710=20180208RPy4sn1ygt7d|715=20240129|724=1|10=219|
8=FIXT.1.1|9=160|35=AN|49=VP|56=IDX|34=334|43=N|52=20240129-04:15:37|50=vpft1001|60=20240129-04:15:37|263=0|453=1|448=AD|447=C|452=7|710=20180208RPy4sn1ygt7d|715=20240129|724=1|10=224|
8=FIXT.1.1|9=160|35=AN|49=VP|56=IDX|34=335|43=N|52=20240129-04:15:57|50=vpft1001|60=20240129-04:15:57|263=0|453=1|448=AD|447=C|452=7|710=20180208RPy4sn1ygt7d|715=20240129|724=1|10=229|
8=FIXT.1.1|9=160|35=AN|49=VP|56=IDX|34=336|43=N|52=20240129-04:16:17|50=vpft1001|60=20240129-04:16:17|263=0|453=1|448=AD|447=C|452=7|710=20180208RPy4sn1ygt7d|715=20240129|724=1|10=224|
8=FIXT.1.1|9=160|35=AN|49=VP|56=IDX|34=337|43=N|52=20240129-04:16:37|50=vpft1001|60=20240129-04:16:37|263=0|453=1|448=AD|447=C|452=7|710=20180208RPy4sn1ygt7d|715=20240129|724=1|10=229|
8=FIXT.1.1|9=160|35=AN|49=VP|56=IDX|34=338|43=N|52=20240129-04:16:57|50=vpft1001|60=20240129-04:16:57|263=0|453=1|448=AD|447=C|452=7|710=20180208RPy4sn1ygt7d|715=20240129|724=1|10=234|
8=FIXT.1.1|9=160|35=AN|49=VP|56=IDX|34=339|43=N|52=20240129-04:17:17|50=vpft1001|60=20240129-04:17:17|263=0|453=1|448=AD|447=C|452=7|710=20180208RPy4sn1ygt7d|715=20240129|724=1|10=229|
8=FIXT.1.1|9=160|35=AN|49=VP|56=IDX|34=340|43=N|52=20240129-04:17:37|50=vpft1001|60=20240129-04:17:37|263=0|453=1|448=AD|447=C|452=7|710=20180208RPy4sn1ygt7d|715=20240129|724=1|10=225|
8=FIXT.1.1|9=160|35=AN|49=VP|56=IDX|34=341|43=N|52=20240129-04:17:57|50=vpft1001|60=20240129-04:17:57|263=0|453=1|448=AD|447=C|452=7|710=20180208RPy4sn1ygt7d|715=20240129|724=1|10=230|
8=FIXT.1.1|9=160|35=AN|49=VP|56=IDX|34=342|43=N|52=20240129-04:18:17|50=vpft1001|60=20240129-04:18:17|263=0|453=1|448=AD|447=C|452=7|710=20180208RPy4sn1ygt7d|715=20240129|724=1|10=225|
8=FIXT.1.1|9=160|35=AN|49=VP|56=IDX|34=343|43=N|52=20240129-04:18:37|50=vpft1001|60=20240129-04:18:37|263=0|453=1|448=AD|447=C|452=7|710=20180208RPy4sn1ygt7d|715=20240129|724=1|10=230|
8=FIXT.1.1|9=160|35=AN|49=VP|56=IDX|34=344|43=N|52=20240129-04:18:57|50=vpft1001|60=20240129-04:18:57|263=0|453=1|448=AD|447=C|452=7|710=20180208RPy4sn1ygt7d|715=20240129|724=1|10=235|
8=FIXT.1.1|9=160|35=AN|49=VP|56=IDX|34=345|43=N|52=20240129-04:19:17|50=vpft1001|60=20240129-04:19:17|263=0|453=1|448=AD|447=C|452=7|710=20180208RPy4sn1ygt7d|715=20240129|724=1|10=230|
8=FIXT.1.1|9=160|35=AN|49=VP|56=IDX|34=346|43=N|52=20240129-04:19:37|50=vpft1001|60=20240129-04:19:37|263=0|453=1|448=AD|447=C|452=7|710=20180208RPy4sn1ygt7d|715=20240129|724=1|10=235|
8=FIXT.1.1|9=67|35=5|49=VP|56=IDX|34=347|52=20240129-04:19:55|58=confirming logout|10=243|
8=FIXT.1.1|9=160|35=AN|49=VP|56=IDX|34=348|43=N|52=20240129-04:19:57|50=vpft1001|60=20240129-04:19:57|263=0|453=1|448=AD|447=C|452=7|710=20180208RPy4sn1ygt7d|715=20240129|724=1|10=241|
8=FIXT.1.1|9=160|35=AN|49=VP|56=IDX|34=349|43=N|52=20240129-04:20:17|50=vpft1001|60=20240129-04:20:17|263=0|453=1|448=AD|447=C|452=7|710=20180208RPy4sn1ygt7d|715=20240129|724=1|10=218|
8=FIXT.1.1|9=160|35=AN|49=VP|56=IDX|34=350|43=N|52=20240129-04:20:37|50=vpft1001|60=20240129-04:20:37|263=0|453=1|448=AD|447=C|452=7|710=20180208RPy4sn1ygt7d|715=20240129|724=1|10=214|
8=FIXT.1.1|9=160|35=AN|49=VP|56=IDX|34=351|43=N|52=20240129-04:20:57|50=vpft1001|60=20240129-04:20:57|263=0|453=1|448=AD|447=C|452=7|710=20180208RPy4sn1ygt7d|715=20240129|724=1|10=219|
8=FIXT.1.1|9=160|35=AN|49=VP|56=IDX|34=352|43=N|52=20240129-04:21:17|50=vpft1001|60=20240129-04:21:17|263=0|453=1|448=AD|447=C|452=7|710=20180208RPy4sn1ygt7d|715=20240129|724=1|10=214|
8=FIXT.1.1|9=160|35=AN|49=VP|56=IDX|34=353|43=N|52=20240129-04:21:37|50=vpft1001|60=20240129-04:21:37|263=0|453=1|448=AD|447=C|452=7|710=20180208RPy4sn1ygt7d|715=20240129|724=1|10=219|
8=FIXT.1.1|9=160|35=AN|49=VP|56=IDX|34=354|43=N|52=20240129-04:21:57|50=vpft1001|60=20240129-04:21:57|263=0|453=1|448=AD|447=C|452=7|710=20180208RPy4sn1ygt7d|715=20240129|724=1|10=224|
8=FIXT.1.1|9=160|35=AN|49=VP|56=IDX|34=355|43=N|52=20240129-04:22:17|50=vpft1001|60=20240129-04:22:17|263=0|453=1|448=AD|447=C|452=7|710=20180208RPy4sn1ygt7d|715=20240129|724=1|10=219|
8=FIXT.1.1|9=160|35=AN|49=VP|56=IDX|34=356|43=N|52=20240129-04:22:37|50=vpft1001|60=20240129-04:22:37|263=0|453=1|448=AD|447=C|452=7|710=20180208RPy4sn1ygt7d|715=20240129|724=1|10=224|
8=FIXT.1.1|9=160|35=AN|49=VP|56=IDX|34=357|43=N|52=20240129-04:22:57|50=vpft1001|60=20240129-04:22:57|263=0|453=1|448=AD|447=C|452=7|710=20180208RPy4sn1ygt7d|715=20240129|724=1|10=229|
8=FIXT.1.1|9=160|35=AN|49=VP|56=IDX|34=358|43=N|52=20240129-04:23:17|50=vpft1001|60=20240129-04:23:17|263=0|453=1|448=AD|447=C|452=7|710=20180208RPy4sn1ygt7d|715=20240129|724=1|10=224|
8=FIXT.1.1|9=160|35=AN|49=VP|56=IDX|34=359|43=N|52=20240129-04:23:37|50=vpft1001|60=20240129-04:23:37|263=0|453=1|448=AD|447=C|452=7|710=20180208RPy4sn1ygt7d|715=20240129|724=1|10=229|
8=FIXT.1.1|9=160|35=AN|49=VP|56=IDX|34=360|43=N|52=20240129-04:23:57|50=vpft1001|60=20240129-04:23:57|263=0|453=1|448=AD|447=C|452=7|710=20180208RPy4sn1ygt7d|715=20240129|724=1|10=225|
8=FIXT.1.1|9=160|35=AN|49=VP|56=IDX|34=361|43=N|52=20240129-04:24:17|50=vpft1001|60=20240129-04:24:17|263=0|453=1|448=AD|447=C|452=7|710=20180208RPy4sn1ygt7d|715=20240129|724=1|10=220|
8=FIXT.1.1|9=160|35=AN|49=VP|56=IDX|34=362|43=N|52=20240129-04:24:37|50=vpft1001|60=20240129-04:24:37|263=0|453=1|448=AD|447=C|452=7|710=20180208RPy4sn1ygt7d|715=20240129|724=1|10=225|
8=FIXT.1.1|9=160|35=AN|49=VP|56=IDX|34=363|43=N|52=20240129-04:24:57|50=vpft1001|60=20240129-04:24:57|263=0|453=1|448=AD|447=C|452=7|710=20180208RPy4sn1ygt7d|715=20240129|724=1|10=230|
8=FIXT.1.1|9=160|35=AN|49=VP|56=IDX|34=364|43=N|52=20240129-04:25:17|50=vpft1001|60=20240129-04:25:17|263=0|453=1|448=AD|447=C|452=7|710=20180208RPy4sn1ygt7d|715=20240129|724=1|10=225|
8=FIXT.1.1|9=160|35=AN|49=VP|56=IDX|34=365|43=N|52=20240129-04:25:37|50=vpft1001|60=20240129-04:25:37|263=0|453=1|448=AD|447=C|452=7|710=20180208RPy4sn1ygt7d|715=20240129|724=1|10=230|
8=FIXT.1.1|9=160|35=AN|49=VP|56=IDX|34=366|43=N|52=20240129-04:25:57|50=vpft1001|60=20240129-04:25:57|263=0|453=1|448=AD|447=C|452=7|710=20180208RPy4sn1ygt7d|715=20240129|724=1|10=235|
8=FIXT.1.1|9=160|35=AN|49=VP|56=IDX|34=367|43=N|52=20240129-04:26:17|50=vpft1001|60=20240129-04:26:17|263=0|453=1|448=AD|447=C|452=7|710=20180208RPy4sn1ygt7d|715=20240129|724=1|10=230|
8=FIXT.1.1|9=160|35=AN|49=VP|56=IDX|34=368|43=N|52=20240129-04:26:37|50=vpft1001|60=20240129-04:26:37|263=0|453=1|448=AD|447=C|452=7|710=20180208RPy4sn1ygt7d|715=20240129|724=1|10=235|
8=FIXT.1.1|9=160|35=AN|49=VP|56=IDX|34=369|43=N|52=20240129-04:26:58|50=vpft1001|60=20240129-04:26:58|263=0|453=1|448=AD|447=C|452=7|710=20180208RPy4sn1ygt7d|715=20240129|724=1|10=242|
8=FIXT.1.1|9=160|35=AN|49=VP|56=IDX|34=370|43=N|52=20240129-04:27:18|50=vpft1001|60=20240129-04:27:18|263=0|453=1|448=AD|447=C|452=7|710=20180208RPy4sn1ygt7d|715=20240129|724=1|10=228|
8=FIXT.1.1|9=160|35=AN|49=VP|56=IDX|34=371|43=N|52=20240129-04:27:38|50=vpft1001|60=20240129-04:27:38|263=0|453=1|448=AD|447=C|452=7|710=20180208RPy4sn1ygt7d|715=20240129|724=1|10=233|
8=FIXT.1.1|9=160|35=AN|49=VP|56=IDX|34=372|43=N|52=20240129-04:27:58|50=vpft1001|60=20240129-04:27:58|263=0|453=1|448=AD|447=C|452=7|710=20180208RPy4sn1ygt7d|715=20240129|724=1|10=238|
8=FIXT.1.1|9=160|35=AN|49=VP|56=IDX|34=373|43=N|52=20240129-04:28:18|50=vpft1001|60=20240129-04:28:18|263=0|453=1|448=AD|447=C|452=7|710=20180208RPy4sn1ygt7d|715=20240129|724=1|10=233|
8=FIXT.1.1|9=160|35=AN|49=VP|56=IDX|34=374|43=N|52=20240129-04:28:38|50=vpft1001|60=20240129-04:28:38|263=0|453=1|448=AD|447=C|452=7|710=20180208RPy4sn1ygt7d|715=20240129|724=1|10=238|
8=FIXT.1.1|9=160|35=AN|49=VP|56=IDX|34=375|43=N|52=20240129-04:28:58|50=vpft1001|60=20240129-04:28:58|263=0|453=1|448=AD|447=C|452=7|710=20180208RPy4sn1ygt7d|715=20240129|724=1|10=243|
8=FIXT.1.1|9=160|35=AN|49=VP|56=IDX|34=376|43=N|52=20240129-04:29:18|50=vpft1001|60=20240129-04:29:18|263=0|453=1|448=AD|447=C|452=7|710=20180208RPy4sn1ygt7d|715=20240129|724=1|10=238|
8=FIXT.1.1|9=160|35=AN|49=VP|56=IDX|34=377|43=N|52=20240129-04:29:38|50=vpft1001|60=20240129-04:29:38|263=0|453=1|448=AD|447=C|452=7|710=20180208RPy4sn1ygt7d|715=20240129|724=1|10=243|
8=FIXT.1.1|9=160|35=AN|49=VP|56=IDX|34=378|43=N|52=20240129-04:29:58|50=vpft1001|60=20240129-04:29:58|263=0|453=1|448=AD|447=C|452=7|710=20180208RPy4sn1ygt7d|715=20240129|724=1|10=248|
8=FIXT.1.1|9=160|35=AN|49=VP|56=IDX|34=379|43=N|52=20240129-04:30:18|50=vpft1001|60=20240129-04:30:18|263=0|453=1|448=AD|447=C|452=7|710=20180208RPy4sn1ygt7d|715=20240129|724=1|10=225|
8=FIXT.1.1|9=160|35=AN|49=VP|56=IDX|34=380|43=N|52=20240129-04:30:38|50=vpft1001|60=20240129-04:30:38|263=0|453=1|448=AD|447=C|452=7|710=20180208RPy4sn1ygt7d|715=20240129|724=1|10=221|
8=FIXT.1.1|9=160|35=AN|49=VP|56=IDX|34=381|43=N|52=20240129-04:30:58|50=vpft1001|60=20240129-04:30:58|263=0|453=1|448=AD|447=C|452=7|710=20180208RPy4sn1ygt7d|715=20240129|724=1|10=226|
8=FIXT.1.1|9=160|35=AN|49=VP|56=IDX|34=382|43=N|52=20240129-04:31:18|50=vpft1001|60=20240129-04:31:18|263=0|453=1|448=AD|447=C|452=7|710=20180208RPy4sn1ygt7d|715=20240129|724=1|10=221|
8=FIXT.1.1|9=160|35=AN|49=VP|56=IDX|34=383|43=N|52=20240129-04:31:38|50=vpft1001|60=20240129-04:31:38|263=0|453=1|448=AD|447=C|452=7|710=20180208RPy4sn1ygt7d|715=20240129|724=1|10=226|
8=FIXT.1.1|9=160|35=AN|49=VP|56=IDX|34=384|43=N|52=20240129-04:31:58|50=vpft1001|60=20240129-04:31:58|263=0|453=1|448=AD|447=C|452=7|710=20180208RPy4sn1ygt7d|715=20240129|724=1|10=231|
8=FIXT.1.1|9=160|35=AN|49=VP|56=IDX|34=385|43=N|52=20240129-04:32:18|50=vpft1001|60=20240129-04:32:18|263=0|453=1|448=AD|447=C|452=7|710=20180208RPy4sn1ygt7d|715=20240129|724=1|10=226|
8=FIXT.1.1|9=160|35=AN|49=VP|56=IDX|34=386|43=N|52=20240129-04:32:38|50=vpft1001|60=20240129-04:32:38|263=0|453=1|448=AD|447=C|452=7|710=20180208RPy4sn1ygt7d|715=20240129|724=1|10=231|
8=FIXT.1.1|9=160|35=AN|49=VP|56=IDX|34=387|43=N|52=20240129-04:32:58|50=vpft1001|60=20240129-04:32:58|263=0|453=1|448=AD|447=C|452=7|710=20180208RPy4sn1ygt7d|715=20240129|724=1|10=236|
8=FIXT.1.1|9=160|35=AN|49=VP|56=IDX|34=388|43=N|52=20240129-04:33:18|50=vpft1001|60=20240129-04:33:18|263=0|453=1|448=AD|447=C|452=7|710=20180208RPy4sn1ygt7d|715=20240129|724=1|10=231|
8=FIXT.1.1|9=160|35=AN|49=VP|56=IDX|34=389|43=N|52=20240129-04:33:38|50=vpft1001|60=20240129-04:33:38|263=0|453=1|448=AD|447=C|452=7|710=20180208RPy4sn1ygt7d|715=20240129|724=1|10=236|
8=FIXT.1.1|9=160|35=AN|49=VP|56=IDX|34=390|43=N|52=20240129-04:33:58|50=vpft1001|60=20240129-04:33:58|263=0|453=1|448=AD|447=C|452=7|710=20180208RPy4sn1ygt7d|715=20240129|724=1|10=232|
8=FIXT.1.1|9=160|35=AN|49=VP|56=IDX|34=391|43=N|52=20240129-04:34:18|50=vpft1001|60=20240129-04:34:18|263=0|453=1|448=AD|447=C|452=7|710=20180208RPy4sn1ygt7d|715=20240129|724=1|10=227|
8=FIXT.1.1|9=160|35=AN|49=VP|56=IDX|34=392|43=N|52=20240129-04:34:38|50=vpft1001|60=20240129-04:34:38|263=0|453=1|448=AD|447=C|452=7|710=20180208RPy4sn1ygt7d|715=20240129|724=1|10=232|
8=FIXT.1.1|9=160|35=AN|49=VP|56=IDX|34=393|43=N|52=20240129-04:34:58|50=vpft1001|60=20240129-04:34:58|263=0|453=1|448=AD|447=C|452=7|710=20180208RPy4sn1ygt7d|715=20240129|724=1|10=237|
8=FIXT.1.1|9=160|35=AN|49=VP|56=IDX|34=394|43=N|52=20240129-04:35:18|50=vpft1001|60=20240129-04:35:18|263=0|453=1|448=AD|447=C|452=7|710=20180208RPy4sn1ygt7d|715=20240129|724=1|10=232|
8=FIXT.1.1|9=160|35=AN|49=VP|56=IDX|34=395|43=N|52=20240129-04:35:38|50=vpft1001|60=20240129-04:35:38|263=0|453=1|448=AD|447=C|452=7|710=20180208RPy4sn1ygt7d|715=20240129|724=1|10=237|
8=FIXT.1.1|9=160|35=AN|49=VP|56=IDX|34=396|43=N|52=20240129-04:35:58|50=vpft1001|60=20240129-04:35:58|263=0|453=1|448=AD|447=C|452=7|710=20180208RPy4sn1ygt7d|715=20240129|724=1|10=242|
8=FIXT.1.1|9=160|35=AN|49=VP|56=IDX|34=397|43=N|52=20240129-04:36:18|50=vpft1001|60=20240129-04:36:18|263=0|453=1|448=AD|447=C|452=7|710=20180208RPy4sn1ygt7d|715=20240129|724=1|10=237|
8=FIXT.1.1|9=160|35=AN|49=VP|56=IDX|34=398|43=N|52=20240129-04:36:38|50=vpft1001|60=20240129-04:36:38|263=0|453=1|448=AD|447=C|452=7|710=20180208RPy4sn1ygt7d|715=20240129|724=1|10=242|
8=FIXT.1.1|9=160|35=AN|49=VP|56=IDX|34=399|43=N|52=20240129-04:36:58|50=vpft1001|60=20240129-04:36:58|263=0|453=1|448=AD|447=C|452=7|710=20180208RPy4sn1ygt7d|715=20240129|724=1|10=247|
8=FIXT.1.1|9=160|35=AN|49=VP|56=IDX|34=400|43=N|52=20240129-04:37:18|50=vpft1001|60=20240129-04:37:18|263=0|453=1|448=AD|447=C|452=7|710=20180208RPy4sn1ygt7d|715=20240129|724=1|10=224|
8=FIXT.1.1|9=160|35=AN|49=VP|56=IDX|34=401|43=N|52=20240129-04:37:38|50=vpft1001|60=20240129-04:37:38|263=0|453=1|448=AD|447=C|452=7|710=20180208RPy4sn1ygt7d|715=20240129|724=1|10=229|
8=FIXT.1.1|9=160|35=AN|49=VP|56=IDX|34=402|43=N|52=20240129-04:37:58|50=vpft1001|60=20240129-04:37:58|263=0|453=1|448=AD|447=C|452=7|710=20180208RPy4sn1ygt7d|715=20240129|724=1|10=234|
8=FIXT.1.1|9=160|35=AN|49=VP|56=IDX|34=403|43=N|52=20240129-04:38:18|50=vpft1001|60=20240129-04:38:18|263=0|453=1|448=AD|447=C|452=7|710=20180208RPy4sn1ygt7d|715=20240129|724=1|10=229|
8=FIXT.1.1|9=160|35=AN|49=VP|56=IDX|34=404|43=N|52=20240129-04:38:38|50=vpft1001|60=20240129-04:38:38|263=0|453=1|448=AD|447=C|452=7|710=20180208RPy4sn1ygt7d|715=20240129|724=1|10=234|
8=FIXT.1.1|9=160|35=AN|49=VP|56=IDX|34=405|43=N|52=20240129-04:38:58|50=vpft1001|60=20240129-04:38:58|263=0|453=1|448=AD|447=C|452=7|710=20180208RPy4sn1ygt7d|715=20240129|724=1|10=239|
8=FIXT.1.1|9=160|35=AN|49=VP|56=IDX|34=406|43=N|52=20240129-04:39:18|50=vpft1001|60=20240129-04:39:18|263=0|453=1|448=AD|447=C|452=7|710=20180208RPy4sn1ygt7d|715=20240129|724=1|10=234|
8=FIXT.1.1|9=160|35=AN|49=VP|56=IDX|34=407|43=N|52=20240129-04:39:38|50=vpft1001|60=20240129-04:39:38|263=0|453=1|448=AD|447=C|452=7|710=20180208RPy4sn1ygt7d|715=20240129|724=1|10=239|
8=FIXT.1.1|9=160|35=AN|49=VP|56=IDX|34=408|43=N|52=20240129-04:39:58|50=vpft1001|60=20240129-04:39:58|263=0|453=1|448=AD|447=C|452=7|710=20180208RPy4sn1ygt7d|715=20240129|724=1|10=244|
8=FIXT.1.1|9=160|35=AN|49=VP|56=IDX|34=409|43=N|52=20240129-04:40:18|50=vpft1001|60=20240129-04:40:18|263=0|453=1|448=AD|447=C|452=7|710=20180208RPy4sn1ygt7d|715=20240129|724=1|10=221|
8=FIXT.1.1|9=160|35=AN|49=VP|56=IDX|34=410|43=N|52=20240129-04:40:38|50=vpft1001|60=20240129-04:40:38|263=0|453=1|448=AD|447=C|452=7|710=20180208RPy4sn1ygt7d|715=20240129|724=1|10=217|
8=FIXT.1.1|9=160|35=AN|49=VP|56=IDX|34=411|43=N|52=20240129-04:40:58|50=vpft1001|60=20240129-04:40:58|263=0|453=1|448=AD|447=C|452=7|710=20180208RPy4sn1ygt7d|715=20240129|724=1|10=222|
8=FIXT.1.1|9=160|35=AN|49=VP|56=IDX|34=412|43=N|52=20240129-04:41:18|50=vpft1001|60=20240129-04:41:18|263=0|453=1|448=AD|447=C|452=7|710=20180208RPy4sn1ygt7d|715=20240129|724=1|10=217|
8=FIXT.1.1|9=160|35=AN|49=VP|56=IDX|34=413|43=N|52=20240129-04:41:38|50=vpft1001|60=20240129-04:41:38|263=0|453=1|448=AD|447=C|452=7|710=20180208RPy4sn1ygt7d|715=20240129|724=1|10=222|
8=FIXT.1.1|9=160|35=AN|49=VP|56=IDX|34=414|43=N|52=20240129-04:41:58|50=vpft1001|60=20240129-04:41:58|263=0|453=1|448=AD|447=C|452=7|710=20180208RPy4sn1ygt7d|715=20240129|724=1|10=227|
8=FIXT.1.1|9=160|35=AN|49=VP|56=IDX|34=415|43=N|52=20240129-04:42:18|50=vpft1001|60=20240129-04:42:18|263=0|453=1|448=AD|447=C|452=7|710=20180208RPy4sn1ygt7d|715=20240129|724=1|10=222|
8=FIXT.1.1|9=160|35=AN|49=VP|56=IDX|34=416|43=N|52=20240129-04:42:38|50=vpft1001|60=20240129-04:42:38|263=0|453=1|448=AD|447=C|452=7|710=20180208RPy4sn1ygt7d|715=20240129|724=1|10=227|
8=FIXT.1.1|9=160|35=AN|49=VP|56=IDX|34=417|43=N|52=20240129-04:42:58|50=vpft1001|60=20240129-04:42:58|263=0|453=1|448=AD|447=C|452=7|710=20180208RPy4sn1ygt7d|715=20240129|724=1|10=232|
8=FIXT.1.1|9=160|35=AN|49=VP|56=IDX|34=418|43=N|52=20240129-04:43:18|50=vpft1001|60=20240129-04:43:18|263=0|453=1|448=AD|447=C|452=7|710=20180208RPy4sn1ygt7d|715=20240129|724=1|10=227|
8=FIXT.1.1|9=160|35=AN|49=VP|56=IDX|34=419|43=N|52=20240129-04:43:38|50=vpft1001|60=20240129-04:43:38|263=0|453=1|448=AD|447=C|452=7|710=20180208RPy4sn1ygt7d|715=20240129|724=1|10=232|
8=FIXT.1.1|9=160|35=AN|49=VP|56=IDX|34=420|43=N|52=20240129-04:43:58|50=vpft1001|60=20240129-04:43:58|263=0|453=1|448=AD|447=C|452=7|710=20180208RPy4sn1ygt7d|715=20240129|724=1|10=228|
8=FIXT.1.1|9=160|35=AN|49=VP|56=IDX|34=421|43=N|52=20240129-04:44:18|50=vpft1001|60=20240129-04:44:18|263=0|453=1|448=AD|447=C|452=7|710=20180208RPy4sn1ygt7d|715=20240129|724=1|10=223|
8=FIXT.1.1|9=160|35=AN|49=VP|56=IDX|34=422|43=N|52=20240129-04:44:38|50=vpft1001|60=20240129-04:44:38|263=0|453=1|448=AD|447=C|452=7|710=20180208RPy4sn1ygt7d|715=20240129|724=1|10=228|
8=FIXT.1.1|9=160|35=AN|49=VP|56=IDX|34=423|43=N|52=20240129-04:44:58|50=vpft1001|60=20240129-04:44:58|263=0|453=1|448=AD|447=C|452=7|710=20180208RPy4sn1ygt7d|715=20240129|724=1|10=233|
8=FIXT.1.1|9=160|35=AN|49=VP|56=IDX|34=424|43=N|52=20240129-04:45:18|50=vpft1001|60=20240129-04:45:18|263=0|453=1|448=AD|447=C|452=7|710=20180208RPy4sn1ygt7d|715=20240129|724=1|10=228|
8=FIXT.1.1|9=160|35=AN|49=VP|56=IDX|34=425|43=N|52=20240129-04:45:38|50=vpft1001|60=20240129-04:45:38|263=0|453=1|448=AD|447=C|452=7|710=20180208RPy4sn1ygt7d|715=20240129|724=1|10=233|
8=FIXT.1.1|9=160|35=AN|49=VP|56=IDX|34=426|43=N|52=20240129-04:45:58|50=vpft1001|60=20240129-04:45:58|263=0|453=1|448=AD|447=C|452=7|710=20180208RPy4sn1ygt7d|715=20240129|724=1|10=238|
8=FIXT.1.1|9=160|35=AN|49=VP|56=IDX|34=427|43=N|52=20240129-04:46:18|50=vpft1001|60=20240129-04:46:18|263=0|453=1|448=AD|447=C|452=7|710=20180208RPy4sn1ygt7d|715=20240129|724=1|10=233|
8=FIXT.1.1|9=160|35=AN|49=VP|56=IDX|34=428|43=N|52=20240129-04:46:38|50=vpft1001|60=20240129-04:46:38|263=0|453=1|448=AD|447=C|452=7|710=20180208RPy4sn1ygt7d|715=20240129|724=1|10=238|
8=FIXT.1.1|9=160|35=AN|49=VP|56=IDX|34=429|43=N|52=20240129-04:46:58|50=vpft1001|60=20240129-04:46:58|263=0|453=1|448=AD|447=C|452=7|710=20180208RPy4sn1ygt7d|715=20240129|724=1|10=243|
8=FIXT.1.1|9=160|35=AN|49=VP|56=IDX|34=430|43=N|52=20240129-04:47:18|50=vpft1001|60=20240129-04:47:18|263=0|453=1|448=AD|447=C|452=7|710=20180208RPy4sn1ygt7d|715=20240129|724=1|10=229|
8=FIXT.1.1|9=160|35=AN|49=VP|56=IDX|34=431|43=N|52=20240129-04:47:38|50=vpft1001|60=20240129-04:47:38|263=0|453=1|448=AD|447=C|452=7|710=20180208RPy4sn1ygt7d|715=20240129|724=1|10=234|
8=FIXT.1.1|9=160|35=AN|49=VP|56=IDX|34=432|43=N|52=20240129-04:47:58|50=vpft1001|60=20240129-04:47:58|263=0|453=1|448=AD|447=C|452=7|710=20180208RPy4sn1ygt7d|715=20240129|724=1|10=239|
8=FIXT.1.1|9=160|35=AN|49=VP|56=IDX|34=433|43=N|52=20240129-04:48:18|50=vpft1001|60=20240129-04:48:18|263=0|453=1|448=AD|447=C|452=7|710=20180208RPy4sn1ygt7d|715=20240129|724=1|10=234|
8=FIXT.1.1|9=160|35=AN|49=VP|56=IDX|34=434|43=N|52=20240129-04:48:38|50=vpft1001|60=20240129-04:48:38|263=0|453=1|448=AD|447=C|452=7|710=20180208RPy4sn1ygt7d|715=20240129|724=1|10=239|
8=FIXT.1.1|9=160|35=AN|49=VP|56=IDX|34=435|43=N|52=20240129-04:48:58|50=vpft1001|60=20240129-04:48:58|263=0|453=1|448=AD|447=C|452=7|710=20180208RPy4sn1ygt7d|715=20240129|724=1|10=244|
8=FIXT.1.1|9=160|35=AN|49=VP|56=IDX|34=436|43=N|52=20240129-04:49:18|50=vpft1001|60=20240129-04:49:18|263=0|453=1|448=AD|447=C|452=7|710=20180208RPy4sn1ygt7d|715=20240129|724=1|10=239|
8=FIXT.1.1|9=160|35=AN|49=VP|56=IDX|34=437|43=N|52=20240129-04:49:38|50=vpft1001|60=20240129-04:49:38|263=0|453=1|448=AD|447=C|452=7|710=20180208RPy4sn1ygt7d|715=20240129|724=1|10=244|
8=FIXT.1.1|9=160|35=AN|49=VP|56=IDX|34=438|43=N|52=20240129-04:49:58|50=vpft1001|60=20240129-04:49:58|263=0|453=1|448=AD|447=C|452=7|710=20180208RPy4sn1ygt7d|715=20240129|724=1|10=249|
8=FIXT.1.1|9=160|35=AN|49=VP|56=IDX|34=439|43=N|52=20240129-04:50:18|50=vpft1001|60=20240129-04:50:18|263=0|453=1|448=AD|447=C|452=7|710=20180208RPy4sn1ygt7d|715=20240129|724=1|10=226|
8=FIXT.1.1|9=160|35=AN|49=VP|56=IDX|34=440|43=N|52=20240129-04:50:38|50=vpft1001|60=20240129-04:50:38|263=0|453=1|448=AD|447=C|452=7|710=20180208RPy4sn1ygt7d|715=20240129|724=1|10=222|
8=FIXT.1.1|9=160|35=AN|49=VP|56=IDX|34=441|43=N|52=20240129-04:50:58|50=vpft1001|60=20240129-04:50:58|263=0|453=1|448=AD|447=C|452=7|710=20180208RPy4sn1ygt7d|715=20240129|724=1|10=227|
8=FIXT.1.1|9=160|35=AN|49=VP|56=IDX|34=442|43=N|52=20240129-04:51:18|50=vpft1001|60=20240129-04:51:18|263=0|453=1|448=AD|447=C|452=7|710=20180208RPy4sn1ygt7d|715=20240129|724=1|10=222|
8=FIXT.1.1|9=160|35=AN|49=VP|56=IDX|34=443|43=N|52=20240129-04:51:38|50=vpft1001|60=20240129-04:51:38|263=0|453=1|448=AD|447=C|452=7|710=20180208RPy4sn1ygt7d|715=20240129|724=1|10=227|
8=FIXT.1.1|9=160|35=AN|49=VP|56=IDX|34=444|43=N|52=20240129-04:51:58|50=vpft1001|60=20240129-04:51:58|263=0|453=1|448=AD|447=C|452=7|710=20180208RPy4sn1ygt7d|715=20240129|724=1|10=232|
8=FIXT.1.1|9=160|35=AN|49=VP|56=IDX|34=445|43=N|52=20240129-04:52:18|50=vpft1001|60=20240129-04:52:18|263=0|453=1|448=AD|447=C|452=7|710=20180208RPy4sn1ygt7d|715=20240129|724=1|10=227|
8=FIXT.1.1|9=160|35=AN|49=VP|56=IDX|34=446|43=N|52=20240129-04:52:38|50=vpft1001|60=20240129-04:52:38|263=0|453=1|448=AD|447=C|452=7|710=20180208RPy4sn1ygt7d|715=20240129|724=1|10=232|
8=FIXT.1.1|9=160|35=AN|49=VP|56=IDX|34=447|43=N|52=20240129-04:52:58|50=vpft1001|60=20240129-04:52:58|263=0|453=1|448=AD|447=C|452=7|710=20180208RPy4sn1ygt7d|715=20240129|724=1|10=237|
8=FIXT.1.1|9=160|35=AN|49=VP|56=IDX|34=448|43=N|52=20240129-04:53:18|50=vpft1001|60=20240129-04:53:18|263=0|453=1|448=AD|447=C|452=7|710=20180208RPy4sn1ygt7d|715=20240129|724=1|10=232|
8=FIXT.1.1|9=160|35=AN|49=VP|56=IDX|34=449|43=N|52=20240129-04:53:38|50=vpft1001|60=20240129-04:53:38|263=0|453=1|448=AD|447=C|452=7|710=20180208RPy4sn1ygt7d|715=20240129|724=1|10=237|
8=FIXT.1.1|9=160|35=AN|49=VP|56=IDX|34=450|43=N|52=20240129-04:53:58|50=vpft1001|60=20240129-04:53:58|263=0|453=1|448=AD|447=C|452=7|710=20180208RPy4sn1ygt7d|715=20240129|724=1|10=233|
8=FIXT.1.1|9=160|35=AN|49=VP|56=IDX|34=451|43=N|52=20240129-04:54:18|50=vpft1001|60=20240129-04:54:18|263=0|453=1|448=AD|447=C|452=7|710=20180208RPy4sn1ygt7d|715=20240129|724=1|10=228|
8=FIXT.1.1|9=160|35=AN|49=VP|56=IDX|34=452|43=N|52=20240129-04:54:38|50=vpft1001|60=20240129-04:54:38|263=0|453=1|448=AD|447=C|452=7|710=20180208RPy4sn1ygt7d|715=20240129|724=1|10=233|
8=FIXT.1.1|9=160|35=AN|49=VP|56=IDX|34=453|43=N|52=20240129-04:54:58|50=vpft1001|60=20240129-04:54:58|263=0|453=1|448=AD|447=C|452=7|710=20180208RPy4sn1ygt7d|715=20240129|724=1|10=238|
8=FIXT.1.1|9=160|35=AN|49=VP|56=IDX|34=454|43=N|52=20240129-04:55:18|50=vpft1001|60=20240129-04:55:18|263=0|453=1|448=AD|447=C|452=7|710=20180208RPy4sn1ygt7d|715=20240129|724=1|10=233|
8=FIXT.1.1|9=160|35=AN|49=VP|56=IDX|34=455|43=N|52=20240129-04:55:38|50=vpft1001|60=20240129-04:55:38|263=0|453=1|448=AD|447=C|452=7|710=20180208RPy4sn1ygt7d|715=20240129|724=1|10=238|
8=FIXT.1.1|9=160|35=AN|49=VP|56=IDX|34=456|43=N|52=20240129-04:55:58|50=vpft1001|60=20240129-04:55:58|263=0|453=1|448=AD|447=C|452=7|710=20180208RPy4sn1ygt7d|715=20240129|724=1|10=243|
8=FIXT.1.1|9=160|35=AN|49=VP|56=IDX|34=457|43=N|52=20240129-04:56:18|50=vpft1001|60=20240129-04:56:18|263=0|453=1|448=AD|447=C|452=7|710=20180208RPy4sn1ygt7d|715=20240129|724=1|10=238|
8=FIXT.1.1|9=160|35=AN|49=VP|56=IDX|34=458|43=N|52=20240129-04:56:38|50=vpft1001|60=20240129-04:56:38|263=0|453=1|448=AD|447=C|452=7|710=20180208RPy4sn1ygt7d|715=20240129|724=1|10=243|
8=FIXT.1.1|9=160|35=AN|49=VP|56=IDX|34=459|43=N|52=20240129-04:56:58|50=vpft1001|60=20240129-04:56:58|263=0|453=1|448=AD|447=C|452=7|710=20180208RPy4sn1ygt7d|715=20240129|724=1|10=248|
8=FIXT.1.1|9=160|35=AN|49=VP|56=IDX|34=460|43=N|52=20240129-04:57:18|50=vpft1001|60=20240129-04:57:18|263=0|453=1|448=AD|447=C|452=7|710=20180208RPy4sn1ygt7d|715=20240129|724=1|10=234|
8=FIXT.1.1|9=160|35=AN|49=VP|56=IDX|34=461|43=N|52=20240129-04:57:38|50=vpft1001|60=20240129-04:57:38|263=0|453=1|448=AD|447=C|452=7|710=20180208RPy4sn1ygt7d|715=20240129|724=1|10=239|
8=FIXT.1.1|9=160|35=AN|49=VP|56=IDX|34=462|43=N|52=20240129-04:57:58|50=vpft1001|60=20240129-04:57:58|263=0|453=1|448=AD|447=C|452=7|710=20180208RPy4sn1ygt7d|715=20240129|724=1|10=244|
8=FIXT.1.1|9=160|35=AN|49=VP|56=IDX|34=463|43=N|52=20240129-04:58:18|50=vpft1001|60=20240129-04:58:18|263=0|453=1|448=AD|447=C|452=7|710=20180208RPy4sn1ygt7d|715=20240129|724=1|10=239|
8=FIXT.1.1|9=160|35=AN|49=VP|56=IDX|34=464|43=N|52=20240129-04:58:38|50=vpft1001|60=20240129-04:58:38|263=0|453=1|448=AD|447=C|452=7|710=20180208RPy4sn1ygt7d|715=20240129|724=1|10=244|
8=FIXT.1.1|9=160|35=AN|49=VP|56=IDX|34=465|43=N|52=20240129-04:58:58|50=vpft1001|60=20240129-04:58:58|263=0|453=1|448=AD|447=C|452=7|710=20180208RPy4sn1ygt7d|715=20240129|724=1|10=249|
8=FIXT.1.1|9=160|35=AN|49=VP|56=IDX|34=466|43=N|52=20240129-04:59:18|50=vpft1001|60=20240129-04:59:18|263=0|453=1|448=AD|447=C|452=7|710=20180208RPy4sn1ygt7d|715=20240129|724=1|10=244|
8=FIXT.1.1|9=160|35=AN|49=VP|56=IDX|34=467|43=N|52=20240129-04:59:38|50=vpft1001|60=20240129-04:59:38|263=0|453=1|448=AD|447=C|452=7|710=20180208RPy4sn1ygt7d|715=20240129|724=1|10=249|
8=FIXT.1.1|9=160|35=AN|49=VP|56=IDX|34=468|43=N|52=20240129-04:59:58|50=vpft1001|60=20240129-04:59:58|263=0|453=1|448=AD|447=C|452=7|710=20180208RPy4sn1ygt7d|715=20240129|724=1|10=254|
8=FIXT.1.1|9=160|35=AN|49=VP|56=IDX|34=469|43=N|52=20240129-05:00:18|50=vpft1001|60=20240129-05:00:18|263=0|453=1|448=AD|447=C|452=7|710=20180208RPy4sn1ygt7d|715=20240129|724=1|10=221|
8=FIXT.1.1|9=160|35=AN|49=VP|56=IDX|34=470|43=N|52=20240129-05:00:38|50=vpft1001|60=20240129-05:00:38|263=0|453=1|448=AD|447=C|452=7|710=20180208RPy4sn1ygt7d|715=20240129|724=1|10=217|
8=FIXT.1.1|9=160|35=AN|49=VP|56=IDX|34=471|43=N|52=20240129-05:00:58|50=vpft1001|60=20240129-05:00:58|263=0|453=1|448=AD|447=C|452=7|710=20180208RPy4sn1ygt7d|715=20240129|724=1|10=222|
8=FIXT.1.1|9=160|35=AN|49=VP|56=IDX|34=472|43=N|52=20240129-05:01:18|50=vpft1001|60=20240129-05:01:18|263=0|453=1|448=AD|447=C|452=7|710=20180208RPy4sn1ygt7d|715=20240129|724=1|10=217|
8=FIXT.1.1|9=160|35=AN|49=VP|56=IDX|34=473|43=N|52=20240129-05:01:38|50=vpft1001|60=20240129-05:01:38|263=0|453=1|448=AD|447=C|452=7|710=20180208RPy4sn1ygt7d|715=20240129|724=1|10=222|
8=FIXT.1.1|9=160|35=AN|49=VP|56=IDX|34=474|43=N|52=20240129-05:01:58|50=vpft1001|60=20240129-05:01:58|263=0|453=1|448=AD|447=C|452=7|710=20180208RPy4sn1ygt7d|715=20240129|724=1|10=227|
8=FIXT.1.1|9=160|35=AN|49=VP|56=IDX|34=475|43=N|52=20240129-05:02:18|50=vpft1001|60=20240129-05:02:18|263=0|453=1|448=AD|447=C|452=7|710=20180208RPy4sn1ygt7d|715=20240129|724=1|10=222|
8=FIXT.1.1|9=160|35=AN|49=VP|56=IDX|34=476|43=N|52=20240129-05:02:38|50=vpft1001|60=20240129-05:02:38|263=0|453=1|448=AD|447=C|452=7|710=20180208RPy4sn1ygt7d|715=20240129|724=1|10=227|
8=FIXT.1.1|9=160|35=AN|49=VP|56=IDX|34=477|43=N|52=20240129-05:02:58|50=vpft1001|60=20240129-05:02:58|263=0|453=1|448=AD|447=C|452=7|710=20180208RPy4sn1ygt7d|715=20240129|724=1|10=232|
8=FIXT.1.1|9=160|35=AN|49=VP|56=IDX|34=478|43=N|52=20240129-05:03:18|50=vpft1001|60=20240129-05:03:18|263=0|453=1|448=AD|447=C|452=7|710=20180208RPy4sn1ygt7d|715=20240129|724=1|10=227|
8=FIXT.1.1|9=160|35=AN|49=VP|56=IDX|34=479|43=N|52=20240129-05:03:38|50=vpft1001|60=20240129-05:03:38|263=0|453=1|448=AD|447=C|452=7|710=20180208RPy4sn1ygt7d|715=20240129|724=1|10=232|
8=FIXT.1.1|9=160|35=AN|49=VP|56=IDX|34=480|43=N|52=20240129-05:03:58|50=vpft1001|60=20240129-05:03:58|263=0|453=1|448=AD|447=C|452=7|710=20180208RPy4sn1ygt7d|715=20240129|724=1|10=228|
8=FIXT.1.1|9=160|35=AN|49=VP|56=IDX|34=481|43=N|52=20240129-05:04:18|50=vpft1001|60=20240129-05:04:18|263=0|453=1|448=AD|447=C|452=7|710=20180208RPy4sn1ygt7d|715=20240129|724=1|10=223|
8=FIXT.1.1|9=160|35=AN|49=VP|56=IDX|34=482|43=N|52=20240129-05:04:38|50=vpft1001|60=20240129-05:04:38|263=0|453=1|448=AD|447=C|452=7|710=20180208RPy4sn1ygt7d|715=20240129|724=1|10=228|
8=FIXT.1.1|9=160|35=AN|49=VP|56=IDX|34=483|43=N|52=20240129-05:04:58|50=vpft1001|60=20240129-05:04:58|263=0|453=1|448=AD|447=C|452=7|710=20180208RPy4sn1ygt7d|715=20240129|724=1|10=233|
8=FIXT.1.1|9=160|35=AN|49=VP|56=IDX|34=484|43=N|52=20240129-05:05:18|50=vpft1001|60=20240129-05:05:18|263=0|453=1|448=AD|447=C|452=7|710=20180208RPy4sn1ygt7d|715=20240129|724=1|10=228|
8=FIXT.1.1|9=160|35=AN|49=VP|56=IDX|34=485|43=N|52=20240129-05:05:38|50=vpft1001|60=20240129-05:05:38|263=0|453=1|448=AD|447=C|452=7|710=20180208RPy4sn1ygt7d|715=20240129|724=1|10=233|
8=FIXT.1.1|9=160|35=AN|49=VP|56=IDX|34=486|43=N|52=20240129-05:05:58|50=vpft1001|60=20240129-05:05:58|263=0|453=1|448=AD|447=C|452=7|710=20180208RPy4sn1ygt7d|715=20240129|724=1|10=238|
8=FIXT.1.1|9=160|35=AN|49=VP|56=IDX|34=487|43=N|52=20240129-05:06:18|50=vpft1001|60=20240129-05:06:18|263=0|453=1|448=AD|447=C|452=7|710=20180208RPy4sn1ygt7d|715=20240129|724=1|10=233|
8=FIXT.1.1|9=160|35=AN|49=VP|56=IDX|34=488|43=N|52=20240129-05:06:38|50=vpft1001|60=20240129-05:06:38|263=0|453=1|448=AD|447=C|452=7|710=20180208RPy4sn1ygt7d|715=20240129|724=1|10=238|
8=FIXT.1.1|9=160|35=AN|49=VP|56=IDX|34=489|43=N|52=20240129-05:06:58|50=vpft1001|60=20240129-05:06:58|263=0|453=1|448=AD|447=C|452=7|710=20180208RPy4sn1ygt7d|715=20240129|724=1|10=243|
8=FIXT.1.1|9=160|35=AN|49=VP|56=IDX|34=490|43=N|52=20240129-05:07:18|50=vpft1001|60=20240129-05:07:18|263=0|453=1|448=AD|447=C|452=7|710=20180208RPy4sn1ygt7d|715=20240129|724=1|10=229|
8=FIXT.1.1|9=160|35=AN|49=VP|56=IDX|34=491|43=N|52=20240129-05:07:38|50=vpft1001|60=20240129-05:07:38|263=0|453=1|448=AD|447=C|452=7|710=20180208RPy4sn1ygt7d|715=20240129|724=1|10=234|
8=FIXT.1.1|9=160|35=AN|49=VP|56=IDX|34=492|43=N|52=20240129-05:07:58|50=vpft1001|60=20240129-05:07:58|263=0|453=1|448=AD|447=C|452=7|710=20180208RPy4sn1ygt7d|715=20240129|724=1|10=239|
8=FIXT.1.1|9=160|35=AN|49=VP|56=IDX|34=493|43=N|52=20240129-05:08:18|50=vpft1001|60=20240129-05:08:18|263=0|453=1|448=AD|447=C|452=7|710=20180208RPy4sn1ygt7d|715=20240129|724=1|10=234|
8=FIXT.1.1|9=160|35=AN|49=VP|56=IDX|34=494|43=N|52=20240129-05:08:38|50=vpft1001|60=20240129-05:08:38|263=0|453=1|448=AD|447=C|452=7|710=20180208RPy4sn1ygt7d|715=20240129|724=1|10=239|
8=FIXT.1.1|9=160|35=AN|49=VP|56=IDX|34=495|43=N|52=20240129-05:08:58|50=vpft1001|60=20240129-05:08:58|263=0|453=1|448=AD|447=C|452=7|710=20180208RPy4sn1ygt7d|715=20240129|724=1|10=244|
8=FIXT.1.1|9=160|35=AN|49=VP|56=IDX|34=496|43=N|52=20240129-05:09:18|50=vpft1001|60=20240129-05:09:18|263=0|453=1|448=AD|447=C|452=7|710=20180208RPy4sn1ygt7d|715=20240129|724=1|10=239|
8=FIXT.1.1|9=160|35=AN|49=VP|56=IDX|34=497|43=N|52=20240129-05:09:38|50=vpft1001|60=20240129-05:09:38|263=0|453=1|448=AD|447=C|452=7|710=20180208RPy4sn1ygt7d|715=20240129|724=1|10=244|
8=FIXT.1.1|9=160|35=AN|49=VP|56=IDX|34=498|43=N|52=20240129-05:09:58|50=vpft1001|60=20240129-05:09:58|263=0|453=1|448=AD|447=C|452=7|710=20180208RPy4sn1ygt7d|715=20240129|724=1|10=249|
8=FIXT.1.1|9=160|35=AN|49=VP|56=IDX|34=499|43=N|52=20240129-05:10:18|50=vpft1001|60=20240129-05:10:18|263=0|453=1|448=AD|447=C|452=7|710=20180208RPy4sn1ygt7d|715=20240129|724=1|10=226|
8=FIXT.1.1|9=160|35=AN|49=VP|56=IDX|34=500|43=N|52=20240129-05:10:38|50=vpft1001|60=20240129-05:10:38|263=0|453=1|448=AD|447=C|452=7|710=20180208RPy4sn1ygt7d|715=20240129|724=1|10=213|
8=FIXT.1.1|9=160|35=AN|49=VP|56=IDX|34=501|43=N|52=20240129-05:10:58|50=vpft1001|60=20240129-05:10:58|263=0|453=1|448=AD|447=C|452=7|710=20180208RPy4sn1ygt7d|715=20240129|724=1|10=218|
8=FIXT.1.1|9=160|35=AN|49=VP|56=IDX|34=502|43=N|52=20240129-05:11:18|50=vpft1001|60=20240129-05:11:18|263=0|453=1|448=AD|447=C|452=7|710=20180208RPy4sn1ygt7d|715=20240129|724=1|10=213|
8=FIXT.1.1|9=160|35=AN|49=VP|56=IDX|34=503|43=N|52=20240129-05:11:38|50=vpft1001|60=20240129-05:11:38|263=0|453=1|448=AD|447=C|452=7|710=20180208RPy4sn1ygt7d|715=20240129|724=1|10=218|
8=FIXT.1.1|9=160|35=AN|49=VP|56=IDX|34=504|43=N|52=20240129-05:11:58|50=vpft1001|60=20240129-05:11:58|263=0|453=1|448=AD|447=C|452=7|710=20180208RPy4sn1ygt7d|715=20240129|724=1|10=223|
8=FIXT.1.1|9=160|35=AN|49=VP|56=IDX|34=505|43=N|52=20240129-05:12:18|50=vpft1001|60=20240129-05:12:18|263=0|453=1|448=AD|447=C|452=7|710=20180208RPy4sn1ygt7d|715=20240129|724=1|10=218|
8=FIXT.1.1|9=160|35=AN|49=VP|56=IDX|34=506|43=N|52=20240129-05:12:38|50=vpft1001|60=20240129-05:12:38|263=0|453=1|448=AD|447=C|452=7|710=20180208RPy4sn1ygt7d|715=20240129|724=1|10=223|
8=FIXT.1.1|9=160|35=AN|49=VP|56=IDX|34=507|43=N|52=20240129-05:12:58|50=vpft1001|60=20240129-05:12:58|263=0|453=1|448=AD|447=C|452=7|710=20180208RPy4sn1ygt7d|715=20240129|724=1|10=228|
8=FIXT.1.1|9=160|35=AN|49=VP|56=IDX|34=508|43=N|52=20240129-05:13:18|50=vpft1001|60=20240129-05:13:18|263=0|453=1|448=AD|447=C|452=7|710=20180208RPy4sn1ygt7d|715=20240129|724=1|10=223|
8=FIXT.1.1|9=160|35=AN|49=VP|56=IDX|34=509|43=N|52=20240129-05:13:38|50=vpft1001|60=20240129-05:13:38|263=0|453=1|448=AD|447=C|452=7|710=20180208RPy4sn1ygt7d|715=20240129|724=1|10=228|
8=FIXT.1.1|9=160|35=AN|49=VP|56=IDX|34=510|43=N|52=20240129-05:13:58|50=vpft1001|60=20240129-05:13:58|263=0|453=1|448=AD|447=C|452=7|710=20180208RPy4sn1ygt7d|715=20240129|724=1|10=224|
8=FIXT.1.1|9=160|35=AN|49=VP|56=IDX|34=511|43=N|52=20240129-05:14:18|50=vpft1001|60=20240129-05:14:18|263=0|453=1|448=AD|447=C|452=7|710=20180208RPy4sn1ygt7d|715=20240129|724=1|10=219|
8=FIXT.1.1|9=160|35=AN|49=VP|56=IDX|34=512|43=N|52=20240129-05:14:38|50=vpft1001|60=20240129-05:14:38|263=0|453=1|448=AD|447=C|452=7|710=20180208RPy4sn1ygt7d|715=20240129|724=1|10=224|
8=FIXT.1.1|9=160|35=AN|49=VP|56=IDX|34=513|43=N|52=20240129-05:14:58|50=vpft1001|60=20240129-05:14:58|263=0|453=1|448=AD|447=C|452=7|710=20180208RPy4sn1ygt7d|715=20240129|724=1|10=229|
8=FIXT.1.1|9=160|35=AN|49=VP|56=IDX|34=514|43=N|52=20240129-05:15:18|50=vpft1001|60=20240129-05:15:18|263=0|453=1|448=AD|447=C|452=7|710=20180208RPy4sn1ygt7d|715=20240129|724=1|10=224|
8=FIXT.1.1|9=160|35=AN|49=VP|56=IDX|34=515|43=N|52=20240129-05:15:38|50=vpft1001|60=20240129-05:15:38|263=0|453=1|448=AD|447=C|452=7|710=20180208RPy4sn1ygt7d|715=20240129|724=1|10=229|
8=FIXT.1.1|9=160|35=AN|49=VP|56=IDX|34=516|43=N|52=20240129-05:15:58|50=vpft1001|60=20240129-05:15:58|263=0|453=1|448=AD|447=C|452=7|710=20180208RPy4sn1ygt7d|715=20240129|724=1|10=234|
8=FIXT.1.1|9=160|35=AN|49=VP|56=IDX|34=517|43=N|52=20240129-05:16:18|50=vpft1001|60=20240129-05:16:18|263=0|453=1|448=AD|447=C|452=7|710=20180208RPy4sn1ygt7d|715=20240129|724=1|10=229|
8=FIXT.1.1|9=160|35=AN|49=VP|56=IDX|34=518|43=N|52=20240129-05:16:38|50=vpft1001|60=20240129-05:16:38|263=0|453=1|448=AD|447=C|452=7|710=20180208RPy4sn1ygt7d|715=20240129|724=1|10=234|
8=FIXT.1.1|9=160|35=AN|49=VP|56=IDX|34=519|43=N|52=20240129-05:16:58|50=vpft1001|60=20240129-05:16:58|263=0|453=1|448=AD|447=C|452=7|710=20180208RPy4sn1ygt7d|715=20240129|724=1|10=239|
8=FIXT.1.1|9=160|35=AN|49=VP|56=IDX|34=520|43=N|52=20240129-05:17:18|50=vpft1001|60=20240129-05:17:18|263=0|453=1|448=AD|447=C|452=7|710=20180208RPy4sn1ygt7d|715=20240129|724=1|10=225|
8=FIXT.1.1|9=160|35=AN|49=VP|56=IDX|34=521|43=N|52=20240129-05:17:38|50=vpft1001|60=20240129-05:17:38|263=0|453=1|448=AD|447=C|452=7|710=20180208RPy4sn1ygt7d|715=20240129|724=1|10=230|
8=FIXT.1.1|9=160|35=AN|49=VP|56=IDX|34=522|43=N|52=20240129-05:17:58|50=vpft1001|60=20240129-05:17:58|263=0|453=1|448=AD|447=C|452=7|710=20180208RPy4sn1ygt7d|715=20240129|724=1|10=235|
8=FIXT.1.1|9=160|35=AN|49=VP|56=IDX|34=523|43=N|52=20240129-05:18:18|50=vpft1001|60=20240129-05:18:18|263=0|453=1|448=AD|447=C|452=7|710=20180208RPy4sn1ygt7d|715=20240129|724=1|10=230|
8=FIXT.1.1|9=160|35=AN|49=VP|56=IDX|34=524|43=N|52=20240129-05:18:38|50=vpft1001|60=20240129-05:18:38|263=0|453=1|448=AD|447=C|452=7|710=20180208RPy4sn1ygt7d|715=20240129|724=1|10=235|
8=FIXT.1.1|9=160|35=AN|49=VP|56=IDX|34=525|43=N|52=20240129-05:18:58|50=vpft1001|60=20240129-05:18:58|263=0|453=1|448=AD|447=C|452=7|710=20180208RPy4sn1ygt7d|715=20240129|724=1|10=240|
8=FIXT.1.1|9=160|35=AN|49=VP|56=IDX|34=526|43=N|52=20240129-05:19:18|50=vpft1001|60=20240129-05:19:18|263=0|453=1|448=AD|447=C|452=7|710=20180208RPy4sn1ygt7d|715=20240129|724=1|10=235|
8=FIXT.1.1|9=160|35=AN|49=VP|56=IDX|34=527|43=N|52=20240129-05:19:38|50=vpft1001|60=20240129-05:19:38|263=0|453=1|448=AD|447=C|452=7|710=20180208RPy4sn1ygt7d|715=20240129|724=1|10=240|
8=FIXT.1.1|9=160|35=AN|49=VP|56=IDX|34=528|43=N|52=20240129-05:19:58|50=vpft1001|60=20240129-05:19:58|263=0|453=1|448=AD|447=C|452=7|710=20180208RPy4sn1ygt7d|715=20240129|724=1|10=245|
8=FIXT.1.1|9=160|35=AN|49=VP|56=IDX|34=529|43=N|52=20240129-05:20:18|50=vpft1001|60=20240129-05:20:18|263=0|453=1|448=AD|447=C|452=7|710=20180208RPy4sn1ygt7d|715=20240129|724=1|10=222|
8=FIXT.1.1|9=160|35=AN|49=VP|56=IDX|34=530|43=N|52=20240129-05:20:38|50=vpft1001|60=20240129-05:20:38|263=0|453=1|448=AD|447=C|452=7|710=20180208RPy4sn1ygt7d|715=20240129|724=1|10=218|
8=FIXT.1.1|9=160|35=AN|49=VP|56=IDX|34=531|43=N|52=20240129-05:20:58|50=vpft1001|60=20240129-05:20:58|263=0|453=1|448=AD|447=C|452=7|710=20180208RPy4sn1ygt7d|715=20240129|724=1|10=223|
8=FIXT.1.1|9=160|35=AN|49=VP|56=IDX|34=532|43=N|52=20240129-05:21:18|50=vpft1001|60=20240129-05:21:18|263=0|453=1|448=AD|447=C|452=7|710=20180208RPy4sn1ygt7d|715=20240129|724=1|10=218|
8=FIXT.1.1|9=160|35=AN|49=VP|56=IDX|34=533|43=N|52=20240129-05:21:38|50=vpft1001|60=20240129-05:21:38|263=0|453=1|448=AD|447=C|452=7|710=20180208RPy4sn1ygt7d|715=20240129|724=1|10=223|
8=FIXT.1.1|9=160|35=AN|49=VP|56=IDX|34=534|43=N|52=20240129-05:21:58|50=vpft1001|60=20240129-05:21:58|263=0|453=1|448=AD|447=C|452=7|710=20180208RPy4sn1ygt7d|715=20240129|724=1|10=228|
8=FIXT.1.1|9=160|35=AN|49=VP|56=IDX|34=535|43=N|52=20240129-05:22:18|50=vpft1001|60=20240129-05:22:18|263=0|453=1|448=AD|447=C|452=7|710=20180208RPy4sn1ygt7d|715=20240129|724=1|10=223|
8=FIXT.1.1|9=160|35=AN|49=VP|56=IDX|34=536|43=N|52=20240129-05:22:38|50=vpft1001|60=20240129-05:22:38|263=0|453=1|448=AD|447=C|452=7|710=20180208RPy4sn1ygt7d|715=20240129|724=1|10=228|
8=FIXT.1.1|9=160|35=AN|49=VP|56=IDX|34=537|43=N|52=20240129-05:22:58|50=vpft1001|60=20240129-05:22:58|263=0|453=1|448=AD|447=C|452=7|710=20180208RPy4sn1ygt7d|715=20240129|724=1|10=233|
8=FIXT.1.1|9=160|35=AN|49=VP|56=IDX|34=538|43=N|52=20240129-05:23:18|50=vpft1001|60=20240129-05:23:18|263=0|453=1|448=AD|447=C|452=7|710=20180208RPy4sn1ygt7d|715=20240129|724=1|10=228|
8=FIXT.1.1|9=160|35=AN|49=VP|56=IDX|34=539|43=N|52=20240129-05:23:38|50=vpft1001|60=20240129-05:23:38|263=0|453=1|448=AD|447=C|452=7|710=20180208RPy4sn1ygt7d|715=20240129|724=1|10=233|
8=FIXT.1.1|9=160|35=AN|49=VP|56=IDX|34=540|43=N|52=20240129-05:23:58|50=vpft1001|60=20240129-05:23:58|263=0|453=1|448=AD|447=C|452=7|710=20180208RPy4sn1ygt7d|715=20240129|724=1|10=229|
8=FIXT.1.1|9=160|35=AN|49=VP|56=IDX|34=541|43=N|52=20240129-05:24:18|50=vpft1001|60=20240129-05:24:18|263=0|453=1|448=AD|447=C|452=7|710=20180208RPy4sn1ygt7d|715=20240129|724=1|10=224|
8=FIXT.1.1|9=160|35=AN|49=VP|56=IDX|34=542|43=N|52=20240129-05:24:38|50=vpft1001|60=20240129-05:24:38|263=0|453=1|448=AD|447=C|452=7|710=20180208RPy4sn1ygt7d|715=20240129|724=1|10=229|
8=FIXT.1.1|9=160|35=AN|49=VP|56=IDX|34=543|43=N|52=20240129-05:24:58|50=vpft1001|60=20240129-05:24:58|263=0|453=1|448=AD|447=C|452=7|710=20180208RPy4sn1ygt7d|715=20240129|724=1|10=234|
8=FIXT.1.1|9=160|35=AN|49=VP|56=IDX|34=544|43=N|52=20240129-05:25:18|50=vpft1001|60=20240129-05:25:18|263=0|453=1|448=AD|447=C|452=7|710=20180208RPy4sn1ygt7d|715=20240129|724=1|10=229|
8=FIXT.1.1|9=160|35=AN|49=VP|56=IDX|34=545|43=N|52=20240129-05:25:38|50=vpft1001|60=20240129-05:25:38|263=0|453=1|448=AD|447=C|452=7|710=20180208RPy4sn1ygt7d|715=20240129|724=1|10=234|
8=FIXT.1.1|9=160|35=AN|49=VP|56=IDX|34=546|43=N|52=20240129-05:25:58|50=vpft1001|60=20240129-05:25:58|263=0|453=1|448=AD|447=C|452=7|710=20180208RPy4sn1ygt7d|715=20240129|724=1|10=239|
8=FIXT.1.1|9=160|35=AN|49=VP|56=IDX|34=547|43=N|52=20240129-05:26:18|50=vpft1001|60=20240129-05:26:18|263=0|453=1|448=AD|447=C|452=7|710=20180208RPy4sn1ygt7d|715=20240129|724=1|10=234|
8=FIXT.1.1|9=160|35=AN|49=VP|56=IDX|34=548|43=N|52=20240129-05:26:38|50=vpft1001|60=20240129-05:26:38|263=0|453=1|448=AD|447=C|452=7|710=20180208RPy4sn1ygt7d|715=20240129|724=1|10=239|
8=FIXT.1.1|9=160|35=AN|49=VP|56=IDX|34=549|43=N|52=20240129-05:26:58|50=vpft1001|60=20240129-05:26:58|263=0|453=1|448=AD|447=C|452=7|710=20180208RPy4sn1ygt7d|715=20240129|724=1|10=244|
8=FIXT.1.1|9=160|35=AN|49=VP|56=IDX|34=550|43=N|52=20240129-05:27:18|50=vpft1001|60=20240129-05:27:18|263=0|453=1|448=AD|447=C|452=7|710=20180208RPy4sn1ygt7d|715=20240129|724=1|10=230|
8=FIXT.1.1|9=160|35=AN|49=VP|56=IDX|34=551|43=N|52=20240129-05:27:38|50=vpft1001|60=20240129-05:27:38|263=0|453=1|448=AD|447=C|452=7|710=20180208RPy4sn1ygt7d|715=20240129|724=1|10=235|
8=FIXT.1.1|9=160|35=AN|49=VP|56=IDX|34=552|43=N|52=20240129-05:27:58|50=vpft1001|60=20240129-05:27:58|263=0|453=1|448=AD|447=C|452=7|710=20180208RPy4sn1ygt7d|715=20240129|724=1|10=240|
8=FIXT.1.1|9=160|35=AN|49=VP|56=IDX|34=553|43=N|52=20240129-05:28:18|50=vpft1001|60=20240129-05:28:18|263=0|453=1|448=AD|447=C|452=7|710=20180208RPy4sn1ygt7d|715=20240129|724=1|10=235|
8=FIXT.1.1|9=160|35=AN|49=VP|56=IDX|34=554|43=N|52=20240129-05:28:38|50=vpft1001|60=20240129-05:28:38|263=0|453=1|448=AD|447=C|452=7|710=20180208RPy4sn1ygt7d|715=20240129|724=1|10=240|
8=FIXT.1.1|9=160|35=AN|49=VP|56=IDX|34=555|43=N|52=20240129-05:28:58|50=vpft1001|60=20240129-05:28:58|263=0|453=1|448=AD|447=C|452=7|710=20180208RPy4sn1ygt7d|715=20240129|724=1|10=245|
8=FIXT.1.1|9=160|35=AN|49=VP|56=IDX|34=556|43=N|52=20240129-05:29:18|50=vpft1001|60=20240129-05:29:18|263=0|453=1|448=AD|447=C|452=7|710=20180208RPy4sn1ygt7d|715=20240129|724=1|10=240|
8=FIXT.1.1|9=160|35=AN|49=VP|56=IDX|34=557|43=N|52=20240129-05:29:38|50=vpft1001|60=20240129-05:29:38|263=0|453=1|448=AD|447=C|452=7|710=20180208RPy4sn1ygt7d|715=20240129|724=1|10=245|
8=FIXT.1.1|9=160|35=AN|49=VP|56=IDX|34=558|43=N|52=20240129-05:29:58|50=vpft1001|60=20240129-05:29:58|263=0|453=1|448=AD|447=C|452=7|710=20180208RPy4sn1ygt7d|715=20240129|724=1|10=250|
8=FIXT.1.1|9=160|35=AN|49=VP|56=IDX|34=559|43=N|52=20240129-05:30:18|50=vpft1001|60=20240129-05:30:18|263=0|453=1|448=AD|447=C|452=7|710=20180208RPy4sn1ygt7d|715=20240129|724=1|10=227|
8=FIXT.1.1|9=160|35=AN|49=VP|56=IDX|34=560|43=N|52=20240129-05:30:38|50=vpft1001|60=20240129-05:30:38|263=0|453=1|448=AD|447=C|452=7|710=20180208RPy4sn1ygt7d|715=20240129|724=1|10=223|
8=FIXT.1.1|9=160|35=AN|49=VP|56=IDX|34=561|43=N|52=20240129-05:30:58|50=vpft1001|60=20240129-05:30:58|263=0|453=1|448=AD|447=C|452=7|710=20180208RPy4sn1ygt7d|715=20240129|724=1|10=228|
8=FIXT.1.1|9=160|35=AN|49=VP|56=IDX|34=562|43=N|52=20240129-05:31:18|50=vpft1001|60=20240129-05:31:18|263=0|453=1|448=AD|447=C|452=7|710=20180208RPy4sn1ygt7d|715=20240129|724=1|10=223|
8=FIXT.1.1|9=160|35=AN|49=VP|56=IDX|34=563|43=N|52=20240129-05:31:38|50=vpft1001|60=20240129-05:31:38|263=0|453=1|448=AD|447=C|452=7|710=20180208RPy4sn1ygt7d|715=20240129|724=1|10=228|
