8=FIXT.1.1|9=99|35=A|49=VP|56=IDX|34=1155|43=N|52=20240131-02:22:02|98=0|108=15|553=vpfc1001|554=jakarta123|1137=8|10=119|
8=FIXT.1.1|9=85|35=4|49=VP|56=IDX|34=1|43=Y|52=20240131-02:22:03|122=20240131-02:22:03|123=Y|36=1160|10=162|
8=FIXT.1.1|9=161|35=AN|49=VP|56=IDX|34=1160|43=N|52=20240131-02:22:07|50=vpft1001|60=20240131-02:22:07|263=0|453=1|448=AD|447=C|452=7|710=20180208RPy4sn1ygt7d|715=20240131|724=1|10=236|
8=FIXT.1.1|9=257|35=AE|49=VP|56=IDX|34=1161|52=20240131-02:22:27|50=vpft1001|31=3200|32=100|55=TLKM|552=2|54=1|581=1|453=2|448=99999|447=C|452=5|448=AD|447=C|452=5|54=2|581=1|453=2|448=null|447=C|452=37|448=AG|447=C|452=17|571=235325q35q4646|572=20240131|762=NG|856=3|919=1|10=057|
8=FIXT.1.1|9=161|35=AN|49=VP|56=IDX|34=1162|43=N|52=20240131-02:22:27|50=vpft1001|60=20240131-02:22:27|263=0|453=1|448=AD|447=C|452=7|710=20180208RPy4sn1ygt7d|715=20240131|724=1|10=242|
8=FIXT.1.1|9=99|35=A|49=VP|56=IDX|34=1163|43=N|52=20240131-02:53:17|98=0|108=15|553=vpfc1001|554=jakarta123|1137=8|10=128|
8=FIXT.1.1|9=161|35=AN|49=VP|56=IDX|34=1164|43=N|52=20240131-02:53:22|50=vpft1001|60=20240131-02:53:22|263=0|453=1|448=AD|447=C|452=7|710=20180208RPy4sn1ygt7d|715=20240131|724=1|10=242|
8=FIXT.1.1|9=161|35=AN|49=VP|56=IDX|34=1165|43=N|52=20240131-02:53:42|50=vpft1001|60=20240131-02:53:42|263=0|453=1|448=AD|447=C|452=7|710=20180208RPy4sn1ygt7d|715=20240131|724=1|10=247|
8=FIXT.1.1|9=161|35=AN|49=VP|56=IDX|34=1166|43=N|52=20240131-02:54:02|50=vpft1001|60=20240131-02:54:02|263=0|453=1|448=AD|447=C|452=7|710=20180208RPy4sn1ygt7d|715=20240131|724=1|10=242|
8=FIXT.1.1|9=161|35=AN|49=VP|56=IDX|34=1167|43=N|52=20240131-02:54:22|50=vpft1001|60=20240131-02:54:22|263=0|453=1|448=AD|447=C|452=7|710=20180208RPy4sn1ygt7d|715=20240131|724=1|10=247|
8=FIXT.1.1|9=161|35=AN|49=VP|56=IDX|34=1168|43=N|52=20240131-02:54:42|50=vpft1001|60=20240131-02:54:42|263=0|453=1|448=AD|447=C|452=7|710=20180208RPy4sn1ygt7d|715=20240131|724=1|10=252|
8=FIXT.1.1|9=161|35=AN|49=VP|56=IDX|34=1169|43=N|52=20240131-02:55:02|50=vpft1001|60=20240131-02:55:02|263=0|453=1|448=AD|447=C|452=7|710=20180208RPy4sn1ygt7d|715=20240131|724=1|10=247|
8=FIXT.1.1|9=161|35=AN|49=VP|56=IDX|34=1170|43=N|52=20240131-02:55:22|50=vpft1001|60=20240131-02:55:22|263=0|453=1|448=AD|447=C|452=7|710=20180208RPy4sn1ygt7d|715=20240131|724=1|10=243|
